:100000000C9461010C9489010C9489010C94890170
:100010000C9489010C9489010C9489010C94560666
:100020000C9489010C9489010C9489010C94890128
:100030000C9489010C9489010C9489010C94890118
:100040000C94B4050C9489010C9424060C94FE05C0
:100050000C9489010C9489010C9489010C948901F8
:100060000C9489010C948901735D200020743D007B
:100070005B530020666F7220004641554C54204C63
:100080004154434845443A2000636F756E74646F71
:10009000776E206C696E6B206F6E2041352C203995
:1000A0003630302062617564007820666173746553
:1000B000722C2074696D65732073686F776E206190
:1000C000726520636F6E74726F6C6C6572207365FD
:1000D000636F6E64730053494D554C4154494F4E04
:1000E000204255494C443A2072756E73200053509B
:1000F0004C4954004F50504F53494E4700207068B0
:10010000617365732C20706C616E3D00504F5745D4
:10011000522D4F4E0052455345542D50494E0042EA
:10012000524F574E2D4F5554005741544348444F5A
:1001300047005472616666696320636F6E74726F04
:100140006C6C65722076322E322E3020626F6F74A6
:100150002C2072657365743D0020206661756C7497
:100160002020202020203A200020706564526571F4
:10017000756573743D0020656D657267656E6379A2
:100180003D002020696E7075747320202020203A75
:10019000206E696768743D00202061726D20202008
:1001A00020202020203A200053504C4954004F502A
:1001B000504F53494E47002020706C616E20202024
:1001C000202020203A2000202061726D7320202002
:1001D000202020203A200020206379636C65732062
:1001E000202020203A20002D00202072656D6169BA
:1001F0006E696E6720203A200020677265656E3D4B
:1002000000202070686173652020202020203A2083
:1002100000202073746174652020202020203A2063
:100220000053544154555300436F6D6D616E6473B8
:100230003A2073203D207374617475732C206820FC
:100240003D2068656C70202872656164206F6E6C5B
:100250007929007065646573747269616E207265D6
:1002600071756573740000000000240027002A00E7
:1002700000000000250028002B00000000002300E3
:1002800026002900040404040404040402020202F7
:100290000202030303030303010204081020408049
:1002A00001020408102001020408102000000008C8
:1002B000000201000003040700000000000000002D
:1002C000D20D11241FBECFEFD8E0DEBFCDBF12E0AC
:1002D000A0E0B1E0E2E2FDE102C005900D92AE3E89
:1002E000B107D9F724E0AEEEB2E001C01D92AF3203
:1002F000B207E1F711E0C1E6D1E004C02197FE01A9
:100300000E94350EC036D107C9F70E94A2060C9490
:100310008F0E0C940000833081F028F4813099F026
:100320008230A9F008958730A9F08830C9F0843070
:10033000B1F4809180008F7D03C0809180008F7721
:1003400080938000089584B58F7784BD089584B527
:100350008F7DFBCF8091B0008F778093B0000895A0
:100360008091B0008F7DF9CFCF93DF93282F30E0BD
:10037000F901E455FD4F8491F901E856FD4FD49100
:10038000F901EC57FD4FC491CC23A1F081110E94DB
:100390008B01EC2FF0E0EE0FFF1FE658FD4FA5910B
:1003A000B491EC91ED2381E090E009F480E0DF91DD
:1003B000CF91089580E090E0FACF1F93CF93DF9321
:1003C000282F30E0F901E455FD4F8491F901E856FA
:1003D000FD4FD491F901EC57FD4FC491CC23A9F006
:1003E000162F81110E948B01EC2FF0E0EE0FFF1F02
:1003F000E059FD4FA591B4918FB7F894EC9111118C
:1004000008C0D095DE23DC938FBFDF91CF911F9181
:100410000895DE2BF8CFCF93DF9390E0FC01E856F0
:10042000FD4F24918C579D4FFC0184918823D1F07E
:1004300090E0880F991FFC01EA59FD4FA591B491F6
:10044000FC01E059FD4FC591D491623071F49FB722
:10045000F8943C91822F809583238C93E8812E2BF6
:1004600028839FBFDF91CF9108958FB7F894EC91C7
:100470002E2B2C938FBFF6CF2FB7F89460918E035D
:1004800070918F0380919003909191032FBF0895F5
:10049000AF92BF92CF92DF92EF92FF920F931F9392
:1004A000CF93DF936C017B018B01040F151FEB01D0
:1004B0005E01AE18BF08C017D10759F06991D60187
:1004C000ED91FC910190F081E02DC6010995892BF9
:1004D00079F7C501DF91CF911F910F91FF90EF90B8
:1004E000DF90CF90BF90AF900895FC01538D448D65
:1004F000252F30E0842F90E0821B930B541710F0CF
:10050000CF96089501970895FC01918D828D9817DB
:1005100061F0A28DAE0FBF2FB11D5D968C91928DB3
:100520009F5F9F73928F90E008958FEF9FEF0895E4
:10053000FC01918D828D981731F0828DE80FF11DAD
:10054000858D90E008958FEF9FEF0895FC01918DC8
:10055000228D892F90E0805C9F4F821B91098F73C1
:100560009927089582E993E00E94A60221E0892B51
:1005700009F420E0822F089580E090E0892B29F093
:100580000E94B20281110C9400000895FC01A48D18
:10059000A80FB92FB11DA35ABF4F2C91848D90E0A5
:1005A00001968F739927848FA689B7892C93A08988
:1005B000B1898C91837080648C93938D848D981312
:1005C00006C00288F389E02D80818F7D80830895A5
:1005D000EF92FF920F931F93CF93DF93EC0181E093
:1005E000888F9B8D8C8D98131AC0E889F98980813A
:1005F00085FF15C09FB7F894EE89FF896083E8896D
:10060000F98980818370806480839FBF81E090E05E
:10061000DF91CF911F910F91FF90EF900895F62EEB
:100620000B8D10E00F5F1F4F0F731127E02E8C8D85
:100630008E110CC00FB607FCFACFE889F9898081CA
:1006400085FFF5CFCE010E94C602F1CFEB8DEC0FF6
:10065000FD2FF11DE35AFF4FF0829FB7F8940B8FE7
:10066000EA89FB8980818062CFCF682F82E993E09D
:100670000C94E8020F931F93CF93DF938C01D0E08B
:10068000C0E0F801EC0FFD1F6491662341F082E9A0
:1006900093E00E94E802892B11F02196F2CFCE015F
:1006A000DF91CF911F910F910895CF93DF93EC01CC
:1006B000888D8823B9F0AA89BB89E889F9898C914A
:1006C00085FD03C0808186FD0DC00FB607FCF7CF06
:1006D0008C9185FFF2CF808185FFEDCFCE010E9406
:1006E000C602E9CFDF91CF9108958F929F92AF928A
:1006F000BF92CF92DF92EF92FF920E943C02C09095
:10070000EE02D090EF02E090F002F090F1029B0137
:10071000AC012C193D094E095F0969017A018091EC
:100720006D0390916E03A0916F03B0917003C81692
:10073000D906EA06FB0680F5BC01CD016C197D09DE
:100740008E099F0924E1C22ED12CE12CF12CA701A6
:1007500096010E94130E49015A019B01AC01A4E6C7
:10076000B0E00E94510EA70196010E94130E69018C
:100770007A01A4E6B0E0A50194010E94510E6C0D2F
:100780007D1D8E1D9F1DFF90EF90DF90CF90BF903D
:10079000AF909F908F90089560E070E0CB01F3CF11
:1007A000CF92DF92EF92FF920E943C02C090EE0245
:1007B000D090EF02E090F002F090F1026C197D0908
:1007C0008E099F0921E0C0906D03D0906E03E090E8
:1007D0006F03F09070036C157D058E059F0508F47E
:1007E00020E0822FFF90EF90DF90CF9008950F933D
:1007F0001F93CF93DF93D0E0C0E0082F10E0C80133
:100800000C2E02C0959587950A94E2F780FF06C0EA
:10081000FE01E15EFE4F80810E9435032196C430C7
:10082000D10569F7DF91CF911F910F910895CF9274
:10083000DF92EF92FF920F931F93CF938C01FC01F5
:1008400080810E94B401C1E0892B09F0C0E00E94C0
:100850003C02F80124812C1729F0C4836583768338
:1008600087839087F80123812C17D9F0C580D68023
:10087000E780F0846C197D098E099F09C180D280C0
:10088000F12CE12C6C157D058E059F0550F0C3837E
:100890008C2FCF911F910F91FF90EF90DF90CF9011
:1008A0000895C0E0F5CFCF93DF93EC01862F6883E6
:1008B0005A83498362E00E940B0288810E94B4013E
:1008C00021E0892B09F020E02B832C830E943C023D
:1008D0006D837E838F839887DF91CF910895FC018C
:1008E00001900020E9F73197AF01481B590BBC017B
:1008F00082E993E00C9448028F929F92AF92BF924C
:100900000F931F93CF93DF93CDB7DEB7A1970FB6A9
:10091000F894DEBF0FBECDBF19A2423008F44AE002
:100920008E010F5D1F4F842E912CB12CA12CA5019F
:1009300094010E94130EE62FB901CA01EA30F4F4C3
:10094000E05DD801EE938D01232B242B252B79F725
:1009500090E080E0109719F0CD010E946F04A196FD
:100960000FB6F894DEBF0FBECDBFDF91CF911F91C0
:100970000F91BF90AF909F908F900895E95CE1CF69
:100980008BE691E00C946F04CF93DF930E943A03BF
:10099000EC010E94C0048C0F9D1FDF91CF91089540
:1009A000CF93DF93D0E0C0E0009719F00E946F046E
:1009B000EC010E94C0048C0F9D1FDF91CF91089520
:1009C000BC01990F880B990B4AE00C947C0480E7DA
:1009D00090E00E943A0380E30E94350381E090E0BA
:1009E0000E94E00480E20E94350380917B03909195
:1009F0007C03009711F00E946F048CE690E00E9447
:100A00003A030E943C0228EC30E040E050E00E94B3
:100A1000130ECA01B9014AE00E947C0488E690E006
:100A20000C943A03CF92DF92EF92FF920F931F93B1
:100A3000CF93C82F8B01809388030E943C02609360
:100A4000EE027093EF028093F0029093F10268013E
:100A5000F12CE12C9801A0E2BEE40E943B0E24E6BA
:100A600030E040E050E00E94130E20936D0330937D
:100A70006E0340936F03509370030E94E704EC2FC2
:100A8000F0E0EE0FFF1FE95AFE4F80819181009741
:100A900011F00E946F04C150C23068F480E20E94DD
:100AA0003503E0917A03F0E0EE0FFF1FEF58FC4FA3
:100AB00080810E94F703012B61F083E790E00E94A0
:100AC0003A034AE0C701B6010E947C0483E70E9412
:100AD0003503CF911F910F91FF90EF90DF90CF9052
:100AE0000C94C00480917A038F5F80937A03909175
:100AF00079038917A8F010927A0380916903909185
:100B00006A03A0916B03B0916C030196A11DB11D06
:100B10008093690390936A03A0936B03B0936C0373
:100B2000E0917A03F0E0EE0FFF1FEF58FC4F618178
:100B300070E081E00C94120547E250E0BC0181E4D2
:100B400093E00E94800E1092680370E060E089E0FC
:100B50000E9412050E94E70489E790E00E943A0390
:100B600081E493E00C94D0041F920F920FB60F9281
:100B700011242F933F938F939F93AF93BF938091B3
:100B80008E0390918F03A0919003B09191033091C7
:100B90008D0323E0230F2D3758F50196A11DB11DBC
:100BA00020938D0380938E0390938F03A0939003E3
:100BB000B09391038091890390918A03A0918B0354
:100BC000B0918C030196A11DB11D80938903909370
:100BD0008A03A0938B03B0938C03BF91AF919F9135
:100BE0008F913F912F910F900FBE0F901F901895EE
:100BF00026E8230F0296A11DB11DD2CF1F920F929E
:100C00000FB60F9211242F933F934F935F936F93DF
:100C10007F938F939F93AF93BF93EF93FF9382E95B
:100C200093E00E94C602FF91EF91BF91AF919F9117
:100C30008F917F916F915F914F913F912F910F9085
:100C40000FBE0F901F9018951F920F920FB60F9224
:100C500011242F938F939F93EF93FF93E091A2031F
:100C6000F091A3038081E091A803F091A90382FD94
:100C70001BC090818091AB038F5F8F732091AC0379
:100C8000821741F0E091AB03F0E0EE56FC4F958FF8
:100C90008093AB03FF91EF919F918F912F910F90D4
:100CA0000FBE0F901F9018958081F4CF1F920F9266
:100CB0000FB60F9211242F933F938F939F93EF932F
:100CC000FF93E091F902F0E0E650FD4F80819091B2
:100CD000F802911125C045988091F8028F5F8093AA
:100CE000F8028A3090F01092F8028091F9028F5F3A
:100CF0008093F90290913C03891738F010923C03DD
:100D0000809170008D7F80937000FF91EF919F9193
:100D10008F913F912F910F900FBE0F901F901895BC
:100D20009091F802993060F42091F80290E02150FF
:100D3000330B02C0959587952A95E2F780FFCBCFBC
:100D4000459ACACFCF93DF93CDB7DEB7C654D1094A
:100D50000FB6F894DEBF0FBECDBF789484B5826025
:100D600084BD84B5816084BD85B5826085BD85B54F
:100D7000816085BD80916E00816080936E001092CD
:100D80008100809181008260809381008091810048
:100D900081608093810080918000816080938000D9
:100DA0008091B10084608093B1008091B000816037
:100DB0008093B00080917A00846080937A00809163
:100DC0007A00826080937A0080917A0081608093BB
:100DD0007A0080917A00806880937A001092C10036
:100DE000F4B614BE0FB6F894A8958091600088619F
:100DF00080936000109260000FBE01E4C02E01E0FD
:100E0000D02E84E0E82E10E000E0F601E00FF11FA4
:100E1000B08061E08B2D0E940B0261E0011160E067
:100E20008B2D0E94DD010F5F1F4F0330110569F705
:100E3000EA9423E0C20ED11CE110E5CF61E081E12C
:100E40000E940B0261E082E10E940B0260E081E1FE
:100E50000E94DD0161E082E10E94DD01E091A203D8
:100E6000F091A30382E08083E0919E03F0919F03C1
:100E70001082E091A003F091A1032FEC2083109247
:100E8000AA03E091A603F091A70396E09083E09176
:100E9000A403F091A503908190619083E091A40355
:100EA000F091A503908198609083E091A403F09164
:100EB000A503908190689083E091A403F091A5032D
:100EC00090819F7D9083459A3D9A8093B000809356
:100ED000B1002093B300109270008CE0E5E3F1E0E4
:100EE000ABE7B3E001900D928A95E1F7ABE7B3E091
:100EF000FD018481893708F088E7873008F487E0AE
:100F00008483319633E0EF37F30799F790E080E080
:100F100020E04FE050E031E0BA01082E02C07595A4
:100F200067950A94E2F760FF12C0E22FF0E0149692
:100F30006C911497EE0FFF1FEF58FC4F732F082E84
:100F400001C0770F0A94EAF7708361832F5F0196DF
:100F500011968430910501F7209379034CE251E01A
:100F60006EE083E191E00E94530444E650E06FE0BC
:100F70008AE091E00E94530442E350E060E181E0A6
:100F800091E00E9453040E94E70482E391E00E94F2
:100F90003A0389E291E0F3FC0AC08FE191E0F2FCB0
:100FA00006C085E191E0F1FC02C08CE091E00E9476
:100FB000C4040E94E7046091790370E090E080E04F
:100FC0004AE00E947C048DEF90E00E943A038091F9
:100FD0007E03813009F082C084EF90E00E94C40457
:100FE0000E94E7048EE691E00E94D0040E94E7048C
:100FF00080EA91E00E94D0040E94E7048FED91E026
:101000000E94D0040E94E70481E192E00E94D00493
:101010000E94E70486ED90E00E943A0385E090E0AC
:101020000E94E00489EA90E00E94C4040E94E70460
:1010300089E890E00E94C40465E070E080E00E94CE
:10104000120588E19FE00FB6F894A89580936000A0
:101050000FBE9093600080911C0190911D01A091A2
:101060001E0127968DAF9EAFAFAF2797A89583E15E
:1010700091E00E9417048AE091E00E94170481E049
:1010800091E00E9417048823B1F080918803845076
:10109000823088F08091870381110DC08091850393
:1010A000882349F091E0909387030E94E70483E549
:1010B00092E00E94C404E0918803E93008F057C030
:1010C000F0E0EB59F74F0C94350E71088F08D70AF2
:1010D000E10AFB0A0A0B140B240B300B8EEE90E096
:1010E0007DCF0E94D003882309F441C080910D0177
:1010F000882331F070E060E088E00E94120537C07C
:1011000080911601882321F070E060E087E0F5CF40
:1011100010927A036091720370E081E0EECF0E943A
:101120003C026B017C0180910D01882329F06091C4
:10113000830370E082E0E1CF8090EE029090EF02B6
:10114000A090F002B090F1020E94D0038111EFCF85
:1011500080911601882359F0C818D908EA08FB08BD
:10116000A8E7CA16A5E0DA06E104F10400F70E9438
:101170003C0224EF31E040E050E00E94130E690190
:101180007A01B1E0CB22DD24EE24FF2449015A018B
:1011900080949094A094B094382D31701092F30202
:1011A000E1E0E093000160917D0370E080917A03BB
:1011B00090E010918803A4EF2A2EA2E03A2EF101CC
:1011C00050E040E0880F991FDC01AF58BC4F832EE0
:1011D000CB01042E02C0959587950A94E2F780FD15
:1011E00042C210824F5F5F4F31964430510581F704
:1011F000153009F467C208F05DC231E0143009F41B
:1012000061C2193009F062C227968DAD9EADAFADB7
:10121000279789839A83AB83512C00E0F8EF8F2EB8
:10122000F2E09F2E952D9170492E71E4672E71E0AA
:10123000772EE4EFEE2EE2E0FE2EDE0111965D0148
:10124000CC24C394D12CF50181915F01D7019C91ED
:10125000892391E009F490E0491208C0F601319722
:10126000E60DF71D602F80810E94DD01BFEFCB1AD4
:10127000DB0AE4E0CE16D10431F7FFEFEF1AFF0AE4
:1012800023E0620E711C8E149F04B9F6F090F302F5
:101290004F1004C0602F81E10E94DD0180910001A8
:1012A000481204C0602F82E10E94DD015394352D65
:1012B0003170532E013009F057C2193009F447C07C
:1012C00001E411E0D80112968C910E94B4016C01E6
:1012D000F101B1901F01D80111968C910E94B401C7
:1012E000B1FA332730F921E0019709F020E03213F9
:1012F0000BC0B2FA992790F981E0CA94CD2809F081
:1013000080E0EE24E3949813E12CF80180810E94A0
:10131000B4012B2D217031E0019709F030E0231347
:1013200025C2F1E00A341F0721F00D5F1F4FE110C5
:10133000C9CF81E10E94B40121E0019709F020E0CA
:10134000F21216C2EE2009F413C21092F2020E94A9
:101350003C022B013C0180913D0390913E03A09102
:101360003F03B0914003A3019201281B390B4A0BA4
:101370005B0BDA01C901C297A105B10508F40FC3DF
:1013800080913C0381110BC340923D0350923E0378
:1013900060923F037092400384E2898383E48A83EE
:1013A00084E48B838CE28C83E0918803F0E0E35B40
:1013B000FE4F80818D831AAA19AA1E0136E0230EE2
:1013C000311CECE2D101EC93F9A9FCAB80917D03D7
:1013D00090E002C095958795FA95E2F780FFB2C23A
:1013E00010918803183009F498C2193009F4AAC280
:1013F000C12CD12C760180E096E41730F9F02091D1
:101400007A032BABE22FF0E0EE0FFF1FEF58FC4FFB
:10141000808190E00CA802C0959587950A94E2F728
:1014200081709927113009F0AEC1892B09F4B6C13A
:101430000E9475036B017C0181E097E4D101119654
:101440009C93882309F486C2C701B60169517C4F79
:101450008F4F9F4F28EE33E040E050E00E94130E84
:1014600069017A01B8EECB16B3E0DB06E104F104C2
:1014700030F037EEC32E33E0D32EE12CF12CC70130
:10148000B60124E630E040E050E00E94130E205DFB
:10149000F1012283C701B6012AE030E040E050E0CC
:1014A0000E94130E162FCA01B9012AE030E040E075
:1014B00050E00E94130E605DD10113966C93139758
:1014C000105D14961C93F5E02F0E311C29A93AA942
:1014D0002F5F3F4F3AAB29AB2430310509F071CF74
:1014E00080E0FE0132969E01265E3F4F9191892752
:1014F000E217F307D8F391E1E6E7F2E0DE01909618
:1015000001900D929A95E1F79AE29A8FE82FF0E018
:1015100024E0F595E7952A95E1F740E250E04C0F7D
:101520005D1FE40FF51F90819B8FE82FEF70CA01BC
:101530008E0F911DFC0180818C8F8DE08D8F8AE054
:101540008E8F1F8E6DE173E0CE0101960E94700EAA
:10155000892BB1F48091190390911A03A0911B0378
:10156000B0911C03A3019201281B390B4A0B5B0BA2
:10157000DA01C901883E9340A105B10508F40FC204
:1015800080913C038111FCC1FE01319690E080E026
:10159000282F3191332309F4E4C18F31910509F4E7
:1015A000DFC1DC01A650BD4F3C930196F1CF0E94F4
:1015B000D003882309F4DBCD6091840370E083E0DD
:1015C0009CCD0E94D003882309F4D1CD80910D01D8
:1015D000811190CD80911601811196CD8091870364
:1015E000882379F160918503662359F1109287036E
:1015F00070E084E082CD80910D01882329F0609114
:10160000860370E085E079CD0E94D003882309F439
:10161000AECDF5CF0E94D003882309F4A8CD609108
:10162000840370E086E069CD0E94D003882309F42A
:101630009ECD80910D0181115DCD809116018111AA
:1016400063CD0E94720593CD80910D01811152CD21
:101650008091160181118BCD65E070E080E04DCD69
:1016600080910D01F7CF8C9190E0042E02C09595EA
:1016700087950A94E2F781709927123081F020F45F
:10168000113049F081E005C0173069F0882D19301C
:10169000C9F78083A7CD892BA9F384E0FACF892BE2
:1016A00089F382E0F6CF80E0C114D104E104F104B3
:1016B00081F7F7CF173019F0193009F0A2CD309328
:1016C00000019FCD3093F30210920001E4EFF2E0AD
:1016D00090E080E0B0E021E030E0082FA191AB0184
:1016E000082E02C0559547950A94E2F740FD02C0C6
:1016F000A11135C04A2F467031F0A90101C0440F35
:101700000A95EAF7B42BA2FF02C0A37041F5019637
:101710008430910511F71730B1F0BB23A1F09091FF
:101720007903E1E7F3E080E04B2F50E09817B9F040
:10173000208130E020953095242335233296232BC9
:1017400011F08F5FF3CF8091F302882309F45CCD11
:10175000B11105C080910001882309F455CD88E4BA
:1017600092E00E949C05F3CD01E05CCDE12CE1CD3F
:101770008091F2028F5F8093F202833008F4E7CD0C
:101780008CE592E0EECF123049F4892B39F00E94BB
:1017900075036B017C0181E099E550CE0E947503D1
:1017A0006B017C0100918703F0918503002321F0F8
:1017B00001E0F11101C000E080918303282F30E0A7
:1017C00050E040E02EAB3FAB48AF59AFE09184030F
:1017D0008E2F90E0B0E0A0E08AAF9BAFACAFBDAF82
:1017E000A8EEB3E02AAD3BAD4CAD5DAD0E94510E0D
:1017F0004B015C01409186032F2F240F3327331FA9
:10180000D901AE0FB11D28EE33E00E944A0E229698
:101810006CAF7DAF8EAF9FAF2297173008F07DC0C1
:10182000E12FF0E0EA5EF34F0C94350E1D0C230C13
:101830002F0C330C930C9D0C210C8091790381505B
:101840008BAB80E011C0A8EEB3E02EA93FA948AD54
:1018500059AD0E94510E860E971EA81EB91EC80CC7
:10186000D91CEA1CFB1C81E0F09179034F2F50E05A
:1018700024965FAF4EAF2497A1E0B0E00CA802C061
:10188000AA0FBB1F0A94E2F7BDABACABE0E08EA899
:101890009FA8A8ACB9AC2AAD3BAD4CAD5DAD820EF6
:1018A000931EA41EB51E882369F0002359F02296CA
:1018B0008CAD9DADAEADBFAD2297C80ED91EEA1E50
:1018C000FB1E00E0ABA98A2F90E0019624966EAD36
:1018D0007FAD24970E94FF0D8BAB880F991FDC0111
:1018E000AF58BC4F8C9190E02CA93DA98223932343
:1018F000892B71F511968C91A5019401280F311D4A
:10190000411D511DA8EEB3E00E94510EC60ED71E18
:10191000E81EF91EEF5FFE1740F6C12CD12C7601B0
:1019200080E092E58BCD242F30E0A8EEB3E00E945A
:101930003B0E860E971EA81EB91EC80CD91CEA1CA9
:10194000FB1C7FCFC12CD12C760180E098E576CDB1
:1019500081E0E7CF8DE2F101848383838283B3CD7D
:101960002FE11092F9021092F8021092B20082E078
:1019700087BB20933C03809170008260809370004D
:10198000BE016F5F7F4F8DE193E00E94790E409220
:10199000190350921A0360921B0370921C0382E990
:1019A00093E00E94A602892B09F4EFC082E993E03C
:1019B0000E948402982F9F7D933509F0DCC00E941D
:1019C000E70481E292E00E94C40481E192E00E9477
:1019D0003A03E0918803F0E0EE0FFF1FE95AFE4F53
:1019E000808191810E94D00481E092E00E943A03BC
:1019F00080917A0390E001960E94E0048FE20E94B9
:101A000035036091790370E090E080E04AE00E9445
:101A10007C0489EF91E00E943A03E0917A03F0E0C0
:101A2000EE0FFF1FEF58FC4F80810E94F7030E94CA
:101A3000C00489EE91E00E943A0380916D03909179
:101A40006E03A0916F03B0917003892B8A2B8B2BAF
:101A500009F489C00E94750369517C4F8F4F9F4FD5
:101A600028EE33E040E050E00E94130ECA01B901B5
:101A70004AE00E947C0483E70E9435030E94C00470
:101A800087ED91E00E943A036091690370916A03C7
:101A900080916B0390916C034AE00E947C040E9449
:101AA000C00487EC91E00E943A0380917D030E947C
:101AB000F7030E94C00487EB91E00E943A038091F3
:101AC0007E03813009F054C08EEA91E00E94C40484
:101AD00088E991E00E943A038EE691E00E94D004EA
:101AE00088E991E00E943A0380EA91E00E94D004E4
:101AF00088E991E00E943A038FED91E00E94D004C2
:101B000088E991E00E943A0381E192E00E94D004CA
:101B100082E891E00E943A038091160190E00E94D1
:101B2000E00486E791E00E943A0380910D0190E085
:101B30000E94E00489E691E00E943A0380918703C5
:101B400090E00E94E0040E94C004809188038930E4
:101B500009F025CF89E591E00E943A0381E493E002
:101B60000E94D0041CCF87EE91E00E94C40488CF6D
:101B700088EA91E0ABCF983419F08F3309F00FCF9A
:101B800088E292E00E94C4040ACF80E090E0892BB2
:101B900009F46CCA0E94B202882309F467CA0E9441
:101BA000000064CAE2E9F3E01382128288EE93E057
:101BB000A0E0B0E084839583A683B78387E291E0B9
:101BC0009183808385EC90E09587848784EC90E016
:101BD0009787868780EC90E0918B808B81EC90E0FA
:101BE000938B828B82EC90E0958B848B86EC90E0DB
:101BF000978B868B118E128E138E148E089597FB01
:101C0000072E16F4009407D077FD09D00E945C0ED1
:101C100007FC05D03EF4909581959F4F08957095EF
:101C200061957F4F0895A1E21A2EAA1BBB1BFD01EF
:101C30000DC0AA1FBB1FEE1FFF1FA217B307E407AB
:101C4000F50720F0A21BB30BE40BF50B661F771F03
:101C5000881F991F1A9469F76095709580959095E3
:101C60009B01AC01BD01CF010895EE0FFF1F059050
:101C7000F491E02D0994A29FB001B39FC001A39FEE
:101C8000700D811D1124911DB29F700D811D1124B5
:101C9000911D08950E943B0EB7FF0895821B930B80
:101CA00008950E943B0EA59F900DB49F900DA49F98
:101CB000800D911D11240895AA1BBB1B51E107C083
:101CC000AA1FBB1FA617B70710F0A61BB70B881FCC
:101CD000991F5A95A9F780959095BC01CD0108955B
:101CE000FB01DC018D91019080190110D9F3990B52
:101CF0000895FB01DC0101900D920020E1F70895A9
:101D0000FB01DC014150504048F001900D92002051
:101D1000C9F701C01D9241505040E0F70895F89472
:021D2000FFCFF3
:101D2200010032000000000000000032000000004C
:101D32000000000032000000000000000102044E1A
:101D420045535700000000E802480275025503A6F9
:101D5200028402980287020F001E23142304030A3E
:101D62000F02030405060708090A0B0C0D55475913
:101D7200415750434E45469402A002A602AD02B519
:101D820002BE02C802D202DE02E8020D0A004E20A2
:101D920020746F20506F6B686172612062757320CE
:101DA2007061726B20202020202020202020202003
:101DB2002850312C204E4520636F726E65722900C7
:101DC2004520204D6168656E647261204877792CE8
:101DD20020426972656E6472612043616D70757331
:101DE200202F2054616E6469207369646520202865
:101DF20050322C20534520636F726E657229005356
:101E02002020746F2052616D707572202020202076
:101E120020202020202020202020202020202020C0
:101E2200202850332C20535720636F726E6572291D
:101E3200005720204D6168656E6472612048777991
:101E42002C204E61726179616E69206272696467E9
:101E520065207369646520202850342C204E572059
:101E6200636F726E65722900636F6E666C6963746C
:101E7200696E6720636F6D6D616E64006F7574705B
:101E8200757420726561642D6261636B206D697384
:101E92006D61746368003031323334353637383926
:101EA200414243444546004E47482D50554C434815
:101EB2004F574B00535441525455505F52454400C2
:101EC200475245454E0059454C4C4F5700414C4CEA
:101ED2005F524544005045445F57414C4B005045CA
:101EE200445F464C415348005045445F434C454192
:101EF20052004E494748545F464C41534800454DB5
:0E1F0200455247454E4359004641554C540048
:00000001FF
