:100000000C943F010C9467010C9467010C946701F8
:100010000C9467010C9467010C9467010C943706EB
:100020000C9467010C9467010C9467010C946701B0
:100030000C9467010C9467010C9467010C946701A0
:100040000C9495050C9467010C9405060C94DF053F
:100050000C9467010C9467010C9467010C94670180
:100060000C9467010C946701735D200020743D00BF
:100070005B530020666F7220004641554C54204C63
:100080004154434845443A2000636F756E74646F71
:10009000776E206C696E6B206F6E2041352C203995
:1000A00036303020626175640053504C4954004F23
:1000B00050504F53494E4700207068617365732C50
:1000C00020706C616E3D00504F5745522D4F4E00D1
:1000D00052455345542D50494E0042524F574E2DD4
:1000E0004F5554005741544348444F4700547261A0
:1000F0006666696320636F6E74726F6C6C657220E4
:1001000076322E322E3020626F6F742C207265731F
:1001100065743D0020206661756C742020202020CD
:10012000203A200020706564526571756573743DD6
:100130000020656D657267656E63793D00202069FA
:100140006E7075747320202020203A206E696768D5
:10015000743D00202061726D20202020202020206E
:100160003A200053504C4954004F50504F53494E81
:1001700047002020706C616E202020202020203A33
:100180002000202061726D73202020202020203A42
:10019000200020206379636C657320202020203AA2
:1001A00020002D00202072656D61696E696E6720E8
:1001B000203A200020677265656E3D00202070683F
:1001C0006173652020202020203A200020207374B5
:1001D0006174652020202020203A2000535441548F
:1001E000555300436F6D6D616E64733A2073203D0B
:1001F000207374617475732C2068203D2068656CD1
:1002000070202872656164206F6E6C7929007065BA
:10021000646573747269616E20726571756573745B
:100220000000000000240027002A00000000002534
:100230000028002B000000000023002600290004F5
:10024000040404040404040202020202020303037D
:100250000303030102040810204080010204081077
:100260002001020408102000000008000201000024
:10027000030407000000000000000000A90D112485
:100280001FBECFEFD8E0DEBFCDBF12E0A0E0B1E0EF
:10029000E0EFFCE102C005900D92AE3EB107D9F748
:1002A00024E0AEEEB2E001C01D92AF32B207E1F73A
:1002B00011E0CFE3D1E004C02197FE010E941C0EA3
:1002C000CE33D107C9F70E9483060C94760E0C94A6
:1002D0000000833081F028F4813099F08230A9F059
:1002E00008958730A9F08830C9F08430B1F4809146
:1002F00080008F7D03C0809180008F778093800085
:10030000089584B58F7784BD089584B58F7DFBCF24
:100310008091B0008F778093B00008958091B000F5
:100320008F7DF9CFCF93DF93282F30E0F901E95982
:10033000FD4F8491F901ED5AFD4FD491F901E15C33
:10034000FD4FC491CC23A1F081110E946901EC2FD3
:10035000F0E0EE0FFF1FEB5CFD4FA591B491EC9127
:10036000ED2381E090E009F480E0DF91CF910895E2
:1003700080E090E0FACF1F93CF93DF93282F30E0F7
:10038000F901E959FD4F8491F901ED5AFD4FD491DE
:10039000F901E15CFD4FC491CC23A9F0162F811126
:1003A0000E946901EC2FF0E0EE0FFF1FE55DFD4FAD
:1003B000A591B4918FB7F894EC91111108C0D09524
:1003C000DE23DC938FBFDF91CF911F910895DE2B49
:1003D000F8CFCF93DF9390E0FC01ED5AFD4F2491CD
:1003E000815C9D4FFC0184918823D1F090E0880FBF
:1003F000991FFC01EF5DFD4FA591B491FC01E55DF6
:10040000FD4FC591D491623071F49FB7F8943C913F
:10041000822F809583238C93E8812E2B28839FBF86
:10042000DF91CF9108958FB7F894EC912E2B2C93F8
:100430008FBFF6CF2FB7F89460918E0370918F0322
:1004400080919003909191032FBF0895AF92BF9236
:10045000CF92DF92EF92FF920F931F93CF93DF9390
:100460006C017B018B01040F151FEB015E01AE18BF
:10047000BF08C017D10759F06991D601ED91FC91E1
:100480000190F081E02DC6010995892B79F7C5010E
:10049000DF91CF911F910F91FF90EF90DF90CF9060
:1004A000BF90AF900895FC01538D448D252F30E00F
:1004B000842F90E0821B930B541710F0CF96089571
:1004C00001970895FC01918D828D981761F0A28D9E
:1004D000AE0FBF2FB11D5D968C91928D9F5F9F7364
:1004E000928F90E008958FEF9FEF0895FC01918D1A
:1004F000828D981731F0828DE80FF11D858D90E087
:1005000008958FEF9FEF0895FC01918D228D892F23
:1005100090E0805C9F4F821B91098F73992708950B
:1005200082E993E00E94840221E0892B09F420E013
:10053000822F089580E090E0892B29F00E9490029C
:1005400081110C9400000895FC01A48DA80FB92F0F
:10055000B11DA35ABF4F2C91848D90E001968F73EB
:100560009927848FA689B7892C93A089B1898C910A
:10057000837080648C93938D848D981306C0028859
:10058000F389E02D80818F7D80830895EF92FF9223
:100590000F931F93CF93DF93EC0181E0888F9B8DA6
:1005A0008C8D98131AC0E889F989808185FF15C060
:1005B0009FB7F894EE89FF896083E889F989808183
:1005C0008370806480839FBF81E090E0DF91CF9152
:1005D0001F910F91FF90EF900895F62E0B8D10E074
:1005E0000F5F1F4F0F731127E02E8C8D8E110CC0E3
:1005F0000FB607FCFACFE889F989808185FFF5CF2E
:10060000CE010E94A402F1CFEB8DEC0FFD2FF11D66
:10061000E35AFF4FF0829FB7F8940B8FEA89FB896A
:1006200080818062CFCF682F82E993E00C94C6026C
:100630000F931F93CF93DF938C01D0E0C0E0F801BC
:10064000EC0FFD1F6491662341F082E993E00E9464
:10065000C602892B11F02196F2CFCE01DF91CF9106
:100660001F910F910895CF93DF93EC01888D88231C
:10067000B9F0AA89BB89E889F9898C9185FD03C005
:10068000808186FD0DC00FB607FCF7CF8C9185FFEA
:10069000F2CF808185FFEDCFCE010E94A402E9CF89
:1006A000DF91CF9108958F929F92AF92BF92CF9298
:1006B000DF92EF92FF920E941A02C090EE02D09059
:1006C000EF02E090F002F090F1029B01AC012C19D6
:1006D0003D094E095F0969017A0180916D0390918E
:1006E0006E03A0916F03B0917003C816D906EA0695
:1006F000FB0680F5BC01CD016C197D098E099F09AF
:1007000024E6C22ED12CE12CF12CA70196010E94E7
:10071000FA0D49015A019B01AC01A4E6B0E00E9428
:10072000380EA70196010E94FA0D69017A01A4E62C
:10073000B0E0A50194010E94380E6C0D7D1D8E1D48
:100740009F1DFF90EF90DF90CF90BF90AF909F9054
:100750008F90089560E070E0CB01F3CFCF92DF92ED
:10076000EF92FF920E941A02C090EE02D090EF0228
:10077000E090F002F090F1026C197D098E099F095A
:1007800021E0C0906D03D0906E03E0906F03F09075
:1007900070036C157D058E059F0508F420E0822FFF
:1007A000FF90EF90DF90CF9008950F931F93CF931A
:1007B000DF93D0E0C0E0082F10E0C8010C2E02C08B
:1007C000959587950A94E2F780FF06C0FE01E15EE9
:1007D000FE4F80810E9413032196C430D10569F732
:1007E000DF91CF911F910F910895CF92DF92EF92F9
:1007F000FF920F931F93CF938C01FC0180810E9485
:100800009201C1E0892B09F0C0E00E941A02F801B0
:1008100024812C1729F0C48365837683878390878E
:10082000F80123812C17D9F0C580D680E780F084A9
:100830006C197D098E099F09C180D280F12CE12CB1
:100840006C157D058E059F0550F0C3838C2FCF91CD
:100850001F910F91FF90EF90DF90CF900895C0E02F
:10086000F5CFCF93DF93EC01862F68835A834983BA
:1008700062E00E94E90188810E94920121E0892BB7
:1008800009F020E02B832C830E941A026D837E8363
:100890008F839887DF91CF910895FC01019000200C
:1008A000E9F73197AF01481B590BBC0182E993E08E
:1008B0000C9426028F929F92AF92BF920F931F9338
:1008C000CF93DF93CDB7DEB7A1970FB6F894DEBF15
:1008D0000FBECDBF19A2423008F44AE08E010F5D71
:1008E0001F4F842E912CB12CA12CA50194010E94A4
:1008F000FA0DE62FB901CA01EA30F4F4E05DD8013F
:10090000EE938D01232B242B252B79F790E080E0AB
:10091000109719F0CD010E944D04A1960FB6F894DE
:10092000DEBF0FBECDBFDF91CF911F910F91BF9062
:10093000AF909F908F900895E95CE1CF8BE691E0B6
:100940000C944D04CF93DF930E941803EC010E9496
:100950009E048C0F9D1FDF91CF910895CF93DF935D
:10096000D0E0C0E0009719F00E944D04EC010E9415
:100970009E048C0F9D1FDF91CF910895BC01990FAC
:10098000880B990B4AE00C945A0480E790E00E948F
:10099000180380E30E94130381E090E00E94BE04EC
:1009A00080E20E94130380917B0390917C03009767
:1009B00011F00E944D048CE690E00E9418030E9402
:1009C0001A0228EE33E040E050E00E94FA0DCA011E
:1009D000B9014AE00E945A0488E690E00C9418039A
:1009E000CF92DF92EF92FF920F931F93CF93C82F76
:1009F0008B01809388030E941A026093EE02709329
:100A0000EF028093F0029093F1026801F12CE12C47
:100A1000A701980160EA76E881E090E00E94D60D97
:100A200024E630E040E050E00E94FA0D20936D0390
:100A300030936E0340936F03509370030E94C5047C
:100A4000EC2FF0E0EE0FFF1FE95AFE4F80819181FD
:100A5000009711F00E944D04C150C23068F480E24A
:100A60000E941303E0917A03F0E0EE0FFF1FEF58AE
:100A7000FC4F80810E94D503012B61F083E790E059
:100A80000E9418034AE0C701B6010E945A0483E796
:100A90000E941303CF911F910F91FF90EF90DF9071
:100AA000CF900C949E0480917A038F5F80937A0399
:100AB000909179038917A8F010927A0380916903C5
:100AC00090916A03A0916B03B0916C030196A11DF4
:100AD000B11D8093690390936A03A0936B03B09355
:100AE0006C03E0917A03F0E0EE0FFF1FEF58FC4F2C
:100AF000618170E081E00C94F00447E250E0BC01B9
:100B000081E493E00E94670E1092680370E060E059
:100B100089E00E94F0040E94C50489E790E00E94E9
:100B2000180381E493E00C94AE041F920F920FB669
:100B30000F9211242F933F938F939F93AF93BF9363
:100B400080918E0390918F03A0919003B0919103B7
:100B500030918D0323E0230F2D3758F50196A11D09
:100B6000B11D20938D0380938E0390938F03A093E8
:100B70009003B09391038091890390918A03A0918F
:100B80008B03B0918C030196A11DB11D8093890345
:100B900090938A03A0938B03B0938C03BF91AF9182
:100BA0009F918F913F912F910F900FBE0F901F90AB
:100BB000189526E8230F0296A11DB11DD2CF1F92D2
:100BC0000F920FB60F9211242F933F934F935F9381
:100BD0006F937F938F939F93AF93BF93EF93FF9305
:100BE00082E993E00E94A402FF91EF91BF91AF913F
:100BF0009F918F917F916F915F914F913F912F9135
:100C00000F900FBE0F901F9018951F920F920FB666
:100C10000F9211242F938F939F93EF93FF93E09163
:100C2000A203F091A3038081E091A803F091A903AE
:100C300082FD1BC090818091AB038F5F8F732091E9
:100C4000AC03821741F0E091AB03F0E0EE56FC4FAD
:100C5000958F8093AB03FF91EF919F918F912F918F
:100C60000F900FBE0F901F9018958081F4CF1F92A8
:100C70000F920FB60F9211242F933F938F939F9350
:100C8000EF93FF93E091F902F0E0E650FD4F808191
:100C90009091F802911125C045988091F8028F5FDC
:100CA0008093F8028A3090F01092F8028091F90255
:100CB0008F5F8093F90290913C03891738F010926E
:100CC0003C03809170008D7F80937000FF91EF91C5
:100CD0009F918F913F912F910F900FBE0F901F907A
:100CE00018959091F802993060F42091F80290E004
:100CF0002150330B02C0959587952A95E2F780FF26
:100D0000CBCF459ACACFCF93DF93CDB7DEB7C654CA
:100D1000D1090FB6F894DEBF0FBECDBF789484B56D
:100D2000826084BD84B5816084BD85B5826085BDE7
:100D300085B5816085BD80916E00816080936E0075
:100D40001092810080918100826080938100809167
:100D50008100816080938100809180008160809318
:100D600080008091B10084608093B1008091B000D8
:100D700081608093B00080917A00846080937A00D3
:100D800080917A00826080937A0080917A008160FD
:100D900080937A0080917A00806880937A00109224
:100DA000C100F4B614BE0FB6F894A8958091600007
:100DB000886180936000109260000FBE01E4C02E35
:100DC00001E0D02E84E0E82E10E000E0F601E00F14
:100DD000F11FB08061E08B2D0E94E90161E00111FB
:100DE00060E08B2D0E94BB010F5F1F4F0330110588
:100DF00069F7EA9423E0C20ED11CE110E5CF61E06F
:100E000081E10E94E90161E082E10E94E90160E084
:100E100081E10E94BB0161E082E10E94BB01E0919F
:100E2000A203F091A30382E08083E0919E03F091FE
:100E30009F031082E091A003F091A1032FEC208387
:100E40001092AA03E091A603F091A70396E0908385
:100E5000E091A403F091A503908190619083E091CB
:100E6000A403F091A503908198609083E091A4037E
:100E7000F091A503908190689083E091A403F09194
:100E8000A50390819F7D9083459A3D9A8093B00001
:100E90008093B1002093B300109270008CE0E5E3E2
:100EA000F1E0ABE7B3E001900D928A95E1F7ABE793
:100EB000B3E02FE733E0FD018481893708F088E74C
:100EC000873008F487E0848331962E173F07A1F717
:100ED00090E080E020E04FE050E031E0BA01082EE1
:100EE00002C0759567950A94E2F760FF12C0E22F81
:100EF000F0E014966C911497EE0FFF1FEF58FC4F23
:100F0000732F082E01C0770F0A94EAF7708361836C
:100F10002F5F019611968430910501F72093790394
:100F20004CE251E06EE083E191E00E94310444E63E
:100F300050E06FE08AE091E00E94310442E350E02B
:100F400060E181E091E00E9431040E94C5048DEED1
:100F500090E00E94180384EE90E0F3FC0AC08AED52
:100F600090E0F2FC06C080ED90E0F1FC02C087EC5E
:100F700090E00E94A2040E94C5046091790370E091
:100F800090E080E04AE00E945A0488EB90E00E94E2
:100F9000180380917E03813009F074C08FEA90E0DD
:100FA0000E94A2040E94C5048EE691E00E94AE0455
:100FB0000E94C50480EA91E00E94AE040E94C5042C
:100FC0008FED91E00E94AE040E94C50481E192E0A1
:100FD0000E94AE040E94C50489E890E00E94A20429
:100FE00065E070E080E00E94F00488E19FE00FB6C9
:100FF000F894A895809360000FBE90936000809154
:101000001C0190911D01A0911E0127968DAF9EAFEE
:10101000AFAF2797A89583E191E00E94F5038AE09E
:1010200091E00E94F50381E091E00E94F50388239E
:10103000B1F0809188038450823088F080918703DA
:1010400081110DC080918503882349F091E0909330
:1010500087030E94C5048EE092E00E94A204E09102
:101060008803E93008F057C0F0E0E75CF74F0C94D4
:101070001C0E45086308AB0AB50ACF0ADE0AE80A67
:10108000F80A040B89EA90E08BCF0E94AE03882314
:1010900009F441C080910D01882331F070E060E0D7
:1010A00088E00E94F00437C080911601882321F067
:1010B00070E060E087E0F5CF10927A0360917203F0
:1010C00070E081E0EECF0E941A026B017C018091FA
:1010D0000D01882329F06091830370E082E0E1CF65
:1010E0008090EE029090EF02A090F002B090F1029A
:1010F0000E94AE038111EFCF80911601882359F031
:10110000C818D908EA08FB08A8E5CA16ABE1DA0650
:10111000E104F10400F70E941A0224EF31E040E0FC
:1011200050E00E94FA0D69017A01B1E0CB22DD2482
:10113000EE24FF2449015A0180949094A094B09425
:10114000382D31701092F302E1E0E09300016091DC
:101150007D0370E080917A0390E010918803A4EF02
:101160002A2EA2E03A2EF10150E040E0880F991FAC
:10117000DC01AF58BC4F832ECB01042E02C09595E5
:1011800087950A94E2F780FD42C210824F5F5F4F5D
:1011900031964430510581F7153009F467C208F0E3
:1011A0005DC231E0143009F461C2193009F062C245
:1011B00027968DAD9EADAFAD279789839A83AB837C
:1011C000512C00E0F8EF8F2EF2E09F2E952D9170BC
:1011D000492E71E4672E71E0772EE4EFEE2EE2E007
:1011E000FE2EDE0111965D01CC24C394D12CF501B5
:1011F00081915F01D7019C91892391E009F490E0EE
:10120000491208C0F6013197E60DF71D602F808165
:101210000E94BB01BFEFCB1ADB0AE4E0CE16D1047B
:1012200031F7FFEFEF1AFF0A23E0620E711C8E14F4
:101230009F04B9F6F090F3024F1004C0602F81E1D3
:101240000E94BB0180910001481204C0602F82E11E
:101250000E94BB015394352D3170532E013009F09B
:1012600057C2193009F447C001E411E0D8011296C1
:101270008C910E9492016C01F101B1901F01D80183
:1012800011968C910E949201B1FA332730F921E036
:10129000019709F020E032130BC0B2FA992790F9B8
:1012A00081E0CA94CD2809F080E0EE24E3949813FD
:1012B000E12CF80180810E9492012B2D217031E0F8
:1012C000019709F030E0231325C2F1E00A341F072B
:1012D00021F00D5F1F4FE110C9CF81E10E94920103
:1012E00021E0019709F020E0F21216C2EE2009F485
:1012F00013C21092F2020E941A022B013C0180914B
:101300003D0390913E03A0913F03B0914003A301A0
:101310009201281B390B4A0B5B0BDA01C901C297FA
:10132000A105B10508F40FC380913C0381110BC3E3
:1013300040923D0350923E0360923F0370924003FF
:1013400084E2898383E48A8384E48B838CE28C83C4
:10135000E0918803F0E0E35BFE4F80818D831AAA61
:1013600019AA1E0136E0230E311CECE2D101EC93E8
:10137000F9A9FCAB80917D0390E002C0959587951B
:10138000FA95E2F780FFB2C210918803183009F491
:1013900098C2193009F4AAC2C12CD12C760180E080
:1013A00096E41730F9F020917A032BABE22FF0E0AE
:1013B000EE0FFF1FEF58FC4F808190E00CA802C099
:1013C000959587950A94E2F781709927113009F075
:1013D000AEC1892B09F4B6C10E9453036B017C0195
:1013E00081E097E4D10111969C93882309F486C289
:1013F000C701B60169517C4F8F4F9F4F28EE33E0F4
:1014000040E050E00E94FA0D69017A01B8EECB1677
:10141000B3E0DB06E104F10430F037EEC32E33E035
:10142000D32EE12CF12CC701B60124E630E040E0D8
:1014300050E00E94FA0D205DF1012283C701B60140
:101440002AE030E040E050E00E94FA0D162FCA0179
:10145000B9012AE030E040E050E00E94FA0D605D02
:10146000D10113966C931397105D14961C93F5E0BD
:101470002F0E311C29A93AA92F5F3F4F3AAB29AB58
:101480002430310509F071CF80E0FE0132969E01D3
:10149000265E3F4F91918927E217F307D8F391E138
:1014A000E6E7F2E0DE01909601900D929A95E1F761
:1014B0009AE29A8FE82FF0E024E0F595E7952A95D7
:1014C000E1F740E250E04C0F5D1FE40FF51F908103
:1014D0009B8FE82FEF70CA018E0F911DFC01808158
:1014E0008C8F8DE08D8F8AE08E8F1F8E6DE173E083
:1014F000CE0101960E94570E892BB1F480911903F9
:1015000090911A03A0911B03B0911C03A3019201B7
:10151000281B390B4A0B5B0BDA01C901883E93404B
:10152000A105B10508F40FC280913C038111FCC1F3
:10153000FE01319690E080E0282F3191332309F4A9
:10154000E4C18F31910509F4DFC1DC01A650BD4F24
:101550003C930196F1CF0E94AE03882309F4DBCDC2
:101560006091840370E083E09CCD0E94AE038823E9
:1015700009F4D1CD80910D01811190CD809116019A
:10158000811196CD80918703882379F1609185033D
:10159000662359F11092870370E084E082CD809138
:1015A0000D01882329F06091860370E085E079CDF4
:1015B0000E94AE03882309F4AECDF5CF0E94AE039E
:1015C000882309F4A8CD6091840370E086E069CD9A
:1015D0000E94AE03882309F49ECD80910D018111F4
:1015E0005DCD80911601811163CD0E94530593CD8D
:1015F00080910D01811152CD8091160181118BCD09
:1016000065E070E080E04DCD80910D01F7CF8C91C9
:1016100090E0042E02C0959587950A94E2F78170B8
:101620009927123081F020F4113049F081E005C093
:10163000173069F0882D1930C9F78083A7CD892B21
:10164000A9F384E0FACF892B89F382E0F6CF80E01A
:10165000C114D104E104F10481F7F7CF173019F078
:10166000193009F0A2CD309300019FCD3093F302E1
:1016700010920001E4EFF2E090E080E0B0E021E0C1
:1016800030E0082FA191AB01082E02C05595479577
:101690000A94E2F740FD02C0A11135C04A2F4670FE
:1016A00031F0A90101C0440F0A95EAF7B42BA2FF5B
:1016B00002C0A37041F501968430910511F71730EF
:1016C000B1F0BB23A1F090917903E1E7F3E080E072
:1016D0004B2F50E09817B9F0208130E020953095DD
:1016E000242335233296232B11F08F5FF3CF809183
:1016F000F302882309F45CCDB11105C0809100018B
:10170000882309F455CD88E492E00E947D05F3CD4D
:1017100001E05CCDE12CE1CD8091F2028F5F8093FE
:10172000F202833008F4E7CD8CE592E0EECF123080
:1017300049F4892B39F00E9453036B017C0181E04D
:1017400099E550CE0E9453036B017C010091870301
:10175000F0918503002321F001E0F11101C000E0C8
:1017600080918303282F30E050E040E02EAB3FAB68
:1017700048AF59AFE09184038E2F90E0B0E0A0E035
:101780008AAF9BAFACAFBDAFA8EEB3E02AAD3BAD27
:101790004CAD5DAD0E94380E4B015C01409186035B
:1017A0002F2F240F3327331FD901AE0FB11D28EE81
:1017B00033E00E94310E22966CAF7DAF8EAF9FAFAB
:1017C0002297173008F07DC0E12FF0E0E651F44F8A
:1017D0000C941C0EF10BF70B030C070C670C710C2F
:1017E000F50B8091790381508BAB80E011C0A8EE9E
:1017F000B3E02EA93FA948AD59AD0E94380E860E20
:10180000971EA81EB91EC80CD91CEA1CFB1C81E03F
:10181000F09179034F2F50E024965FAF4EAF24979D
:10182000A1E0B0E00CA802C0AA0FBB1F0A94E2F727
:10183000BDABACABE0E08EA89FA8A8ACB9AC2AAD1C
:101840003BAD4CAD5DAD820E931EA41EB51E88232C
:1018500069F0002359F022968CAD9DADAEADBFADC1
:101860002297C80ED91EEA1EFB1E00E0ABA98A2FE4
:1018700090E0019624966EAD7FAD24970E94E60D10
:101880008BAB880F991FDC01AF58BC4F8C9190E057
:101890002CA93DA982239323892B71F511968C9154
:1018A000A5019401280F311D411D511DA8EEB3E083
:1018B0000E94380EC60ED71EE81EF91EEF5FFE17F7
:1018C00040F6C12CD12C760180E092E58BCD242FFF
:1018D00030E0A8EEB3E00E94220E860E971EA81EEE
:1018E000B91EC80CD91CEA1CFB1C7FCFC12CD12C03
:1018F000760180E098E576CD81E0E7CF8DE2F101D9
:10190000848383838283B3CD2FE11092F9021092F6
:10191000F8021092B20082E087BB20933C038091D2
:101920007000826080937000BE016F5F7F4F8DE119
:1019300093E00E94600E4092190350921A03609245
:101940001B0370921C0382E993E00E948402892B9E
:1019500009F4F2C082E993E00E946202982F9F7D11
:10196000933509F0DFC00E94C5048CED91E00E9420
:10197000A2048CEC91E00E941803E0918803F0E04F
:10198000EE0FFF1FE95AFE4F808191810E94AE0445
:101990008CEB91E00E94180380917A0390E001960D
:1019A0000E94BE048FE20E9413036091790370E0ED
:1019B00090E080E04AE00E945A0484EB91E00E94AB
:1019C0001803E0917A03F0E0EE0FFF1FEF58FC4F91
:1019D00080810E94D5030E949E0484EA91E00E94C7
:1019E000180380916D0390916E03A0916F03B091E5
:1019F0007003892B8A2B8B2B09F48CC00E94530314
:101A000069517C4F8F4F9F4F28EE33E040E050E00C
:101A10000E94FA0DCA01B9014AE00E945A0483E704
:101A20000E9413030E949E0482E991E00E94180321
:101A30006091690370916A0380916B0390916C03CC
:101A40004AE00E945A040E949E0482E891E00E94AB
:101A5000180380917D030E94D5030E949E0482E7B3
:101A600091E00E94180380917E03813009F057C0F5
:101A700089E691E00E94A20483E591E00E941803A8
:101A80008EE691E00E94AE0483E591E00E94180387
:101A900080EA91E00E94AE0483E591E00E94180381
:101AA0008FED91E00E94AE0483E591E00E9418035F
:101AB00081E192E00E94AE048DE391E00E94180360
:101AC0008091160190E00E94BE0481E391E00E94A3
:101AD000180380910D0190E00E94BE0484E291E021
:101AE0000E9418036091870370E090E080E04AE074
:101AF0000E945A040E949E0480918803893009F054
:101B000022CF84E191E00E94180381E493E00E94D7
:101B1000AE0419CF82EA91E00E94A20485CF83E649
:101B200091E0A8CF983419F08F3309F00CCF83EEF1
:101B300091E00E94A20407CF80E090E0892B09F495
:101B400069CA0E949002882309F464CA0E940000B6
:101B500061CAE2E9F3E01382128288EE93E0A0E02A
:101B6000B0E084839583A683B78387E291E0918375
:101B7000808385EC90E09587848784EC90E097875C
:101B8000868780EC90E0918B808B81EC90E0938B4A
:101B9000828B82EC90E0958B848B86EC90E0978B27
:101BA000868B118E128E138E148E0895DB018F9307
:101BB0009F930E94380EBF91AF91A29F800D911DFF
:101BC000A39F900DB29F900D1124089597FB072EAF
:101BD00016F4009407D077FD09D00E94430E07FC4D
:101BE00005D03EF4909581959F4F0895709561952D
:101BF0007F4F0895A1E21A2EAA1BBB1BFD010DC049
:101C0000AA1FBB1FEE1FFF1FA217B307E407F507AC
:101C100020F0A21BB30BE40BF50B661F771F881F88
:101C2000991F1A9469F760957095809590959B011E
:101C3000AC01BD01CF010895EE0FFF1F0590F49197
:101C4000E02D0994A29FB001B39FC001A39F700D26
:101C5000811D1124911DB29F700D811D1124911DB4
:101C600008950E94220EB7FF0895821B930B0895DA
:101C70000E94220EA59F900DB49F900DA49F800DF1
:101C8000911D11240895AA1BBB1B51E107C0AA1F77
:101C9000BB1FA617B70710F0A61BB70B881F991F0D
:101CA0005A95A9F780959095BC01CD010895FB0147
:101CB000DC018D91019080190110D9F3990B0895E1
:101CC000FB01DC0101900D920020E1F70895FB017A
:101CD000DC014150504048F001900D920020C9F7BE
:101CE00001C01D9241505040E0F70895F894FFCF95
:101CF000010032000000000000000032000000007F
:101D00000000000032000000000000000102044E4C
:101D100045535700000000C60226025302330384D5
:101D2000026202760287020F001E23142304030AB4
:101D30000F02030405060708090A0B0C0D55475945
:101D4000415750434E45469402A002A602AD02B54B
:101D500002BE02C802D202DE02E8020D0A004E20D4
:101D600020746F20506F6B68617261206275732000
:101D70007061726B20202020202020202020202035
:101D80002850312C204E4520636F726E65722900F9
:101D90004520204D6168656E647261204877792C1A
:101DA00020426972656E6472612043616D70757363
:101DB000202F2054616E6469207369646520202897
:101DC00050322C20534520636F726E657229005388
:101DD0002020746F2052616D7075722020202020A9
:101DE00020202020202020202020202020202020F3
:101DF000202850332C20535720636F726E65722950
:101E0000005720204D6168656E64726120487779C3
:101E10002C204E61726179616E692062726964671B
:101E200065207369646520202850342C204E57208B
:101E3000636F726E65722900636F6E666C6963749E
:101E4000696E6720636F6D6D616E64006F7574708D
:101E5000757420726561642D6261636B206D6973B6
:101E60006D61746368003031323334353637383958
:101E7000414243444546004E47482D50554C434847
:101E80004F574B00535441525455505F52454400F4
:101E9000475245454E0059454C4C4F5700414C4C1C
:101EA0005F524544005045445F57414C4B005045FC
:101EB000445F464C415348005045445F434C4541C4
:101EC00052004E494748545F464C41534800454DE7
:0E1ED000455247454E4359004641554C54007B
:00000001FF
