:100000000C9465000C948D000C948D000C948D0064
:100010000C948D000C948D000C948D000C9457055D
:100020000C948D000C948D000C948D000C940B0698
:100030000C948D000C948D000C948D000C948D000C
:100040000C940D050C948D000C94D9050C94B305FB
:100050000C948D000C948D000C948D000C948D00EC
:100060000C948D000C948D00735D20000200000044
:1000700000240027002A0000000000250028002B93
:1000800000000000002300260029000404040404EA
:100090000404040202020202020303030303030135
:1000A000020408102040800102040810200102040C
:1000B00008102000000008000201000003040700EF
:1000C0000000000000000000C70611241FBECFEF93
:1000D000D8E0DEBFCDBF12E0A0E0B1E0E6E0F2E2A2
:1000E00002C005900D92A63FB107D9F723E0A6EF15
:1000F000B2E001C01D92AC3EB207E1F710E0C5E6E8
:10010000D0E004C02197FE010E94160EC436D1072C
:10011000C9F70E9424070C9401110C940000CF929F
:10012000DF92EF92FF92DC01A03282E0B807D4F5B3
:10013000A53BB10514F0A4EBB0E04091EA0328E838
:1001400030E0241B310947FD3395220F331F220F66
:10015000331F6901330FEE08FF084091EB0328E5D8
:1001600032E0241B310947FD3395220F331F220F44
:10017000331F032E000C440B550B2C193D094E095F
:100180005F09B7FF02C0B0E0A0E00E94930B24EB30
:1001900030E040E050E00E94690BC20ED31EE41E26
:1001A000F51ED6012091E9032C3008F040C0809163
:1001B000EA0348E850E0481B510987FD5395440F76
:1001C000551F440F551FA417B50784F08091EB030A
:1001D00048E552E0481B510987FD5395440F551FD0
:1001E000440F551FA417B5070CF4AD016FB7F89471
:1001F00030E0CA010297092E000CAA0BBB0B44E0A9
:10020000880F991FAA1FBB1F4A95D1F753E0B695D7
:10021000A795979587955A95D1F7F901EE0FFF1F8E
:10022000E20FF31FEC53FC4F928381836FBFFF906B
:10023000EF90DF90CF900895833081F028F48130E3
:1002400099F08230A9F008958730A9F08830C9F07C
:100250008430B1F4809180008F7D03C08091800054
:100260008F7780938000089584B58F7784BD08953B
:1002700084B58F7DFBCF8091B0008F778093B000E5
:1002800008958091B0008F7DF9CFCF93DF93282F11
:1002900030E0F901ED54FF4F8491F901E156FF4F31
:1002A000D491F901E557FF4FC491CC23A1F08111FE
:1002B0000E941C01EC2FF0E0EE0FFF1FEF57FF4FE5
:1002C000A591B491EC91ED2381E090E009F480E0F8
:1002D000DF91CF91089580E090E0FACF1F93CF9304
:1002E000DF93282F30E0F901ED54FF4F8491F9019D
:1002F000E156FF4FD491F901E557FF4FC491CC234C
:10030000A9F0162F81110E941C01EC2FF0E0EE0FD6
:10031000FF1FE958FF4FA591B4918FB7F894EC9166
:10032000111108C0D095DE23DC938FBFDF91CF91F0
:100330001F910895DE2BF8CFCF93DF9390E0FC015F
:10034000E156FF4F249185579F4FFC0184918823EC
:10035000D1F090E0880F991FFC01E359FF4FA59160
:10036000B491FC01E958FF4FC591D491623071F40A
:100370009FB7F8943C91822F809583238C93E881DA
:100380002E2B28839FBFDF91CF9108958FB7F894CC
:10039000EC912E2B2C938FBFF6CF2FB7F894609152
:1003A00023037091240380912503909126032FBF8E
:1003B000089590912C0189130BC0ECE6F0E0E491D4
:1003C0009FEF90932C01E13049F028F0E23061F08A
:1003D00060E00C946E0110926E00FACF90916F0065
:1003E0009D7F90936F00F4CF909170009D7F9093CC
:1003F000700091E09093B0009091B100987F94606C
:100400009093B1001092B300E3CFAF92BF92CF921E
:10041000DF92EF92FF920F931F93CF93DF936C01C4
:100420007B018B01040F151FEB015E01AE18BF08A5
:10043000C017D10759F06991D601ED91FC91019057
:10044000F081E02DC6010995892B79F7C501DF916F
:10045000CF911F910F91FF90EF90DF90CF90BF90C1
:10046000AF900895FC01538D448D252F30E0842FEB
:1004700090E0821B930B541710F0CF9608950197CC
:100480000895FC01918D828D981761F0A28DAE0FB9
:10049000BF2FB11D5D968C91928D9F5F9F73928F40
:1004A00090E008958FEF9FEF0895FC01918D828D6C
:1004B000981731F0828DE80FF11D858D90E0089539
:1004C0008FEF9FEF0895FC01918D228D892F90E091
:1004D000805C9F4F821B91098F739927089587E253
:1004E00093E00E94630221E0892B09F420E0822F2F
:1004F000089580E090E0892B29F00E946F0281111D
:100500000C9400000895FC01A48DA80FB92FB11D13
:10051000A35ABF4F2C91848D90E001968F73992739
:10052000848FA689B7892C93A089B1898C91837017
:1005300080648C93938D848D981306C00288F38910
:10054000E02D80818F7D80830895EF92FF920F933D
:100550001F93CF93DF93EC0181E0888F9B8D8C8D6F
:1005600098131AC0E889F989808185FF15C09FB763
:10057000F894EE89FF896083E889F9898081837026
:10058000806480839FBF81E090E0DF91CF911F91D5
:100590000F91FF90EF900895F62E0B8D10E00F5FF6
:1005A0001F4F0F731127E02E8C8D8E110CC00FB6CC
:1005B00007FCFACFE889F989808185FFF5CFCE0164
:1005C0000E948302F1CFEB8DEC0FFD2FF11DE35A5A
:1005D000FF4FF0829FB7F8940B8FEA89FB898081E7
:1005E0008062CFCFCF93DF93EC01888D8823B9F061
:1005F000AA89BB89E889F9898C9185FD03C080812E
:1006000086FD0DC00FB607FCF7CF8C9185FFF2CFAA
:10061000808185FFEDCFCE010E948302E9CFDF917B
:10062000CF9108958F929F92AF92BF92CF92DF9217
:10063000FF920F931F93CF93DF9300D000D000D091
:10064000CDB7DEB786E0E1E3F1E0DE01119601907F
:100650000D928A95E1F78E010F5F1F4F6E0127E023
:10066000C20ED11CD801ED91FD918D01F180F110E8
:1006700005C00C151D05B1F7F12C0FC087809084C3
:10068000A184B2840E94CD01681979098A099B0965
:10069000603C77428940910560F38F2D26960FB616
:1006A000F894DEBF0FBECDBFDF91CF911F910F91A8
:1006B000FF90DF90CF90BF90AF909F908F90089564
:1006C000CF92DF92EF92FF92CF93DF93EC0188817C
:1006D0000E94450121E0892B09F020E08A818217E0
:1006E00039F02A830E94CD016B837C838D839E83A6
:1006F0009A818981981308C080E0DF91CF91FF90A3
:10070000EF90DF90CF900895CB80DC80ED80FE806D
:100710000E94CD016C197D098E099F09643671050F
:100720008105910548F38A818983882331F00E94ED
:10073000CD016F83788789879A878981811102C06B
:100740008FEFDBCF81E0D9CFFC0101900020E9F7EA
:100750003197AF01481B590BBC0187E293E00C9421
:1007600005028F929F92AF92BF92EF92FF920F93EA
:100770001F93CF93DF93CDB7DEB7A1970FB6F89451
:10078000DEBF0FBECDBF7C016BE587E293E00E9428
:10079000A5020E94CD0128EE33E040E050E00E9427
:1007A0009B0B19A28E010F5D1F4F8AE0882E912CA2
:1007B000A12CB12CCA01B901A50194010E949B0B87
:1007C000605DF80162938F012115310541055105E6
:1007D00089F7309719F0CF010E94A40308E610E0D2
:1007E000F8016491662341F087E293E00E94A5023C
:1007F0000F5F1F4F892BA1F7C7010E94A4038DE54E
:1008000091E00E94A403A1960FB6F894DEBF0FBE3C
:10081000CDBFDF91CF911F910F91FF90EF90BF90CF
:10082000AF909F908F900895EF92FF920F931F9338
:10083000CF93DF93CDB7DEB7A8970FB6F894DEBF9E
:100840000FBECDBF20911703A7EFB2E010E0211734
:1008500009F461C09C91981348C012969C9112971C
:100860009923F1F1823009F443C085E691E09F932A
:100870008F938AE691E09F938F931F9288E28F93E4
:10088000CE0101967C019F938F930E941C0EC7019D
:100890000E94B1030FB6F894DEBF0FBECDBF412F4B
:1008A00050E09A012F5F3F4F809117038217130684
:1008B00011F10CF1FA01EE0FFF1FE40FF51FE950E3
:1008C000FD4FD901AA0FBB1FA20FB31FA950BD4FE7
:1008D0008D919D91AC9180839183A2831F5FDFCF27
:1008E00011969C9111979111BDCF1F5F1396AFCFB9
:1008F00080E691E0BCCF815080931703A8960FB695
:10090000F894DEBF0FBECDBFDF91CF911F910F9145
:10091000FF90EF900895223098F591E0920F909318
:10092000170330E092E0823009F493E0F901EE0F12
:10093000FF1FE20FF31FE950FD4F908311821282D7
:100940008230D9F085E691E09F938F938AE891E019
:100950009F938F931F9288E28F938E010F5F1F4F9B
:100960001F930F930E941C0EC8010E94B1030FB683
:10097000F894DEBF0FBECDBFC1CF80E691E0E4CFDB
:1009800084EA91E00E94B103B9CF0F931F93CF93F4
:10099000DF93CDB7DEB7A0970FB6F894DEBF0FBEDA
:1009A000CDBF90911903981769F1182F80931903FF
:1009B0000E94CD016093FD027093FE028093FF02BE
:1009C00090930003E12FF0E0EE0FFF1FE15CFE4F7C
:1009D00081818F9380818F9389ED91E09F938F9395
:1009E0001F9280E28F938E010F5F1F4F1F930F9313
:1009F0000E941C0EC8010E94B1030FB6F894DEBF1E
:100A00000FBECDBFA0960FB6F894DEBF0FBECDBF10
:100A1000DF91CF911F910F9108951F920F920FB602
:100A20000F9211242F933F938F939F93AF93BF9374
:100A30008091230390912403A0912503B091260374
:100A40003091220323E0230F2D3758F50196A11D85
:100A5000B11D209322038093230390932403A0933A
:100A60002503B093260380911E0390911F03A0914C
:100A70002003B09121030196A11DB11D80931E0397
:100A800090931F03A0932003B0932103BF91AF91D4
:100A90009F918F913F912F910F900FBE0F901F90BC
:100AA000189526E8230F0296A11DB11DD2CF1F92E3
:100AB0000F920FB60F9211242F933F934F935F9392
:100AC0006F937F938F939F93AF93BF93EF93FF9316
:100AD00080910B0390910C03A0910D03B0910E0334
:100AE000892B8A2B8B2BD1F190910603E091070380
:100AF000F091080380818927808380910B03909176
:100B00000C03A0910D03B0910E03181619061A06D6
:100B10001B069CF480910B0390910C03A0910D0394
:100B2000B0910E030197A109B10980930B03909333
:100B30000C03A0930D03B0930E03FF91EF91BF91AF
:100B4000AF919F918F917F916F915F914F913F9165
:100B50002F910F900FBE0F901F90189580912C0130
:100B60000E94D901EACF1F920F920FB60F92112463
:100B70002F933F934F935F936F937F938F939F93A5
:100B8000AF93BF93EF93FF9387E293E00E948302BA
:100B9000FF91EF91BF91AF919F918F917F916F9155
:100BA0005F914F913F912F910F900FBE0F901F902B
:100BB00018951F920F920FB60F9211242F938F93B7
:100BC0009F93EF93FF93E0913703F0913803808177
:100BD000E0913D03F0913E0382FD1BC09081809126
:100BE00040038F5F8F7320914103821741F0E091A2
:100BF0004003F0E0E95DFC4F958F80934003FF9147
:100C0000EF919F918F912F910F900FBE0F901F909A
:100C100018958081F4CF1F920F920FB60F92112476
:100C20002F933F934F935F936F937F938F939F93F4
:100C3000AF93BF93CF93DF93EF93FF938091F6022F
:100C4000C091E803D0E087FF24C010928500109285
:100C500084008091F6028F5F8093F6028091F60205
:100C6000082E000C990B8C179D0724F48091F60236
:100C70008C30C4F18091840090918500049680347A
:100C80009C4908F47AC08091840090918500049674
:100C900076C08091F602082E000C990B8C179D07E8
:100CA000C4F6E091F6028E2FEE0F990BFC01EE0FC9
:100CB000FF1FE80FF91FEC53FC4F808186FFC9CF5F
:100CC000E091F6028E2FEE0F990BFC01EE0FFF1F45
:100CD000E80FF91FEC53FC4F808160E08F730E9496
:100CE0006E01B7CF2091840030918500E091F6022B
:100CF0008E2FEE0F990BFC01EE0FFF1FE80FF91F6F
:100D0000EC53FC4F81819281820F931F9093890055
:100D100080938800E091F6028E2FEE0F990BFC0174
:100D2000EE0FFF1FE80FF91FEC53FC4F808186FF89
:100D300011C0E091F6028E2FEE0F990BFC01EE0F21
:100D4000FF1FE80FF91FEC53FC4F808161E08F73A8
:100D50000E946E01FF91EF91DF91CF91BF91AF9112
:100D60009F918F917F916F915F914F913F912F91C3
:100D70000F900FBE0F901F90189580E49CE9909300
:100D80008900809388008FEF8093F602E3CF109262
:100D90002A031092290388EE93E0A0E0B0E080934C
:100DA0002B0390932C03A0932D03B0932E038FE479
:100DB00091E0909328038093270385EC90E0909333
:100DC00034038093330384EC90E090933603809354
:100DD000350380EC90E0909338038093370381ECE7
:100DE00090E090933A038093390382EC90E09093E3
:100DF0003C0380933B0386EC90E090933E0380930A
:100E00003D0310924003109241031092420310924E
:100E100043038091E8038C3098F491E0980F90930D
:100E2000E8038093E90390E0FC01EE0FFF1FE80F59
:100E3000F91FEC53FC4F88EB9BE09283818308956C
:100E40008FEF8093E9030895CF93DF93CDB7DEB79B
:100E500028970FB6F894DEBF0FBECDBF789484B547
:100E6000826084BD84B5816084BD85B5826085BDA6
:100E700085B5816085BD80916E00816080936E0034
:100E80001092810080918100826080938100809126
:100E900081008160809381008091800081608093D7
:100EA00080008091B10084608093B1008091B00097
:100EB00081608093B00080917A00846080937A0092
:100EC00080917A00826080937A0080917A008160BC
:100ED00080937A0080917A00806880937A001092E3
:100EE000C10014BE0FB6F894A89580916000886187
:100EF00080936000109260000FBE80913701909146
:100F00003801A0913901B0913A018D839E83AF835E
:100F1000B88780913B0190913C01A0913D01B09137
:100F20003E0189839A83AB83BC838E010B5F1F4F85
:100F300078016E0129E0C20ED11C62E0D8018D91CA
:100F40008D010E949C010C151D05B9F78E010F5FE4
:100F50001F4F61E0F80181918F010E949C010E15E5
:100F60001F05B9F78091E9038C3008F051C061E0AA
:100F700089E00E949C018091E903282F30E0F9016B
:100F8000EE0FFF1FE20FF31FEC53FC4F9081907C9C
:100F9000996090831092EA031092EB032CE0622F89
:100FA0000E940A0E829FB001112430E020E0AB01C4
:100FB000420F531FFA01EE0FFF1FE40FF51FEC5312
:100FC000FC4F908196FD16C02F5F3F4F2C303105AE
:100FD00071F781110FC01092800082E08093810030
:100FE0001092850010928400B19A80916F00826007
:100FF00080936F00E091E9038E2F90E0FC01EE0FEB
:10100000FF1FE80FF91FEC53FC4F80818064808341
:101010008AE590E00E948F00E0913703F091380359
:1010200082E08083E0913303F09134031082E091F9
:101030003503F09136038FEC808310923F03E091EB
:101040003B03F0913C0386E08083E0913903F0910B
:101050003A03808180618083E0913903F0913A0303
:10106000808188608083E0913903F0913A03808128
:1010700080688083E0913903F0913A0380818F7D0D
:10108000808385EE91E00E94B10384E00E944501D7
:10109000892B99F481E080930D0180930C010E94CB
:1010A000CD0160931201709313018093140190930A
:1010B000150184E092E00E94B10388E19FE00FB641
:1010C000F894A895809360000FBE9093600066EA44
:1010D000262E60E0362EA89581E291E00E94600302
:1010E000D82E86E191E00E946003E82E8BE091E02B
:1010F0000E946003182F80E091E00E946003F82EA8
:10110000112319F140911703A7EFB2E090E080E0BE
:1011100011160CF039C1E7EFF2E090E080E084179F
:1011200008F02FC12281211129C12181211126C15D
:10113000FC01EE0FFF1FE80FF91FE950FD4F21E002
:10114000218386E292E00E94B1031D141CF482E028
:101150000E9414041E141CF483E00E941404F7FE81
:1011600019C080910C01811115C00E9412038111D8
:1011700011C080911703882321F08AE792E00E9432
:10118000B1031092170380911903853039F483E07D
:101190000E94C50480911903853059F00E94120302
:1011A000882339F085E00E94C50489E992E00E9415
:1011B000B103009119038091170311E081110CC054
:1011C00010910C01111108C010910101111104C0FE
:1011D00011E0053009F010E0EE24E394E12671F00F
:1011E0008091050381110AC00E94CD016093010323
:1011F000709302038093030390930403E09205032A
:10120000023009F410C108F0D7C0002309F4EEC081
:10121000013009F4F2C00E94CD016B017C01809184
:101220001A0390911B03A0911C03B0911D03A70109
:101230009601281B390B4A0B5B0BCA01B9010E94AE
:10124000E60C20E030E044EB52E40E949D0D20E0EB
:1012500030E84BEB55E40E943E0C4B015C01C09220
:101260001A03D0921B03E0921C03F0921D0310910D
:1012700019038EEF810F823030F0812F8B7F09F4BC
:10128000FDC0153059F540902D0150902E01609011
:101290002F017090300120E030E0A901C301B201BC
:1012A0000E94980D1816D4F4A5019401C301B2014F
:1012B0000E94CC0B4B015C0120E030E0A9010E94B0
:1012C000390C87FF03C0812C912C540180922D0191
:1012D00090922E01A0922F01B092300120E030E0D8
:1012E00040E05FE360912D0170912E0180912F010C
:1012F000909130010E94CD0B0E94B00CCB010E9456
:101300008F00C701B60124EF31E040E050E00E94B9
:101310009B0B29013A0181E0482255246624772459
:10132000111103C020E030E0A901622F617085E057
:101330000E946E01112331F061E0411451046104F7
:10134000710409F060E086E00E946E01B09018031D
:101350008FEF810F823018F0153009F096C1C70168
:10136000B6012AEF30E040E050E00E949B0B20FFE6
:101370008CC1BB2009F4ACC081E08EC101963396CC
:10138000CECE8CE392E0DFCE841708F0DECE9C0157
:1013900011965C911197019613965523A9F3F901C3
:1013A000EE0FFF1FE20FF31FE950FD4F118231E0F6
:1013B000328382E692E0C7CE033009F446C004309F
:1013C00009F029CF11112DC020E030E044EB52E4A8
:1013D00060912D0170912E0180912F01909130012B
:1013E0000E94980D87FD17CF80E004C081E0112393
:1013F00009F411CF0E94C5040ECFC090FD02D09019
:10140000FE02E090FF02F09000030E94CD016C19F3
:101410007D098E099F09603777418105910508F4A0
:10142000FACE82E0E7CF20E030E0A90160912D0103
:1014300070912E0180912F01909130010E94390C02
:1014400018160CF4E8CE83E0D5CFEE2009F4E3CEF5
:10145000C0900103D0900203E0900303F0900403D6
:101460000E94CD016C197D098E099F09683B7B4064
:101470008105910508F4CFCE84E0BCCF40902D01CA
:1014800050902E0160902F017090300120E030E0EC
:1014900044EB52E4C301B2010E94390C87FF1ECF16
:1014A000A3019201C501B4010E94CD0B4B015C0167
:1014B00020E030E044EB52E40E94980D18160CF046
:1014C00005CF812C912C34EBA32E32E4B32EFECE2B
:1014D00080912C01873049F5ECE6F0E0149117FD7E
:1014E0004BCF61E087E00E949C01112309F48FC07B
:1014F000123009F0A3C08091B100887F836080938F
:10150000B1008FEC8093B3008FEF9FEFDC018093ED
:101510000B0390930C03A0930D03B0930E038091E3
:10152000700082608093700027CF8F3F09F024CF36
:1015300087E080932C01ECE6F0E014911F3F09F462
:101540001BCF113021F150F0123009F43EC017FDCD
:1015500013CF61E087E00E949C01CACF14BC15BC88
:1015600084B5826084BD85B5816085BDE2E9F0E027
:101570008491E82FF0E0EE0FFF1FE958FF4F8591AF
:101580009491F101849180930A0310E0AACF109204
:10159000800010928100809181008860809381009A
:1015A00080918100816080938100E2E9F0E0849184
:1015B000E82FF0E0EE0FFF1FE958FF4F859194915F
:1015C000F1018491809309038CCF1092B0001092A6
:1015D000B1008091B00082608093B0008091B10032
:1015E00081608093B100E2E9F0E08491E82FF0E0BF
:1015F000EE0FFF1FE958FF4F8591949190930803D8
:1016000080930703F1018491809306036ACF85B527
:10161000887F836085BD87E687BD2FEF3FEFA901F7
:101620002093130330931403409315035093160330
:1016300080916E00826080936E009ECE1130E9F43E
:1016400080918100887F81608093810029E03AE168
:1016500030938900209388008FEF9FEFDC01809307
:101660000F0390931003A0931103B0931203809182
:101670006F00826080936F007FCE123021F01111D5
:101680007BCE89E0C9CF89E03DCF8B2DBB2021F0F7
:1016900087E00E94D90180E08093180380911903AC
:1016A000642D853031F061E080911703811101C014
:1016B00060E08DE00E946E01A0E0B0E0AB2B09F489
:1016C0000ACD0E946F02882309F405CD0E94000014
:1016D000FECC052E97FB1EF400940E94800B57FD54
:1016E00007D00E949B0B07FC03D04EF40C94800B98
:1016F00050954095309521953F4F4F4F5F4F08953E
:1017000090958095709561957F4F8F4F9F4F08956D
:101710000E94BD0BA59F900DB49F900DA49F800DBE
:10172000911D11240895B7FF0C94880B0E94880B1B
:10173000821B930B0895A1E21A2EAA1BBB1BFD016D
:101740000DC0AA1FBB1FEE1FFF1FA217B307E407A0
:10175000F50720F0A21BB30BE40BF50B661F771FF8
:10176000881F991F1A9469F76095709580959095D8
:101770009B01AC01BD01CF010895A29FB001B39FB1
:10178000C001A39F700D811D1124911DB29F700D8A
:10179000811D1124911D08955058BB27AA270E942E
:1017A000E40B0C945E0D0E94500D38F00E94570D12
:1017B00020F039F49F3F19F426F40C944D0D0EF4EB
:1017C000E095E7FB0C94470DE92F0E946F0D58F34D
:1017D000BA17620773078407950720F079F4A6F516
:1017E0000C94910D0EF4E0950B2EBA2FA02D0B0149
:1017F000B90190010C01CA01A0011124FF27591B56
:1018000099F0593F50F4503E68F11A16F040A22F5B
:10181000232F342F4427585FF3CF469537952795CC
:10182000A795F0405395C9F77EF41F16BA0B620BCB
:10183000730B840BBAF09150A1F0FF0FBB1F661F12
:10184000771F881FC2F70EC0BA0F621F731F841F55
:1018500048F4879577956795B795F7959E3F08F07B
:10186000B0CF9395880F08F09927EE0F979587953D
:1018700008950E94230D08F481E008950E94520CFF
:101880000C945E0D0E94570D58F00E94500D40F0D0
:1018900029F45F3F29F00C94470D51110C94920DDF
:1018A0000C944D0D0E946F0D68F39923B1F35523ED
:1018B00091F3951B550BBB27AA2762177307840763
:1018C00038F09F5F5F4F220F331F441FAA1FA9F3F9
:1018D00035D00E2E3AF0E0E832D091505040E695E7
:1018E000001CCAF72BD0FE2F29D0660F771F881F48
:1018F000BB1F261737074807AB07B0E809F0BB0B3B
:10190000802DBF01FF2793585F4F3AF09E3F51054E
:1019100078F00C94470D0C94920D5F3FE4F3983EE1
:10192000D4F3869577956795B795F7959F5FC9F737
:10193000880F911D9695879597F90895E1E0660FB8
:10194000771F881FBB1F621773078407BA0720F031
:10195000621B730B840BBA0BEE1F88F7E09508959A
:101960000E94B70C6894B1110C94920D08950E94D6
:10197000770D88F09F5798F0B92F9927B751B0F09D
:10198000E1F0660F771F881F991F1AF0BA95C9F703
:1019900014C0B13091F00E94910DB1E008950C9403
:1019A000910D672F782F8827B85F39F0B93FCCF3B6
:1019B000869577956795B395D9F73EF49095809580
:1019C000709561957F4F8F4F9F4F0895E89409C0A0
:1019D00097FB3EF490958095709561957F4F8F4F62
:1019E0009F4F9923A9F0F92F96E9BB279395F69578
:1019F000879577956795B795F111F8CFFAF4BB0FF6
:101A000011F460FF1BC06F5F7F4F8F4F9F4F16C059
:101A1000882311F096E911C0772321F09EE8872FE3
:101A2000762F05C0662371F096E8862F70E060E09F
:101A30002AF09A95660F771F881FDAF7880F969518
:101A4000879597F90895990F0008550FAA0BE0E8BC
:101A5000FEEF16161706E807F907C0F01216130670
:101A6000E407F50798F0621B730B840B950B39F4B0
:101A70000A2661F0232B242B252B21F408950A2616
:101A800009F4A140A6958FEF811D811D089597F956
:101A90009F6780E870E060E008959FEF80EC089514
:101AA00000240A941616170618060906089500243D
:101AB0000A9412161306140605060895092E0394B7
:101AC000000C11F4882352F0BB0F40F4BF2B11F42B
:101AD00060FF04C06F5F7F4F8F4F9F4F089557FD8A
:101AE0009058440F551F59F05F3F71F04795880F8C
:101AF00097FB991F61F09F3F79F087950895121623
:101B000013061406551FF2CF4695F1DF08C01616CE
:101B100017061806991FF1CF86957105610508947F
:101B20000895E894BB2766277727CB0197F9089596
:101B30000E94230D08F48FEF08950E94B00D0C94BD
:101B40005E0D0E94500D38F00E94570D20F0952335
:101B500011F00C94470D0C944D0D11240C94920D22
:101B60000E946F0D70F3959FC1F3950F50E0551FC4
:101B7000629FF001729FBB27F00DB11D639FAA27E2
:101B8000F00DB11DAA1F649F6627B00DA11D661F31
:101B9000829F2227B00DA11D621F739FB00DA11D52
:101BA000621F839FA00D611D221F749F3327A00D0C
:101BB000611D231F849F600D211D822F762F6A2FA8
:101BC00011249F5750409AF0F1F088234AF0EE0F0D
:101BD000FF1FBB1F661F771F881F91505040A9F73A
:101BE0009E3F510580F00C94470D0C94920D5F3F81
:101BF000E4F3983ED4F3869577956795B795F79576
:101C0000E7959F5FC1F7FE2B880F911D96958795ED
:101C100097F90895991B79E004C0991F961708F069
:101C2000961B881F7A95C9F780950895EE0FFF1FC0
:101C30000590F491E02D0994AEE0B0E0E2E2FEE020
:101C40000C94D8100D891E898F89988D26E02C83DD
:101C50001A83098397FF02C080E090E801979E8372
:101C60008D83AE01455E5F4F698D7A8DCE01019601
:101C70000E944C0E4D815E8157FD0AC02F81388530
:101C8000421753070CF49A01020F131FF801108238
:101C90002E96E4E00C94F410ABE0B0E0E2E5FEE058
:101CA0000C94CA107C013B018A01FC011782168248
:101CB000838181FFC8C1CE0101965C01F701938148
:101CC000F30193FD859193FF81913F01882309F4EE
:101CD00053C1853239F493FD859193FF81913F0182
:101CE000853229F4B70190E00E943C10E7CF912C97
:101CF000212C312CFFE1F31538F08B3211F190F4E7
:101D0000803209F1833229F137FC3CC020ED280FE5
:101D10002A3050F536FE20C08AE0989E200D11240E
:101D2000922E06C08D3291F0803371F7689430F8AE
:101D3000F30193FD859193FF81913F018111DACFEA
:101D400021C0689431F8689432F8F2CF689433F87F
:101D5000EFCF689434F8ECCFEAE02E9E200D1124EA
:101D6000222E689435F8E4CF8E3229F436FC04C173
:101D7000689436F8DDCF8C3619F4689437F8D8CFEC
:101D80008836B1F2982F9F7D95549330E0F08336DA
:101D9000A1F18337C1F1833509F063C02801F2E076
:101DA0004F0E511CF801C080D180692D70E036FCC7
:101DB00002C06FEF7FEFC6010E9426104C016894AD
:101DC00037F882010AC00C5F1F4FFFE3F9838824B4
:101DD0008394912C6501E89437F833FE2DC0522C82
:101DE0008114910471F5552009F468CFB70180E2A0
:101DF00090E00E943C105A94F6CFF80180818983CC
:101E00000E5F1F4FE4CF2801F2E04F0E511CF80186
:101E1000C080D180692D70E036FC02C06FEF7FEF8B
:101E2000C6010E9431104C018201D5CFB70180E27A
:101E300090E00E943C102A942814190409F0B0F78D
:101E4000CECFF60137FC859137FE81916F01B70146
:101E500090E00E943C1051105A94F1E08F1A9108C2
:101E6000BFCF843619F0893609F077C0F80137FE04
:101E70006BC060817181828193810C5F1F4FF32D54
:101E8000FF763F2E97FF09C09095809570956195DC
:101E90007F4F8F4F9F4F689437F82AE030E0A501BD
:101EA0000E946C10C82ECA188C2C432C36FE0CC015
:101EB000E89440F8C91440F434FE05C032FC03C075
:101EC000F32DFE7E4F2E892C44FE95C0FE01EC0DB5
:101ED000F11D8081803309F087C0242D297E422E98
:101EE000842D8870582E43FC95C040FE8FC09C2CDA
:101EF000821418F42C0C922C981844FE91C0B7014F
:101F000080E390E00E943C1042FE09C088E790E028
:101F100041FE02C088E590E0B7010E943C10C91460
:101F200008F48AC0CA94D12C9FEFC91AD90ACA0CE6
:101F3000DB1CF60182916F01B70190E00E943C101A
:101F4000AC14BD04B1F74FCF60817181072E000C36
:101F5000880B990B0E5F1F4F92CFD32CE894D4F8C7
:101F60002AE030E0853739F1232D297FD22E8F36B4
:101F700001F148F48835A9F0F701868197812B9605
:101F8000E2E10C94E610803749F08837A9F7D4FED7
:101F900002C06894D2F820E130E00DC06894D4F813
:101FA000F6CF34FE03C0822F8660D82E20E132E0C7
:101FB00002C028E030E0F801D7FE0FC060817181D7
:101FC000828193810C5F1F4FA5010E946C10C82E67
:101FD000CA183D2CE89437F867CF6081718190E092
:101FE00080E00E5F1F4FF0CF42FC02C0839478CF99
:101FF0008394839475CF842D867809F471CFF6CFBE
:10200000B70180E290E00E943C1083948214C0F3F8
:10201000512C73CF522C5818821408F46ECFF8CF7D
:10202000842D867809F47BCF8BE241FE80E247FC69
:102030008DE2B70190E071CFB70180E390E00E949C
:102040003C109A946CCF8FEF9FEF99CFFC010590D5
:10205000615070400110D8F7809590958E0F9F1FAA
:102060000895FC016150704001900110D8F78095EF
:1020700090958E0F9F1F08950F931F93CF93DF931B
:10208000182F092FEB018B8181FD09C01FEF0FEF86
:10209000812F902FDF91CF911F910F91089582FF93
:1020A00014C02E813F818C819D81281739073CF413
:1020B000E881F981CF0101969983888310838E810D
:1020C0009F8101969F838E83E3CFE885F985812FD9
:1020D0000995892BA1F3DACFFA01AA27283051F10B
:1020E000203181F1E8946F936E7F6E5F7F4F8F4F49
:1020F0009F4FAF4FB1E03ED0B4E03CD0670F781FA8
:10210000891F9A1FA11D680F791F8A1F911DA11D8C
:102110006A0F711D811D911DA11D20D009F46894C5
:102120003F912AE0269F11243019305D3193DEF66D
:10213000CF010895462F4770405D4193B3E00FD023
:10214000C9F7F6CF462F4F70405D4A3318F0495D0E
:1021500031FD4052419302D0A9F7EACFB4E0A695F1
:102160009795879577956795BA95C9F70097610513
:10217000710508959B01AC010A2E06945795479569
:1021800037952795BA95C9F7620F731F841F951F5E
:10219000A01D08952F923F924F925F926F927F926F
:1021A0008F929F92AF92BF92CF92DF92EF92FF9267
:1021B0000F931F93CF93DF93CDB7DEB7CA1BDB0B13
:1021C0000FB6F894DEBF0FBECDBF09942A883988B8
:1021D00048885F846E847D848C849B84AA84B984BF
:1021E000C884DF80EE80FD800C811B81AA81B981CB
:1021F000CE0FD11D0FB6F894DEBF0FBECDBFED01DF
:062200000895F894FFCFE1
:102206000C000000000000000000000400000000B8
:1022160000000000000003000000000000000000B5
:10222600000200000000000000000000FF0000B4F3
:1022360042210116010B010203040C0506070DCA13
:1022460002CF02D702E002E702EF0200000000A57B
:102256000205023202F2026302410255020D0A0031
:1022660077657374006561737400747261696E20BA
:102276007061737365642025732073656E736F7266
:102286002C20636C656172656400747261696E20EE
:10229600617070726F616368696E672066726F6DD8
:1022A60020257300657874726120747261696E20EE
:1022B60064657465637465642028747261636B6910
:1022C6006E672066756C6C292C2073746179696E53
:1022D6006720636C6F7365640063726F7373696EF6
:1022E60067202573004C6576656C2063726F737387
:1022F600696E6720636F6E74726F6C6C65722076A0
:10230600312E3000747261696E206F6E20746865BC
:102316002063726F7373696E6720617420737461D2
:1023260072742D757000747261696E206F6E207400
:1023360068652063726F7373696E670069736C6199
:102346006E64206F6363757069656420776974686D
:10235600206E6F20747261636B65642074726169AC
:102366006E0063726F7373696E6720636C6561726A
:10237600206F6620747261696E00676174656D61B5
:102386006E20636C65617265642070656E64696E4B
:102396006720747261696E73004641554C543A2049
:1023A60073656E736F7220737475636B20616374EB
:1023B6006976652C2063726F7373696E6720686532
:1023C6006C6420636C6F736564004F50454E005714
:1023D60041524E494E47004C4F574552494E4700D1
:1023E600434C4F5345440052414953494E470046DA
:0623F60041554C540000AB
:00000001FF
