:100000000C9464000C948C000C948C000C948C0068
:100010000C948C000C948C000C948C000C948C0030
:100020000C948C000C948C000C948C000C948C0020
:100030000C948C000C948C000C948C000C948C0010
:100040000C94E4020C948C000C9454030C942E0336
:100050000C948C000C948C000C948C000C948C00F0
:100060000C948C000C948C00735D20000000000048
:10007000240027002A0000000000250028002B0093
:1000800000000000230026002900040404040404E6
:100090000404020202020202030303030303010237
:1000A0000408102040800102040810200102040806
:1000B00010200000000800020100000304070000F7
:1000C000000000000000F10611241FBECFEFD8E0B1
:1000D000DEBFCDBF11E0A0E0B1E0ECEFF8E102C07F
:1000E00005900D92A03BB107D9F722E0A0EBB1E05B
:1000F00001C01D92AD37B207E1F710E0C4E6D0E0D1
:1001000004C02197FE010E948209C336D107C9F7B6
:100110000E9486030C947C0C0C94000080E4809375
:100120007C0080917A00806480937A0080917A00CC
:1001300086FDFCCF809178009091790008958330FE
:1001400081F028F4813099F08230A9F00895873049
:10015000A9F08830C9F08430B1F4809180008F7D9F
:1001600003C0809180008F7780938000089584B5CC
:100170008F7784BD089584B58F7DFBCF8091B000CB
:100180008F778093B00008958091B0008F7DF9CF74
:10019000CF93DF93282F30E0F901EE54FF4F849185
:1001A000F901E256FF4FD491F901E657FF4FC49190
:1001B000CC23A1F081110E949F00EC2FF0E0EE0F04
:1001C000FF1FE058FF4FA591B491EC91ED2381E022
:1001D00090E009F480E0DF91CF91089580E090E015
:1001E000FACF1F93CF93DF93282F30E0F901EE541D
:1001F000FF4F8491F901E256FF4FD491F901E65780
:10020000FF4FC491CC23A9F0162F81110E949F00AB
:10021000EC2FF0E0EE0FFF1FEA58FF4FA591B491CD
:100220008FB7F894EC91111108C0D095DE23DC93C0
:100230008FBFDF91CF911F910895DE2BF8CFCF9321
:10024000DF9390E0FC01E256FF4F249186579F4FC9
:10025000FC0184918823C9F090E0880F991FFC016C
:10026000E459FF4FA591B491FC01EA58FF4FC591A5
:10027000D49161110DC09FB7F8948C912095822381
:100280008C938881282328839FBFDF91CF91089585
:10029000623051F49FB7F8943C91822F809583236C
:1002A0008C93E8812E2BEFCF8FB7F894EC912E2B07
:1002B0002C938FBFEACF2FB7F8946091DC01709137
:1002C000DD018091DE019091DF012FBF0895AF9293
:1002D000BF92CF92DF92EF92FF920F931F93CF9333
:1002E000DF936C017B018B01040F151FEB015E0195
:1002F000AE18BF08C017D10759F06991D601ED912A
:10030000FC910190F081E02DC6010995892B79F7C8
:10031000C501DF91CF911F910F91FF90EF90DF907A
:10032000CF90BF90AF900895FC01538D448D252F41
:1003300030E0842F90E0821B930B541710F0CF967F
:10034000089501970895FC01918D828D981761F0B1
:10035000A28DAE0FBF2FB11D5D968C91928D9F5FC8
:100360009F73928F90E008958FEF9FEF0895FC01A7
:10037000918D828D981731F0828DE80FF11D858D5A
:1003800090E008958FEF9FEF0895FC01918D228DED
:10039000892F90E0805C9F4F821B91098F73992772
:1003A000089580EE91E00E94C50121E0892B09F4B7
:1003B00020E0822F089580E090E0892B29F00E94B0
:1003C000D10181110C9400000895FC01A48DA80FA7
:1003D000B92FB11DA35ABF4F2C91848D90E0019687
:1003E0008F739927848FA689B7892C93A089B189A7
:1003F0008C91837080648C93938D848D981306C048
:100400000288F389E02D80818F7D80830895EF92AB
:10041000FF920F931F93CF93DF93EC0181E0888FBE
:100420009B8D8C8D98131AC0E889F989808185FF8E
:1004300015C09FB7F894EE89FF896083E889F98930
:1004400080818370806480839FBF81E090E0DF9132
:10045000CF911F910F91FF90EF900895F62E0B8D85
:1004600010E00F5F1F4F0F731127E02E8C8D8E1140
:100470000CC00FB607FCFACFE889F989808185FFA7
:10048000F5CFCE010E94E501F1CFEB8DEC0FFD2FF2
:10049000F11DE35AFF4FF0829FB7F8940B8FEA8962
:1004A000FB8980818062CFCFCF93DF93EC01888D71
:1004B0008823B9F0AA89BB89E889F9898C9185FDDF
:1004C00003C0808186FD0DC00FB607FCF7CF8C916D
:1004D00085FFF2CF808185FFEDCFCE010E94E5013F
:1004E000E9CFDF91CF910895FC0101900020E9F759
:1004F0003197AF01481B590BBC0180EE91E00C9481
:1005000067018F929F92AF92BF92EF92FF920F93EB
:100510001F93CF93DF93CDB7DEB7A1970FB6F894B3
:10052000DEBF0FBECDBF7C016BE580EE91E00E9487
:1005300007020E945B0128EE33E040E050E00E9499
:10054000550919A28E010F5D1F4F8AE0882E912C4C
:10055000A12CB12CCA01B901A50194010E94550931
:10056000605DF80162938F01211531054105510548
:1005700089F7309719F0CF010E94740208E610E065
:10058000F8016491662341F080EE91E00E94070239
:100590000F5F1F4F892BA1F7C7010E94740282E1F0
:1005A00091E00E947402A1960FB6F894DEBF0FBED0
:1005B000CDBFDF91CF911F910F91FF90EF90BF9032
:1005C000AF909F908F9008951F920F920FB60F9249
:1005D00011242F933F938F939F93AF93BF93809159
:1005E000DC019091DD01A091DE01B091DF0130913D
:1005F000DB0123E0230F2D3758F50196A11DB11D16
:100600002093DB018093DC019093DD01A093DE0158
:10061000B093DF018091D7019091D801A091D901C9
:10062000B091DA010196A11DB11D8093D70190937D
:10063000D801A093D901B093DA01BF91AF919F91F6
:100640008F913F912F910F900FBE0F901F90189593
:1006500026E8230F0296A11DB11DD2CF1F920F9243
:100660000FB60F9211242F933F934F935F936F9385
:100670007F938F939F93AF93BF93EF93FF9380EEFE
:1006800091E00E94E501FF91EF91BF91AF919F91A1
:100690008F917F916F915F914F913F912F910F902B
:1006A0000FBE0F901F9018951F920F920FB60F92CA
:1006B00011242F938F939F93EF93FF93E091F00179
:1006C000F091F1018081E091F601F091F70182FD56
:1006D0001BC090818091F9018F5F8F732091FA0187
:1006E000821741F0E091F901F0E0E052FE4F958F62
:1006F0008093F901FF91EF919F918F912F910F902E
:100700000FBE0F901F9018958081F4CFCF93DF9389
:10071000CDB7DEB7A4970FB6F894DEBF0FBECDBF3E
:10072000789484B5826084BD84B5816084BD85B5CC
:10073000826085BD85B5816085BD80916E008160D8
:1007400080936E001092810080918100826080937E
:100750008100809181008160809381008091800080
:100760008160809380008091B10084608093B100AB
:100770008091B00081608093B00080917A008460A5
:1007800080937A0080917A00826080937A008091D1
:100790007A00816080937A0080917A0080688093EB
:1007A0007A001092C10014BE0FB6F894A8958091FB
:1007B0006000886180936000109260000FBE61E06D
:1007C00089E00E941F0161E089E00E941F0160E052
:1007D00089E00E94F10061E08DE00E941F0160E06D
:1007E00082E00E941F0162E084E00E941F01E0910C
:1007F000F001F091F10182E08083E091EC01F09151
:10080000ED011082E091EE01F091EF018FEC808319
:100810001092F801E091F401F091F50186E08083F7
:10082000E091F201F091F301808180618083E09199
:10083000F201F091F301808188608083E091F20100
:10084000F091F301808180688083E091F201F09162
:10085000F30180818F7D80830E948E008C019093B4
:10086000B6018093B50181E00C3221E0120708F057
:1008700080E08093B4018093CD010E945B0160937E
:10088000C5017093C6018093C7019093C80180E4AD
:1008900091E00C32114010F485E191E00E94810258
:1008A00088E19FE00FB6F894A895809360000FBE92
:1008B00090936000AE014F5F5F4F1A01A895C09002
:1008C000B701D090B801E090B901F090BA010E9450
:1008D0005B016C197D098E099F09643671058105DC
:1008E000910508F47EC00E945B016093B70170938C
:1008F000B8018093B9019093BA018091B5019091AC
:10090000B6015FE0589F7001599FF00C11240E94BE
:100910008E008E0D9F1D24E0969587952A95E1F710
:100920009093B6018093B5011091CD0121E0112380
:1009300029F0823C914028F020E003C08C329140A5
:10094000D8F78091B401821761F02093B4010E941E
:100950005B016093B0017093B1018093B2019093F9
:10096000B301F090B4011F15E1F10CE310E0FF209A
:1009700011F00EE110E04090B0015090B101609094
:10098000B2017090B3010E945B014B015C01D80180
:1009900020EA36E841E050E00E94770924E630E0A2
:1009A00040E050E00E94550984189508A608B70851
:1009B00082169306A406B506A0F0F092CD010E941F
:1009C0005B016093C5017093C6018093C70190934A
:1009D000C80187E791E0FF2011F089E691E00E94CD
:1009E000810282E00E94C80011E08130910509F087
:1009F00010E00197D1F48091C001811108C080916D
:100A0000CD01882321F086E891E00E9481020E94B6
:100A10005B01605A75418F4F9F4F6093C101709386
:100A2000C2018093C3019093C4011093C00184E07C
:100A30000E94C8008C01BB24B394892B09F0B12C0F
:100A40008091BF01B81699F1C090BB01D090BC0154
:100A5000E090BD01F090BE010E945B016C197D0920
:100A60008E099F09623371058105910500F10E948D
:100A70005B016093BB017093BC018093BD019093B7
:100A8000BE01B092BF01012B91F40E945B01605D39
:100A90007A488F4F9F4F6093C9017093CA0180932A
:100AA000CB019093CC018DE891E00E948102C0902F
:100AB000C901D090CA01E090CB01F090CC010E9416
:100AC0005B01C61AD70AE80AF90A1C141D041E04A1
:100AD0001F046CF18091CD0110E0882349F1C09092
:100AE000C501D090C601E090C701F090C8010E94F6
:100AF0005B016C197D098E099F0918E261157A4B1B
:100B00008B4D910508F014E1C090C101D090C20155
:100B1000E090C301F090C4010E945B01C61AD70A9D
:100B2000E80AF90A1C141D041E041F040CF414E640
:100B30008091D2018117B9F01093D2011F921F93B7
:100B400043EA51E05F934F931F9280E28F933F926D
:100B50002F920E949709C1010E9481020FB6F8945A
:100B6000DEBF0FBECDBF0E945B014B015C018091D7
:100B7000D3019091D401A091D501B091D601A501E6
:100B80009401281B390B4A0B5B0BCA01B9016A306F
:100B900071058105910508F4CEC08092D301909231
:100BA000D401A092D501B092D6010E94310820E074
:100BB00030E048EC52E40E94E80869A37AA38BA3D2
:100BC0009CA31091D201612F70E090E080E00E9420
:100BD00033082B013C01C090CE01D090CF01E090B2
:100BE000D001F090D101A70196010E94E3081816E8
:100BF0001CF5612F70E090E080E00E9431082B012D
:100C00003C0120E030E04AEF53E469A17AA18BA1D6
:100C10009CA10E949007A70196010E941F077B01DB
:100C20008C019B01AC01B201C3010E948B0787FDBF
:100C30002DC0270138012AC0A7019601C301B201C6
:100C40000E948B0787FF2CC0612F70E090E080E04E
:100C50000E9431082B013C0120E030E84BE355E4D1
:100C600069A17AA18BA19CA10E9490079B01AC0174
:100C7000C701B6010E941E077B018C019B01AC01DC
:100C8000B201C3010E94E30818169CF6C201D30109
:100C90008093CE019093CF01A093D001B093D10166
:100CA000C090CE01D090CF01E090D001F090D10162
:100CB00020E030E048EC52E4C701B6010E94900702
:100CC0009B01AC010E94E80820E030E04FE753E4CC
:100CD0000E94E80820E030E040E05FE30E941F0748
:100CE0000E940208162F20E030E0A901C701B601DA
:100CF0000E94E30818161CF4111101C011E061E014
:100D000089E00E941F01111123C060E089E00E9468
:100D1000F1008091CD0160E0882351F0C501B4015C
:100D200028EE33E040E050E00E945509622F6170E8
:100D30008DE00E94F10020E030E0232B09F4BECDCD
:100D40000E94D101882309F4B9CD0E940000B6CDDC
:100D50001F3F11F461E0DACFEBEBF0E084918330D8
:100D600021F138F48130B9F08230D1F017FDF2CFA3
:100D7000CCCF873031F1883061F18430B9F7809180
:100D80008000806280938000812F90E090938B00A0
:100D900080938A00BECF84B5806884BD17BDB9CF6B
:100DA00084B5806284BD18BDB4CF80918000806816
:100DB00080938000812F90E0909389008093880039
:100DC000A8CF8091B00080688093B0001093B300EA
:100DD000A0CF8091B00080628093B0001093B400E7
:100DE00098CFE0EEF1E01382128288EE93E0A0E06B
:100DF000B0E084839583A683B78384E091E09183F8
:100E0000808385EC90E09587848784EC90E09787D9
:100E1000868780EC90E0918B808B81EC90E0938BC7
:100E2000828B82EC90E0958B848B86EC90E0978BA4
:100E3000868B118E128E138E148E08955058BB27F8
:100E4000AA270E9436070C94A9080E949B0838F034
:100E50000E94A20820F039F49F3F19F426F40C9464
:100E600098080EF4E095E7FB0C949208E92F0E9495
:100E7000BA0858F3BA17620773078407950720F07A
:100E800079F4A6F50C94DC080EF4E0950B2EBA2F3D
:100E9000A02D0B01B90190010C01CA01A001112480
:100EA000FF27591B99F0593F50F4503E68F11A162C
:100EB000F040A22F232F342F4427585FF3CF4695BD
:100EC00037952795A795F0405395C9F77EF41F16DF
:100ED000BA0B620B730B840BBAF09150A1F0FF0FA9
:100EE000BB1F661F771F881FC2F70EC0BA0F621F95
:100EF000731F841F48F4879577956795B795F79585
:100F00009E3F08F0B0CF9395880F08F09927EE0F19
:100F10009795879508950E946E0808F481E00895DA
:100F20000E94A4070C94A9080E94A20858F00E94ED
:100F30009B0840F029F45F3F29F00C94920851116E
:100F40000C94DD080C9498080E94BA0868F3992361
:100F5000B1F3552391F3951B550BBB27AA276217B5
:100F60007307840738F09F5F5F4F220F331F441FC2
:100F7000AA1FA9F335D00E2E3AF0E0E832D09150F6
:100F80005040E695001CCAF72BD0FE2F29D0660FE3
:100F9000771F881FBB1F261737074807AB07B0E826
:100FA00009F0BB0B802DBF01FF2793585F4F3AF02C
:100FB0009E3F510578F00C9492080C94DD085F3F39
:100FC000E4F3983ED4F3869577956795B795F795B2
:100FD0009F5FC9F7880F911D9695879597F908959A
:100FE000E1E0660F771F881FBB1F62177307840736
:100FF000BA0720F0621B730B840BBA0BEE1F88F745
:10100000E09508950E94C20888F09F5798F0B92F84
:101010009927B751B0F0E1F0660F771F881F991F2D
:101020001AF0BA95C9F714C0B13091F00E94DC08EB
:10103000B1E008950C94DC08672F782F8827B85FFB
:1010400039F0B93FCCF3869577956795B395D9F785
:101050003EF490958095709561957F4F8F4F9F4F8F
:101060000895E89409C097FB3EF49095809570959B
:1010700061957F4F8F4F9F4F9923A9F0F92F96E9E4
:10108000BB279395F695879577956795B795F11159
:10109000F8CFFAF4BB0F11F460FF1BC06F5F7F4FF6
:1010A0008F4F9F4F16C0882311F096E911C0772308
:1010B00021F09EE8872F762F05C0662371F096E811
:1010C000862F70E060E02AF09A95660F771F881FE0
:1010D000DAF7880F9695879597F90895990F000884
:1010E000550FAA0BE0E8FEEF16161706E807F907FA
:1010F000C0F012161306E407F50798F0621B730B95
:10110000840B950B39F40A2661F0232B242B252B15
:1011100021F408950A2609F4A140A6958FEF811DB8
:10112000811D089597F99F6780E870E060E0089559
:101130009FEF80EC089500240A94161617061806EF
:101140000906089500240A941216130614060506CB
:101150000895092E0394000C11F4882352F0BB0F5C
:1011600040F4BF2B11F460FF04C06F5F7F4F8F4FBF
:101170009F4F089557FD9058440F551F59F05F3FFA
:1011800071F04795880F97FB991F61F09F3F79F0A9
:1011900087950895121613061406551FF2CF46952B
:1011A000F1DF08C0161617061806991FF1CF8695AD
:1011B0007105610508940895E894BB276627772791
:1011C000CB0197F908950E946E0808F48FEF0895F7
:1011D0000E94FB080C94A9080E949B0838F00E940A
:1011E000A20820F0952311F00C9492080C94980812
:1011F00011240C94DD080E94BA0870F3959FC1F386
:10120000950F50E0551F629FF001729FBB27F00DB4
:10121000B11D639FAA27F00DB11DAA1F649F662709
:10122000B00DA11D661F829F2227B00DA11D621F58
:10123000739FB00DA11D621F839FA00D611D221F12
:10124000749F3327A00D611D231F849F600D211DF6
:10125000822F762F6A2F11249F5750409AF0F1F079
:1012600088234AF0EE0FFF1FBB1F661F771F881FE2
:1012700091505040A9F79E3F510580F00C94920880
:101280000C94DD085F3FE4F3983ED4F386957795A0
:101290006795B795F795E7959F5FC1F7FE2B880F88
:1012A000911D9695879597F90895A1E21A2EAA1B8C
:1012B000BB1BFD010DC0AA1FBB1FEE1FFF1FA21706
:1012C000B307E407F50720F0A21BB30BE40BF50B03
:1012D000661F771F881F991F1A9469F7609570958C
:1012E000809590959B01AC01BD01CF0108950E94AE
:1012F0008809A59F900DB49F900DA49F800D911D0E
:1013000011240895EE0FFF1F0590F491E02D09942C
:10131000A29FB001B39FC001A39F700D811D112436
:10132000911DB29F700D811D1124911D0895AEE095
:10133000B0E0EDE9F9E00C94530C0D891E898F891A
:10134000988D26E02C831A83098397FF02C080E0E2
:1013500090E801979E838D83AE01455E5F4F698D56
:101360007A8DCE0101960E94C7094D815E8157FD9D
:101370000AC02F813885421753070CF49A01020FD7
:10138000131FF80110822E96E4E00C946F0CABE072
:10139000B0E0EDECF9E00C94450C7C013B018A01D6
:1013A000FC0117821682838181FFC8C1CE0101969C
:1013B0005C01F7019381F30193FD859193FF819186
:1013C0003F01882309F453C1853239F493FD859197
:1013D00093FF81913F01853229F4B70190E00E948B
:1013E000B70BE7CF912C212C312CFFE1F31538F00E
:1013F0008B3211F190F4803209F1833229F137FCFC
:101400003CC020ED280F2A3050F536FE20C08AE07F
:10141000989E200D1124922E06C08D3291F08033BB
:1014200071F7689430F8F30193FD859193FF8191F2
:101430003F018111DACF21C0689431F8689432F805
:10144000F2CF689433F8EFCF689434F8ECCFEAE049
:101450002E9E200D1124222E689435F8E4CF8E3272
:1014600029F436FC04C1689436F8DDCF8C3619F4C3
:10147000689437F8D8CF8836B1F2982F9F7D95546D
:101480009330E0F08336A1F18337C1F1833509F061
:1014900063C02801F2E04F0E511CF801C080D180DA
:1014A000692D70E036FC02C06FEF7FEFC6010E942D
:1014B000A10B4C01689437F882010AC00C5F1F4FE2
:1014C000FFE3F98388248394912C6501E89437F82D
:1014D00033FE2DC0522C8114910471F5552009F46E
:1014E00068CFB70180E290E00E94B70B5A94F6CF24
:1014F000F801808189830E5F1F4FE4CF2801F2E05D
:101500004F0E511CF801C080D180692D70E036FC6F
:1015100002C06FEF7FEFC6010E94AC0B4C0182014D
:10152000D5CFB70180E290E00E94B70B2A9428142F
:10153000190409F0B0F7CECFF60137FC859137FEDC
:1015400081916F01B70190E00E94B70B51105A943E
:10155000F1E08F1A9108BFCF843619F0893609F06F
:1015600077C0F80137FE6BC0608171818281938101
:101570000C5F1F4FF32DFF763F2E97FF09C090950C
:101580008095709561957F4F8F4F9F4F689437F886
:101590002AE030E0A5010E94E70BC82ECA188C2C67
:1015A000432C36FE0CC0E89440F8C91440F434FED5
:1015B00005C032FC03C0F32DFE7E4F2E892C44FE65
:1015C00095C0FE01EC0DF11D8081803309F087C0CC
:1015D000242D297E422E842D8870582E43FC95C0E0
:1015E00040FE8FC09C2C821418F42C0C922C98185E
:1015F00044FE91C0B70180E390E00E94B70B42FE29
:1016000009C088E790E041FE02C088E590E0B7019C
:101610000E94B70BC91408F48AC0CA94D12C9FEF5A
:10162000C91AD90ACA0CDB1CF60182916F01B701F5
:1016300090E00E94B70BAC14BD04B1F74FCF6081AE
:101640007181072E000C880B990B0E5F1F4F92CFF4
:10165000D32CE894D4F82AE030E0853739F1232DF3
:10166000297FD22E8F3601F148F48835A9F0F70191
:10167000868197812B96E2E10C94610C803749F0CA
:101680008837A9F7D4FE02C06894D2F820E130E090
:101690000DC06894D4F8F6CF34FE03C0822F866064
:1016A000D82E20E132E002C028E030E0F801D7FE79
:1016B0000FC060817181828193810C5F1F4FA501F2
:1016C0000E94E70BC82ECA183D2CE89437F867CF64
:1016D0006081718190E080E00E5F1F4FF0CF42FC8F
:1016E00002C0839478CF8394839475CF842D8678B9
:1016F00009F471CFF6CFB70180E290E00E94B70BFA
:1017000083948214C0F3512C73CF522C5818821436
:1017100008F46ECFF8CF842D867809F47BCF8BE266
:1017200041FE80E247FC8DE2B70190E071CFB70146
:1017300080E390E00E94B70B9A946CCF8FEF9FEFFD
:1017400099CFFC010590615070400110D8F7809549
:1017500090958E0F9F1F0895FC016150704001907D
:101760000110D8F7809590958E0F9F1F08950F93C5
:101770001F93CF93DF93182F092FEB018B8181FDEE
:1017800009C01FEF0FEF812F902FDF91CF911F9195
:101790000F91089582FF14C02E813F818C819D811D
:1017A000281739073CF4E881F981CF010196998324
:1017B000888310838E819F8101969F838E83E3CFE0
:1017C000E885F985812F0995892BA1F3DACFFA01F4
:1017D000AA27283051F1203181F1E8946F936E7F70
:1017E0006E5F7F4F8F4F9F4FAF4FB1E03ED0B4E061
:1017F0003CD0670F781F891F9A1FA11D680F791FA2
:101800008A1F911DA11D6A0F711D811D911DA11DB2
:1018100020D009F468943F912AE0269F11243019C2
:10182000305D3193DEF6CF010895462F4770405D5D
:101830004193B3E00FD0C9F7F6CF462F4F70405D0C
:101840004A3318F0495D31FD4052419302D0A9F767
:10185000EACFB4E0A6959795879577956795BA9561
:10186000C9F700976105710508959B01AC010A2E27
:1018700006945795479537952795BA95C9F7620FFE
:10188000731F841F951FA01D08952F923F924F92A2
:101890005F926F927F928F929F92AF92BF92CF9200
:1018A000DF92EF92FF920F931F93CF93DF93CDB709
:1018B000DEB7CA1BDB0B0FB6F894DEBF0FBECDBF81
:1018C00009942A88398848885F846E847D848C8452
:1018D0009B84AA84B984C884DF80EE80FD800C815B
:1018E0001B81AA81B981CE0FD11D0FB6F894DEBF3E
:0C18F0000FBECDBFED010895F894FFCFAE
:1018FC00000000000702670194015402C501A30116
:10190C00B7010D0A00536D617274207374726565B2
:10191C0074206C696768742076312E302C207374B7
:10192C00617274696E67206174204E494748540097
:10193C00536D61727420737472656574206C696781
:10194C0068742076312E302C207374617274696E39
:10195C006720617420444159006475736B3A206CA4
:10196C00616D70206F6E006461776E3A206C616DF2
:10197C0070206F6666006D6F74696F6E00746573AE
:10198C00743A2066756C6C206272696768746E6557
:10199C0073730074617267657420257525250000CA
:00000001FF
