:100000000C9401010C94CA050C94A3050C942901CD
:100010000C9429010C9429010C9429010C94F105EC
:100020000C9429010C9429010C9429010C942901A8
:100030000C9429010C9429010C9429010C94290198
:100040000C9459050C9429010C9473060C944D06DC
:100050000C9429010C9429010C9429010C94290178
:100060000C9429010C94290100407A10F35A00A045
:10007000724E18090010A5D4E80000E87648170071
:1000800000E40B54020000CA9A3B000000E1F505B1
:10009000000080969800000040420F000000A086FB
:1000A00001000000102700000000E803000000002D
:1000B0006400000000000A000000000001000000D1
:1000C00000002C76D888DC674F0823DFC1DFAE59EB
:1000D000E1B1B796E5E3E453C63AE651997696E87E
:1000E000E6C28426EB898C9B62ED407C6FFCEFBC02
:1000F0009C9F40F2BAA56FA5F490055A2AF75C932D
:100100006B6CF9676DC11BFCE0E40D47FEF520E662
:10011000B500D0ED902E0300943577050080841E45
:10012000080000204E0A000000C80C333333330FA0
:10013000986E12831141EF8D2114893BE65516CF3D
:10014000FEE6DB18D1844B381BF77C1D901DA4BB49
:10015000E424203284725E228100C9F124ECA1E5FE
:100160003D27735D200023205B0056454849434CE2
:10017000452C7365636F6E64732C64697265637478
:10018000696F6E2C6B6D682C6F7665725F6C696D34
:10019000697400423E4100413E4200564548494391
:1001A0004C452C000200000000240027002A00001B
:1001B000000000250028002B00000000002300267E
:1001C00000290004040404040404040202020202DC
:1001D000020303030303030102040810204080010B
:1001E000020408102001020408102000000008008A
:1001F00002010000030407000000000000000000EE
:10020000A50611241FBECFEFD8E0DEBFCDBF11E0A1
:10021000A0E0B1E0E2E5F8E202C005900D92A43F53
:10022000B107D9F722E0A4EFB1E001C01D92AD3FC4
:10023000B207E1F711E0C1E0D1E004C02197FE016F
:100240000E947311C030D107C9F70E94EF060C94C9
:1002500027140C940000833081F028F4813099F049
:100260008230A9F008958730A9F08830C9F0843031
:10027000B1F4809180008F7D03C0809180008F77E2
:1002800080938000089584B58F7784BD089584B5E8
:100290008F7DFBCF8091B0008F778093B000089561
:1002A0008091B0008F7DF9CFCF93DF93282F30E07E
:1002B000F901E551FE4F8491F901E952FE4FD491C5
:1002C000F901ED53FE4FC491CC23A1F081110E949E
:1002D0002B01EC2FF0E0EE0FFF1FE754FE4FA5912E
:1002E000B491EC91ED2381E090E009F480E0DF919E
:1002F000CF91089580E090E0FACF1F93CF93DF93E2
:10030000282F30E0F901E551FE4F8491F901E952BF
:10031000FE4FD491F901ED53FE4FC491CC23A9F0C7
:10032000162F81110E942B01EC2FF0E0EE0FFF1F22
:10033000E155FE4FA591B4918FB7F894EC9111114E
:1003400008C0D095DE23DC938FBFDF91CF911F9142
:100350000895DE2BF8CFCF93DF9390E0FC01E952B4
:10036000FE4F24918D539E4FFC0184918823D1F040
:1003700090E0880F991FFC01EB55FE4FA591B491B9
:10038000FC01E155FE4FC591D491623071F49FB7E5
:10039000F8943C91822F809583238C93E8812E2BB7
:1003A00028839FBFDF91CF9108958FB7F894EC9188
:1003B0002E2B2C938FBFF6CF3FB7F8948091440239
:1003C00090914502A0914602B091470226B5A89BA4
:1003D00005C02F3F19F00196A11DB11D3FBFBA2FD7
:1003E000A92F982F8827BC01CD01620F711D811D97
:1003F000911D42E0660F771F881F991F4A95D1F71C
:1004000008952FB7F8946091400270914102809155
:100410004202909143022FBF0895089590910501E3
:1004200089130BC0E4EAF1E0E4919FEF909305019A
:10043000E13049F028F0E23061F060E00C947D0199
:1004400010926E00FACF90916F009D7F90936F0095
:10045000F4CF909170009D7F9093700091E0909305
:10046000B0009091B100987F94609093B100109289
:10047000B300E3CFAF92BF92CF92DF92EF92FF92A1
:100480000F931F93CF93DF936C017B018B01040FBC
:10049000151FEB015E01AE18BF08C017D10759F058
:1004A0006991D601ED91FC910190F081E02DC6019A
:1004B0000995892B79F7C501DF91CF911F910F9194
:1004C000FF90EF90DF90CF90BF90AF900895FC0128
:1004D000538D448D252F30E0842F90E0821B930BA9
:1004E000541710F0CF96089501970895FC01918D4F
:1004F000828D981761F0A28DAE0FBF2FB11D5D9652
:100500008C91928D9F5F9F73928F90E008958FEFF3
:100510009FEF0895FC01918D828D981731F0828DA7
:10052000E80FF11D858D90E008958FEF9FEF0895FE
:10053000FC01918D228D892F90E0805C9F4F821B62
:1005400091098F739927089588E492E00E94980298
:1005500021E0892B09F420E0822F089580E090E0CB
:10056000892B29F00E94A40281110C9400000895A7
:10057000FC01A48DA80FB92FB11DA35ABF4F2C9118
:10058000848D90E001968F739927848FA689B7890F
:100590002C93A089B1898C91837080648C93938D06
:1005A000848D981306C00288F389E02D80818F7DA9
:1005B00080830895EF92FF920F931F93CF93DF9361
:1005C000EC0181E0888F9B8D8C8D98131AC0E8898F
:1005D000F989808185FF15C09FB7F894EE89FF895E
:1005E0006083E889F98980818370806480839FBFFC
:1005F00081E090E0DF91CF911F910F91FF90EF90FC
:100600000895F62E0B8D10E00F5F1F4F0F7311270B
:10061000E02E8C8D8E110CC00FB607FCFACFE88946
:10062000F989808185FFF5CFCE010E94B802F1CF14
:10063000EB8DEC0FFD2FF11DE35AFF4FF0829FB7BA
:10064000F8940B8FEA89FB8980818062CFCF0F936A
:100650001F93CF93DF938C01D0E0C0E0F801EC0F43
:10066000FD1F6491662341F088E492E00E94DA0263
:10067000892B11F02196F2CFCE01DF91CF911F91FE
:100680000F910895682F88E492E00C94DA02CF93DA
:10069000DF93EC01888D8823B9F0AA89BB89E889AA
:1006A000F9898C9185FD03C0808186FD0DC00FB650
:1006B00007FCF7CF8C9185FFF2CF808185FFEDCFCE
:1006C000CE010E94B802E9CFDF91CF91089508953D
:1006D00090E080E0089580910401882389F0809162
:1006E000050281110DC00E94DC016093FD01709331
:1006F000FE018093FF019093000281E08093050248
:10070000089580910401882389F080910602811167
:100710000DC00E94DC01609301027093020280937D
:1007200003029093040281E0809306020895CF9320
:10073000DF93EC0160E08E810E947D0161E08E819B
:100740000E947D0160E08E810E947D018BE891E036
:100750000197F1F7DF91CF910895CF92DF92EF9259
:10076000FF920F931F93CF93DF936C017C0187E07F
:10077000E80EF11CD0E0C0E0062F10E0B8010C2E0E
:1007800002C0759567950A94E2F76170F70181914F
:100790007F010E947D012196C430D10579F7C60101
:1007A000DF91CF911F910F91FF90EF90DF90CF904D
:1007B0000C949703CF92DF92EF92FF920F931F93C7
:1007C000CF93DF93EC01F62E642F8C810E947D0184
:1007D0008D818F3F19F060E00E947D010F2D10E0A8
:1007E0008F8584FF25C06E0187E0C80ED11CF12CD7
:1007F000E12CB8010E2C02C0759567950A94E2F7BA
:100800006170F60181916F010E947D01FFEFEF1A87
:10081000FF0A88E0E816F10461F7CE01DF91CF917D
:100820001F910F91FF90EF90DF90CF900C94970362
:10083000B80184E0759567958A95E1F7CE010E942D
:10084000AD036F2DCE01DF91CF911F910F91FF90DE
:10085000EF90DF90CF900C94AD0340E0682F85EED1
:1008600092E00C94DA03CF93DF93823029F49091D5
:10087000F40298609093F4028093F8021092F902C7
:1008800080E48093FA0280E18093FB0280E580930C
:10089000FC0261E08091E9020E94AB018091EA02D2
:1008A0008F3F19F061E00E94AB0161E08091EB02A3
:1008B0000E94AB01C5EED2E09E01255E32408091E0
:1008C000F40284FD0BC084E090E0219628173907DC
:1008D00044F461E08E810E94AB01EECF88E090E0AD
:1008E000F4CF8BE39DE00197F1F760E08091E9029E
:1008F0000E947D0160E08091EB020E947D01809169
:10090000EA028F3F19F060E00E947D018091F402BD
:1009100084FD39C063E085EE92E00E94AD03CBE434
:10092000D6E4CE010197F1F763E085EE92E00E94F4
:10093000AD032197F1F763E085EE92E00E94AD03ED
:1009400083E592E00197F1F762E085EE92E00E9484
:10095000AD038091F40280620E942D0484E08093B4
:10096000F5028CE00E942D0481E00E942D048BE3AF
:100970009FE10197F1F782E08093F60286E0DF9134
:10098000CF910C942D0480620E942D048BE496E498
:100990000197F1F78091F40280620E942D0483E5B3
:1009A00092E00197F1F78091F40280620E942D0499
:1009B000D0CF41E00E94DA0381E090E00895FB018E
:1009C00001900020E9F73197AF01461B570BDC017E
:1009D000ED91FC910280F381E02D09948F929F921A
:1009E000AF92BF920F931F93CF93DF93CDB7DEB734
:1009F000A1970FB6F894DEBF0FBECDBF19A242304B
:100A000008F44AE08E010F5D1F4F842E912CB12C0B
:100A1000A12CA50194010E945111E62FB901CA0130
:100A2000EA3004F5E05DD801EE938D01232B242BF1
:100A3000252B79F790E080E0109729F0BD0188E43C
:100A400092E00E94DF04A1960FB6F894DEBF0FBEBD
:100A5000CDBFDF91CF911F910F91BF90AF909F902D
:100A60008F900895E95CDFCFCF93DF93EC0186E6AA
:100A700091E00E9427030E94010228EE33E040E04B
:100A800050E00E945111CA01B9014AE00E94EE04EF
:100A900082E691E00E942703BE0188E492E00E9472
:100AA000DF0464E271E088E492E0DF91CF910C947E
:100AB000DF041F920F920FB60F9211242F933F93D2
:100AC0008F939F93AF93BF93809140029091410287
:100AD000A0914202B091430230913F0223E0230FE4
:100AE0002D3758F50196A11DB11D20933F0280932B
:100AF000400290934102A0934202B093430280913E
:100B0000440290914502A0914602B091470201969D
:100B1000A11DB11D8093440290934502A09346020B
:100B2000B0934702BF91AF919F918F913F912F91C9
:100B30000F900FBE0F901F90189526E8230F029676
:100B4000A11DB11DD2CF1F920F920FB60F9211248B
:100B50002F933F934F935F936F937F938F939F93C5
:100B6000AF93BF93EF93FF93E0910201F0910301E4
:100B70000995FF91EF91BF91AF919F918F917F91D7
:100B80006F915F914F913F912F910F900FBE0F90FA
:100B90001F9018951F920F920FB60F9211242F934A
:100BA0003F934F935F936F937F938F939F93AF93F5
:100BB000BF93EF93FF93E0910001F091010109953C
:100BC000FF91EF91BF91AF919F918F917F916F9125
:100BD0005F914F913F912F910F900FBE0F901F90FB
:100BE00018951F920F920FB60F9211242F933F93D7
:100BF0004F935F936F937F938F939F93AF93BF9325
:100C0000EF93FF938091190290911A02A0911B0219
:100C1000B0911C02892B8A2B8B2BD1F1909114025D
:100C2000E0911502F09116028081892780838091DE
:100C3000190290911A02A0911B02B0911C02181681
:100C400019061A061B069CF48091190290911A024B
:100C5000A0911B02B0911C020197A109B1098093D8
:100C6000190290931A02A0931B02B0931C02FF91E9
:100C7000EF91BF91AF919F918F917F916F915F9114
:100C80004F913F912F910F900FBE0F901F9018958D
:100C9000809105010E940E02EACF1F920F920FB6BB
:100CA0000F9211242F933F934F935F936F937F93F2
:100CB0008F939F93AF93BF93EF93FF9388E492E05A
:100CC0000E94B802FF91EF91BF91AF919F918F91D8
:100CD0007F916F915F914F913F912F910F900FBE38
:100CE0000F901F9018951F920F920FB60F9211241C
:100CF0002F938F939F93EF93FF93E0915802F0917E
:100D000059028081E0915E02F0915F0282FD1BC07A
:100D10009081809161028F5F8F73209162028217B0
:100D200041F0E0916102F0E0E85BFD4F958F809328
:100D30006102FF91EF919F918F912F910F900FBEC4
:100D40000F901F9018958081F4CFE8E4F2E01382B1
:100D5000128288EE93E0A0E0B0E084839583A683BE
:100D6000B7838AE091E09183808385EC90E095875A
:100D7000848784EC90E09787868780EC90E0918B65
:100D8000808B81EC90E0938B828B82EC90E0958B52
:100D9000848B86EC90E0978B868B118E128E138E4F
:100DA000148EE5EEF2E0138212828CE191E09183E1
:100DB00080838CE084838FEF85838BE086838EE055
:100DC00087838FE0808780E1818781E18287138636
:100DD000148615861686178681E00C943304CF930B
:100DE000DF93CDB7DEB7A5970FB6F894DEBF0FBE81
:100DF000CDBF789484B5826084BD84B5816084BDA4
:100E000085B5826085BD85B5816085BD80916E00A8
:100E1000816080936E0010928100809181008260D9
:100E20008093810080918100816080938100809116
:100E300080008160809380008091B1008460809305
:100E4000B1008091B00081608093B00080917A0001
:100E5000846080937A0080917A00826080937A0027
:100E600080917A00816080937A0080917A00806816
:100E700080937A001092C10014BE0FB6F894A89522
:100E800080916000886180936000109260000FBEC6
:100E900062E082E00E94AB0162E083E00E94AB016D
:100EA00062E087E00E94AB0161E088E00E94AB0154
:100EB00061E089E00E94AB0161E08AE00E94AB0141
:100EC00061E08DE00E94AB0181E893E09093010125
:100ED00080930001809169008C7F8260809369001B
:100EE000E89A8BE693E0909303018093020180914E
:100EF0006900837F886080936900E99AE0915802D5
:100F0000F091590282E08083E0915402F091550201
:100F10001082E0915602F09157028FEC808310927C
:100F20006002E0915C02F0915D0286E08083E091D6
:100F30005A02F0915B02808180618083E0915A02C5
:100F4000F0915B02808188608083E0915A02F09189
:100F50005B02808180688083E0915A02F0915B029D
:100F600080818F7D808382E00E94330465E371E09D
:100F700085EE92E00E94DF0484E491E00E94340553
:100F80008AE691E00E94270364E271E088E492E03F
:100F90000E94DF0488E19FE00FB6F894A895809343
:100FA00060000FBE909360009E012F5F3F4F1901BC
:100FB000CE014A969BA38AA3DE015296BDA3ACA3A1
:100FC000A895F8946090060270900502C090010206
:100FD000D0900202E0900302F09004028090FD01A4
:100FE0009090FE01A090FF01B0900002789482E002
:100FF0000E945401019731F483E00E94540111E0F2
:10100000019709F010E080912602813009F4CBC0ED
:1010100008F4B6C0823009F481C287E00E9454010E
:101020007C0111E0892B09F010E080911302181760
:1010300009F456C080900F0290901002A090110207
:10104000B09012020E940102681979098A099B096D
:10105000623371058105910508F442C00E940102C6
:1010600060930F027093100280931102909312020A
:1010700010931302EF28A1F510920B0210920C02AC
:1010800010920D0210920E02109227021092280266
:101090001092290210922A0210922F02109230020E
:1010A00010923102109232021092370210923802DE
:1010B0001092390210923A0210920702109208021E
:1010C0001092090210920A0210922B0210922C0226
:1010D00010922D0210922E0289EC91E00E943405AC
:1010E0000E9401024B015C01C0903302D090340297
:1010F000E0903502F0903602C818D908EA08FB08DB
:1011000060E01C141D041E041F044CF4B40120E90B
:1011100031E040E050E00E945111622F61708AE09E
:101120000E947D0161E01C141D041E041F040CF4C8
:1011300060E088E00E947D0161E0809126028111DB
:1011400001C060E08DE00E947D01109125021C1419
:101150001D041E041F040CF0CEC3C501B40128EE0B
:1011600033E040E050E00E9451116639710581057D
:10117000910508F0C0C3112309F405C211E0D8C2DB
:10118000611003C0772009F448CFB1E0B093260284
:101190000E9401026093F9017093FA018093FB01B0
:1011A0009093FC013ACF662009F488C1772009F4B6
:1011B00085C1F894109204017894C814D904EA0403
:1011C000FB0408F044C0C501B4016C197D098E0907
:1011D0009F091EE30E94281020E034E244E759E40E
:1011E0000E94870F9B01AC0160E070E080E89FE304
:1011F0000E94870F26E636E646E650E40E94DF109E
:101200006B017C0120E030E048E453E40E94DA10F6
:10121000181634F580910B0290910C02A0910D02EA
:10122000B0910E020196A11DB11D80930B02909307
:101230000C02A0930D02B0930E0280E691E00E9492
:10124000340582E0809326021092F801E6CEC701B1
:10125000B601681979098A099B09E1F21CE3BACF42
:1012600080912F0290913002A0913102B091320210
:101270000196A11DB11D80932F0290933002A0937F
:101280003102B0933202C0923702D0923802E0921B
:101290003902F0923A02A701960160912B027091F7
:1012A0002C0280912D0290912E020E94160F6093C5
:1012B0002B0270932C0280932D0290932E0220918A
:1012C0000702309108024091090250910A02C701B9
:1012D000B6010E94DA10181644F4C0920702D092A8
:1012E0000802E0920902F0920A0220E030E040E2B7
:1012F00052E4C701B6010E94DA1018160CF580916D
:10130000270290912802A0912902B0912A02019609
:10131000A11DB11D8093270290932802A09329025A
:10132000B0932A020E94010268577C4E8F4F9F4F54
:1013300060933302709334028093350290933602A7
:101340008BE991E00E9427030E94010228EE33E01E
:1013500040E050E00E945111CA01B9014AE00E94E8
:10136000EE048CE20E94420387E991E01E3311F003
:1013700083E991E00E9427038CE20E944203A701C7
:101380009601C701B6010E944C1169E871E0811114
:101390001AC046015701E894B7F82FEF3FEF4FE727
:1013A0005FE7C501B4010E944C11811130C02FEFDD
:1013B0003FEF4FE75FE7C501B4010E94820F1816A7
:1013C00034F56DE871E088E492E00E94DF048CE27D
:1013D0000E944203812C912C5401839420E030E040
:1013E00040E252E4C701B6010E94DA1018161CF060
:1013F000812C912C54014AE0C501B4010E94EE04F5
:1014000064E271E088E492E00E94DF041ACF2FEFDB
:101410003FEF4FE75FE4C701B6010E94DA101816EC
:101420001CF461E971E0CFCF2FEF3FEF4FE75FECA6
:10143000C701B6010E94820F87FDF3CF20E030E0A4
:10144000A901C701B6010E94820F87FF34C08DE257
:101450000E944203C701B60190582DEC3CEC4CE4CD
:101460005DE30E94160F2B013C010E94F90F4B0116
:101470005C010E9428109B01AC01C301B2010E94D3
:10148000150F2B013C014AE0C501B4010E94EE0496
:101490008EE20E94420320E030E040E251E4C301CA
:1014A000B2010E94DF100E94F90F90E080E04AE054
:1014B0000E94EE048CCFC701B601CFCFC090F901D6
:1014C000D090FA01E090FB01F090FC010E94010233
:1014D0006C197D098E099F09603D77408105910552
:1014E00008F49BCD80910B0290910C02A0910D020B
:1014F000B0910E020196A11DB11D80930B02909335
:101500000C02A0930D02B0930E0285E991E00E94B7
:101510003405F89410920401789493CE112371F05D
:101520008091F80181110AC00E9401026093F401C8
:101530007093F5018093F6019093F7011093F801F1
:10154000112309F46ACDC090F401D090F501E09028
:10155000F601F090F7010E9401026C197D098E09D5
:101560009F096C3271408105910508F456CDF894BD
:10157000109205021092060281E080930401789493
:10158000109226024ACD80910501893049F5E4EA9E
:10159000F1E0149117FDF2CD61E089E00E94AB010A
:1015A000112309F48FC0123009F0A3C08091B1005B
:1015B000887F83608093B10083E68093B3008FEFD0
:1015C0009FEFDC018093190290931A02A0931B02F3
:1015D000B0931C0280917000826080937000CECD29
:1015E0008F3F09F0CBCD89E080930501E4EAF1E07B
:1015F00014911F3F09F4C2CD113021F150F0123087
:1016000009F43EC017FDBACD61E089E00E94AB014C
:10161000CACF14BC15BC84B5826084BD85B5816019
:1016200085BDECECF1E0E491F0E0EE0FFF1FE15539
:10163000FE4F85919491E0EEF1E0E491E093180281
:1016400010E0AACF1092800010928100809181005A
:101650008860809381008091810081608093810007
:10166000ECECF1E0E491F0E0EE0FFF1FE155FE4FEE
:1016700085919491E0EEF1E0E491E09317028CCF34
:101680001092B0001092B1008091B00082608093FF
:10169000B0008091B10081608093B100ECECF1E08A
:1016A000E491F0E0EE0FFF1FE155FE4F859194911C
:1016B0009093160280931502E0EEF1E0E491E0933E
:1016C00014026ACF85B5887F836085BD81E387BDBD
:1016D0008FEF9FEFDC018093210290932202A09371
:1016E0002302B093240280916E00826080936E008A
:1016F00045CD113009F0F7C080918100887F81606D
:1017000080938100AFE7BCE0B0938900A09388008C
:101710008FEF9FEFDC0180931D0290931E02A09338
:101720001F02B093200280916F00826080936F004F
:1017300010932502C0903B02D0903C02E0903D0205
:10174000F0903E020E9401026C197D098E099F09EA
:101750006A3F71058105910508F4B8C00E94010235
:1017600060933B0270933C0280933D0290933E0253
:1017700060913702709138028091390290913A025B
:101780008E01065E1F4F21E045E00E94890CC0904B
:101790003302D0903402E0903502F09036020E947D
:1017A0000102C61AD70AE80AF90A87E291E01C1476
:1017B0001D041E041F0414F08EE291E09F938F938A
:1017C0009BA19F93AAA1AF9388ED91E09F938F93E4
:1017D0001F9281E18F933F922F920E947911E1E055
:1017E0008091F8028111E0E0E195F0E0EB51FD4FCE
:1017F000848980680E942D04B10185EE92E00E94E8
:10180000DF0460912F02709130028091310290913B
:1018100032020FB6F894DEBF0FBECDBF6115710561
:101820008105910509F46FC00E9428109B01AC014D
:1018300060912B0270912C0280912D0290912E02CA
:101840000E94870F8E010E5E1F4F20E044E00E9431
:10185000890C3DA13F938CA18F9380912A028F9395
:10186000809129028F93809128028F938091270283
:101870008F93809132028F93809131028F93809168
:1018800030028F9380912F028F9382EE91E09F938D
:101890008F931F9281E18F933F922F920E94791133
:1018A000E091F8020FB6F894DEBF0FBECDBFE23074
:1018B00070F5E150F0E0EB51FD4F848980680E94A3
:1018C0002D04B10185EE92E00E94DF0480E090E0FB
:1018D000892B09F475CB0E94A402882309F468CBF4
:1018E0000E94000065CB123021F0111147CC8FE728
:1018F000EECE8FE762CE112309F41ACF89E00E9461
:101900000E0210E015CF60E070E0CB019BCFE1E06C
:10191000D1CFEF920F931F93CF93DF93E80134E081
:1019200047FD34E1042E000C550B57FF03C05195C1
:1019300041955109E32E022F242FAE010E94A70CDE
:10194000CE01DF91CF911F910F91EF900895A9E003
:10195000B0E0EDEAFCE00C94E40E6A01F22EB02E49
:10196000102FFBE3AF2EA01608F41BE31F5F012F1F
:1019700027E0AE014F5F5F4F0E94060EBC018981D8
:10198000982F9970913009F43FC09BE2E1FC04C0AC
:101990009E2D9170E0FC3AC05E2D5071E82FE870EA
:1019A00083FF46C084E0911101C083E0EF2DE81B66
:1019B0008F1508F0E0E0D6018E2F20E2552351F17B
:1019C000992329F0D6019C93C60101966C019601DA
:1019D0002D5F3F4FE2FE24C08EE4D6018C9391E44C
:1019E00011969C93119712968C93D9018E2F90E2A9
:1019F00081111BC0E20FF32FF11D10828EEF9FEFBC
:101A00002996ECE00C94000F9DE2C6CF90E2C4CF83
:101A10002D9381508111FCCFCE0ED11CE0E0D0CFB0
:101A20008EE6D6018C9391E6DBCF9D938150E0CF7B
:101A3000482F447082FF3DC084E0911101C083E0D3
:101A40008F1510F4EF2DE81BD6018E2F20E25523C1
:101A500009F1992329F0D6019C93C60101966C01E6
:101A600096012D5F3F4FE2FE1BC089E4D6018C93A7
:101A70008EE411968C93119786E412968C93D9017B
:101A80008E2F90E2882309F4B5CF9D938150FACF31
:101A90002D9381508111FCCFCE0ED11CE0E0D9CF27
:101AA00089E6D6018C938EE611968C93119786E683
:101AB000E4CF9B0177FF02C030E020E0A1E0B0E07E
:101AC000911102C0B0E0A0E0F9013196AE0FBF1F46
:101AD0008B2C912CBB2009F461C05401EFEFAE1A9E
:101AE000BE0AAA0DBB1DFA161B0619F014F04F2DE5
:101AF0004A1B511188C0E3FC59C07601A42FB0E203
:101B0000A1114FC0C40ED11C992309F45BC040E061
:101B1000D6011196F60190836D01552309F448C052
:101B2000012F060F9A81582F507184FF03C0913303
:101B300009F4015010160CF047C0093008F008E015
:101B4000EEE2FE2E5B01A01AB1088501919481940A
:101B500091082F3F320729F4D601FC92F601319605
:101B60006F016217730794F1021713077CF5DB010D
:101B7000A21BB30BAA24A394B12CAC0EBD1EAA0DBC
:101B8000BB1D11968C9121503109D6011196281553
:101B90003905F4F0F60180836D01DBCFB12CA12C67
:101BA000A0CFF701B1937F01A150AACF9111B0CF7F
:101BB000D601942F50E302C05D9391509111FCCF58
:101BC000C40ED11C40E0ACCF01E0BACF80E3DBCF44
:101BD0006217730731F4963388F4953311F4552363
:101BE00069F0F6018083FD01842F90E2811108C025
:101BF000A40FB11D1C9290E080E002CF81E3F1CFF1
:101C000091938150F3CF911183CF8ACF283008F080
:101C100027E03327DA01990F311D87FD9160009687
:101C20006105710539F432602E5F3D9330E32A95EA
:101C3000E1F708959F3F30F080387105610509F0A4
:101C40003C5F3C5F3D93913008F08068911DDF93CD
:101C5000CF931F930F93FF92EF92192F987F969532
:101C6000E92F96959695E90FFF27EE53FF4F992799
:101C70003327EE24FF24A701E70105900894079479
:101C800028F4360FE71EF81E491F511D660F771FF7
:101C9000881F991F0694A1F70590079428F4E70E72
:101CA000F81E491F561FC11D770F881F991F661FF9
:101CB0000694A1F70590079428F4F80E491F561FC3
:101CC000C71FD11D880F991F661F771F0694A1F7A4
:101CD0000590079420F4490F561FC71FD81F990F6E
:101CE000661F771F881F0694A9F7849110951770B7
:101CF00041F0D695C79557954795F794E7941A956F
:101D0000C1F7E8E6F0E0689415901591359165917A
:101D1000959105907FE27395E118F10A430B560BFC
:101D2000C90BD009C0F7E10CF11E431F561FC91F94
:101D3000D01D7EF4703311F48A95E6CFE8940150FB
:101D400030F0080F0AF40027021708F4202F23951B
:101D5000022F7A3328F079E37D932A95E9F710C0B2
:101D60007D932A9589F606949795679537951795EB
:101D70001794E118F10A430B560BC90BD00998F0E0
:101D800023957E9173957A3308F070E37C9320134A
:101D9000B8F77E9170617D9330F0839571E37D9308
:101DA00070E32A95E1F71124EF90FF900F911F91B6
:101DB000CF91DF91992787FD909508952F923F92BB
:101DC0004F925F926F927F928F929F92AF92BF924B
:101DD000CF92DF92EF92FF920F931F93CF93DF93F7
:101DE000CDB7DEB7CA1BDB0B0FB6F894DEBF0FBE54
:101DF000CDBF09942A88398848885F846E847D84A1
:101E00008C849B84AA84B984C884DF80EE80FD80A2
:101E10000C811B81AA81B981CE0FD11D0FB6F89418
:101E2000DEBF0FBECDBFED0108955058BB27AA27D6
:101E30000E942D0F0C94A0100E94921038F00E9466
:101E4000991020F039F49F3F19F426F40C948F1068
:101E50000EF4E095E7FB0C948910E92F0E94B11075
:101E600058F3BA17620773078407950720F079F4CF
:101E7000A6F50C94D3100EF4E0950B2EBA2FA02DDE
:101E80000B01B90190010C01CA01A0011124FF2727
:101E9000591B99F0593F50F4503E68F11A16F04022
:101EA000A22F232F342F4427585FF3CF4695379521
:101EB0002795A795F0405395C9F77EF41F16BA0BE6
:101EC000620B730B840BBAF09150A1F0FF0FBB1F94
:101ED000661F771F881FC2F70EC0BA0F621F731FDD
:101EE000841F48F4879577956795B795F7959E3F3A
:101EF00008F0B0CF9395880F08F09927EE0F9795CB
:101F0000879508950E94651008F481E008950E9465
:101F10009B0F0C94A0100E94991058F00E949210F0
:101F200040F029F45F3F29F00C94891051110C9472
:101F3000D4100C948F100E94B11068F39923B1F360
:101F4000552391F3951B550BBB27AA2762177307DF
:101F5000840738F09F5F5F4F220F331F441FAA1F73
:101F6000A9F335D00E2E3AF0E0E832D0915050402F
:101F7000E695001CCAF72BD0FE2F29D0660F771FDD
:101F8000881FBB1F261737074807AB07B0E809F0C3
:101F9000BB0B802DBF01FF2793585F4F3AF09E3F48
:101FA000510578F00C9489100C94D4105F3FE4F341
:101FB000983ED4F3869577956795B795F7959F5F8B
:101FC000C9F7880F911D9695879597F90895E1E0D7
:101FD000660F771F881FBB1F621773078407BA0736
:101FE00020F0621B730B840BBA0BEE1F88F7E09591
:101FF00008950E94B91088F09F5798F0B92F99273B
:10200000B751B0F0E1F0660F771F881F991F1AF0E3
:10201000BA95C9F714C0B13091F00E94D310B1E065
:1020200008950C94D310672F782F8827B85F39F064
:10203000B93FCCF3869577956795B395D9F73EF47C
:1020400090958095709561957F4F8F4F9F4F089524
:10205000E89409C097FB3EF4909580957095619542
:102060007F4F8F4F9F4F9923A9F0F92F96E9BB27F8
:102070009395F695879577956795B795F111F8CF74
:10208000FAF4BB0F11F460FF1BC06F5F7F4F8F4FDF
:102090009F4F16C0882311F096E911C0772321F0D5
:1020A0009EE8872F762F05C0662371F096E8862F6D
:1020B00070E060E02AF09A95660F771F881FDAF7C4
:1020C000880F9695879597F90895990F0008550FF1
:1020D000AA0BE0E8FEEF16161706E807F907C0F0AE
:1020E00012161306E407F50798F0621B730B840BB6
:1020F000950B39F40A2661F0232B242B252B21F490
:1021000008950A2609F4A140A6958FEF811D811D2F
:10211000089597F99F6780E870E060E008959FEF69
:1021200080EC089500240A9416161706180609066E
:10213000089500240A94121613061406050608953D
:10214000092E0394000C11F4882352F0BB0F40F4C5
:10215000BF2B11F460FF04C06F5F7F4F8F4F9F4F05
:10216000089557FD9058440F551F59F05F3F71F087
:102170004795880F97FB991F61F09F3F79F08795EE
:102180000895121613061406551FF2CF4695F1DF77
:1021900008C0161617061806991FF1CF8695710507
:1021A000610508940895E894BB2766277727CB013B
:1021B00097F908950E94651008F48FEF08950E9422
:1021C000F2100C94A0100E94921038F00E94991006
:1021D00020F0952311F00C9489100C948F10112489
:1021E0000C94D4100E94B11070F3959FC1F3950F19
:1021F00050E0551F629FF001729FBB27F00DB11D8B
:10220000639FAA27F00DB11DAA1F649F6627B00D1A
:10221000A11D661F829F2227B00DA11D621F739F03
:10222000B00DA11D621F839FA00D611D221F749F11
:102230003327A00D611D231F849F600D211D822F58
:10224000762F6A2F11249F5750409AF0F1F088237F
:102250004AF0EE0FFF1FBB1F661F771F881F9150AC
:102260005040A9F79E3F510580F00C9489100C94C2
:10227000D4105F3FE4F3983ED4F386957795679545
:10228000B795F795E7959F5FC1F7FE2B880F911DD6
:102290009695879597F908950E946510880B990B7C
:1022A0000895A1E21A2EAA1BBB1BFD010DC0AA1F97
:1022B000BB1FEE1FFF1FA217B307E407F50720F0AF
:1022C000A21BB30BE40BF50B661F771F881F991F2A
:1022D0001A9469F760957095809590959B01AC0173
:1022E000BD01CF010895EE0FFF1F0590F491E02D81
:1022F0000994AEE0B0E0EFE7F1E10C94EC0E0D894B
:102300001E898F89988D26E02C831A83098397FF75
:1023100002C080E090E801979E838D83AE01455E08
:102320005F4F698D7A8DCE0101960E94A9114D8172
:102330005E8157FD0AC02F813885421753070CF480
:102340009A01020F131FF80110822E96E4E00C94FC
:10235000080FABE0B0E0EFEAF1E10C94DE0E7C0197
:102360003B018A01FC0117821682838181FFC8C16B
:10237000CE0101965C01F7019381F30193FD8591F4
:1023800093FF81913F01882309F453C1853239F4C9
:1023900093FD859193FF81913F01853229F4B70127
:1023A00090E00E949913E7CF912C212C312CFFE172
:1023B000F31538F08B3211F190F4803209F1833249
:1023C00029F137FC3CC020ED280F2A3050F536FEAD
:1023D00020C08AE0989E200D1124922E06C08D32D6
:1023E00091F0803371F7689430F8F30193FD859193
:1023F00093FF81913F018111DACF21C0689431F8B8
:10240000689432F8F2CF689433F8EFCF689434F8D8
:10241000ECCFEAE02E9E200D1124222E689435F890
:10242000E4CF8E3229F436FC04C1689436F8DDCF4F
:102430008C3619F4689437F8D8CF8836B1F2982FD3
:102440009F7D95549330E0F08336A1F18337C1F13D
:10245000833509F063C02801F2E04F0E511CF801EA
:10246000C080D180692D70E036FC02C06FEF7FEF35
:10247000C6010E9483134C01689437F882010AC098
:102480000C5F1F4FFFE3F98388248394912C65012F
:10249000E89437F833FE2DC0522C8114910471F565
:1024A000552009F468CFB70180E290E00E949913AB
:1024B0005A94F6CFF801808189830E5F1F4FE4CFD5
:1024C0002801F2E04F0E511CF801C080D180692D27
:1024D00070E036FC02C06FEF7FEFC6010E948E13E2
:1024E0004C018201D5CFB70180E290E00E949913A0
:1024F0002A942814190409F0B0F7CECFF60137FC5E
:10250000859137FE81916F01B70190E00E94991388
:1025100051105A94F1E08F1A9108BFCF843619F008
:10252000893609F077C0F80137FE6BC06081718190
:10253000828193810C5F1F4FF32DFF763F2E97FF13
:1025400009C090958095709561957F4F8F4F9F4FF3
:10255000689437F82AE030E0A5010E94C913C82E1C
:10256000CA188C2C432C36FE0CC0E89440F8C914D1
:1025700040F434FE05C032FC03C0F32DFE7E4F2E26
:10258000892C44FE95C0FE01EC0DF11D8081803345
:1025900009F087C0242D297E422E842D8870582E64
:1025A00043FC95C040FE8FC09C2C821418F42C0C68
:1025B000922C981844FE91C0B70180E390E00E94ED
:1025C000991342FE09C088E790E041FE02C088E509
:1025D00090E0B7010E949913C91408F48AC0CA9404
:1025E000D12C9FEFC91AD90ACA0CDB1CF6018291C3
:1025F0006F01B70190E00E949913AC14BD04B1F7CC
:102600004FCF60817181072E000C880B990B0E5FF4
:102610001F4F92CFD32CE894D4F82AE030E08537CE
:1026200039F1232D297FD22E8F3601F148F48835D8
:10263000A9F0F701868197812B96E2E10C94FA0EBE
:10264000803749F08837A9F7D4FE02C06894D2F8E1
:1026500020E130E00DC06894D4F8F6CF34FE03C01A
:10266000822F8660D82E20E132E002C028E030E0E0
:10267000F801D7FE0FC060817181828193810C5F68
:102680001F4FA5010E94C913C82ECA183D2CE894FB
:1026900037F867CF6081718190E080E00E5F1F4F57
:1026A000F0CF42FC02C0839478CF8394839475CF9B
:1026B000842D867809F471CFF6CFB70180E290E0DF
:1026C0000E94991383948214C0F3512C73CF522C1F
:1026D0005818821408F46ECFF8CF842D867809F448
:1026E0007BCF8BE241FE80E247FC8DE2B70190E0B8
:1026F00071CFB70180E390E00E9499139A946CCF58
:102700008FEF9FEF99CFFC01059061507040011051
:10271000D8F7809590958E0F9F1F0895FC0161500A
:10272000704001900110D8F7809590958E0F9F1FF3
:1027300008950F931F93CF93DF93182F092FEB0169
:102740008B8181FD09C01FEF0FEF812F902FDF914B
:10275000CF911F910F91089582FF14C02E813F8168
:102760008C819D81281739073CF4E881F981CF01DC
:1027700001969983888310838E819F8101969F8320
:102780008E83E3CFE885F985812F0995892BA1F305
:10279000DACFFA01AA27283051F1203181F1E894EB
:1027A0006F936E7F6E5F7F4F8F4F9F4FAF4FB1E044
:1027B0003ED0B4E03CD0670F781F891F9A1FA11D3F
:1027C000680F791F8A1F911DA11D6A0F711D811D40
:1027D000911DA11D20D009F468943F912AE0269F05
:1027E00011243019305D3193DEF6CF010895462F64
:1027F0004770405D4193B3E00FD0C9F7F6CF462F45
:102800004F70405D4A3318F0495D31FD40524193AD
:1028100002D0A9F7EACFB4E0A6959795879577956A
:102820006795BA95C9F700976105710508959B01F1
:10283000AC010A2E06945795479537952795BA957A
:10284000C9F7620F731F841F951FA01D0895F89488
:02285000FFCFB8
:102852000D020D0201FF00000000DA023A026702D7
:102862004703980276028A0200000000D9043A0265
:10287200680367030D0A00534C4F572120002020A4
:1028820020202020005370656564204465746563D0
:10289200746F720056656869636C65207370656554
:1028A20064206465746563746F722076312E300023
:1028B20072656A65637465643A20696D706F7373DB
:1028C20069626C6520737065656420286265616D5C
:1028D200206E6F6973653F29006E616E00696E66D6
:1028E200006F76660069676E6F7265643A206F6E7C
:1028F2006C79206F6E65206265616D2062726F6B0C
:10290200656E20287065646573747269616E202F2C
:1029120020616E696D616C2900636F756E746572FA
:10292200732072657365740025736B6D2F682025A3
:1029320073004E252D346C752056252D336C752071
:0429420041257300B8
:00000001FF
