:100000000C9401010C9432070C940B070C942901F9
:100010000C9429010C9429010C9429010C942901B8
:100020000C9429010C9429010C9429010C942901A8
:100030000C9429010C9429010C9429010C94290198
:100040000C94C1060C9429010C947F070C94590759
:100050000C9429010C9429010C9429010C94290178
:100060000C9429010C94290100407A10F35A00A045
:10007000724E18090010A5D4E80000E87648170071
:1000800000E40B54020000CA9A3B000000E1F505B1
:10009000000080969800000040420F000000A086FB
:1000A00001000000102700000000E803000000002D
:1000B0006400000000000A000000000001000000D1
:1000C00000002C76D888DC674F0823DFC1DFAE59EB
:1000D000E1B1B796E5E3E453C63AE651997696E87E
:1000E000E6C28426EB898C9B62ED407C6FFCEFBC02
:1000F0009C9F40F2BAA56FA5F490055A2AF75C932D
:100100006B6CF9676DC11BFCE0E40D47FEF520E662
:10011000B500D0ED902E0300943577050080841E45
:10012000080000204E0A000000C80C333333330FA0
:10013000986E12831141EF8D2114893BE65516CF3D
:10014000FEE6DB18D1844B381BF77C1D901DA4BB49
:10015000E424203284725E228100C9F124ECA1E5FE
:100160003D27735D200023205B00444154412C73E4
:1001700065636F6E64732C77696E645F6D732C7248
:10018000706D2C626174745F762C67656E5F762C7F
:1001900064756D705F7063742C73746174650000B6
:1001A000000000230026002900444154412C000097
:1001B000000000240027002A00000000002500287D
:1001C000002B0004040404040404040202020202DA
:1001D000020303030303030102040810204080010B
:1001E000020408102001020408102000000008008A
:1001F00002010000030407000000000000000000EE
:10020000B10711241FBECFEFD8E0DEBFCDBF11E094
:10021000A0E0B1E0E4E8F8E202C005900D92A83D4C
:10022000B107D9F722E0A8EDB1E001C01D92AA3CC8
:10023000B207E1F711E0C1E0D1E004C02197FE016F
:100240000E948C11C030D107C9F70E94FB070C94A3
:1002500040140C940000833081F028F4813099F030
:100260008230A9F008958730A9F08830C9F0843031
:10027000B1F4809180008F7D03C0809180008F77E2
:1002800080938000089584B58F7784BD089584B5E8
:100290008F7DFBCF8091B0008F778093B000089561
:1002A0008091B0008F7DF9CF1F93CF93DF93282FDC
:1002B00030E0F901E551FE4F8491F901E952FE4F1A
:1002C000D491F901ED53FE4FC491CC23A9F0162F20
:1002D00081110E942B01EC2FF0E0EE0FFF1FE7547D
:1002E000FE4FA591B4918FB7F894EC91111108C00D
:1002F000D095DE23DC938FBFDF91CF911F910895BE
:10030000DE2BF8CFCF93DF9390E0FC01E952FE4F54
:1003100024918D539E4FFC0184918823D1F090E06D
:10032000880F991FFC01E155FE4FA591B491FC0186
:10033000E754FE4FC591D491623071F49FB7F894A1
:100340003C91822F809583238C93E8812E2B2883E8
:100350009FBFDF91CF9108958FB7F894EC912E2B2A
:100360002C938FBFF6CF8E50806480937C00809159
:100370007A00806480937A0080917A0086FDFCCFB9
:10038000809178009091790008953FB7F89480911A
:10039000110290911202A0911302B091140226B59D
:1003A000A89B05C02F3F19F00196A11DB11D3FBFAD
:1003B000BA2FA92F982F8827BC01CD01620F711D7C
:1003C000811D911D42E0660F771F881F991F4A9576
:1003D000D1F708952FB7F89460910D0270910E0235
:1003E00080910F02909110022FBF0895CF92DF925B
:1003F000EF92FF920F931F930E94C5010091D801C5
:100400001091D9012091DA013091DB016B017C015F
:10041000C01AD10AE20AF30A97018601093813418A
:100420002105310590F02091E2013091E3012F5F29
:100430003F4F3093E3012093E2016093D801709322
:10044000D9018093DA019093DB011F910F91FF9006
:10045000EF90DF90CF900895CF92DF92EF92FF92CE
:100460000F931F930E94C5010091DC011091DD01E3
:100470002091DE013091DF016B017C01C01AD10AAD
:10048000E20AF30A97018601013D17402105310573
:1004900090F02091E0013091E1012F5F3F4F3093C8
:1004A000E1012093E0016093DC017093DD01809312
:1004B000DE019093DF011F910F91FF90EF90DF908D
:1004C000CF9008950895AF92BF92CF92DF92EF92AE
:1004D000FF920F931F93CF93DF936C017B018B01EE
:1004E000040F151FEB015E01AE18BF08C017D1073E
:1004F00059F06991D601ED91FC910190F081E02DC8
:10050000C6010995892B79F7C501DF91CF911F911C
:100510000F91FF90EF90DF90CF90BF90AF90089534
:10052000FC01538D448D252F30E0842F90E0821BF9
:10053000930B541710F0CF96089501970895FC017E
:10054000918D828D981761F0A28DAE0FBF2FB11DD6
:100550005D968C91928D9F5F9F73928F90E008952E
:100560008FEF9FEF0895FC01918D828D981731F0E8
:10057000828DE80FF11D858D90E008958FEF9FEF3C
:100580000895FC01918D228D892F90E0805C9F4F12
:10059000821B91098F739927089585E192E00E944B
:1005A000C10221E0892B09F420E0822F089580E028
:1005B00090E0892B29F00E94CD0281110C9400005B
:1005C0000895FC01A48DA80FB92FB11DA35ABF4FE8
:1005D0002C91848D90E001968F739927848FA68942
:1005E000B7892C93A089B1898C91837080648C9396
:1005F000938D848D981306C00288F389E02D808145
:100600008F7D80830895EF92FF920F931F93CF9376
:10061000DF93EC0181E0888F9B8D8C8D98131AC03D
:10062000E889F989808185FF15C09FB7F894EE8924
:10063000FF896083E889F989808183708064808381
:100640009FBF81E090E0DF91CF911F910F91FF90CC
:10065000EF900895F62E0B8D10E00F5F1F4F0F7374
:100660001127E02E8C8D8E110CC00FB607FCFACF2F
:10067000E889F989808185FFF5CFCE010E94E102EA
:10068000F1CFEB8DEC0FFD2FF11DE35AFF4FF08200
:100690009FB7F8940B8FEA89FB8980818062CFCF66
:1006A0000F931F93CF93DF938C01D0E0C0E0F8014C
:1006B000EC0FFD1F6491662341F085E192E00E94FA
:1006C0000303892B11F02196F2CFCE01DF91CF9158
:1006D0001F910F910895682F85E192E00C94030318
:1006E000CF93DF93EC01888D8823B9F0AA89BB8969
:1006F000E889F9898C9185FD03C0808186FD0DC054
:100700000FB607FCF7CF8C9185FFF2CF808185FF74
:10071000EDCFCE010E94E102E9CFDF91CF910895A4
:10072000089590E080E008958F929F92AF92BF92DB
:10073000CF92DF92EF92FF920F931F93CF93C82F28
:100740004B015A0168017901882359F0FB0180812E
:10075000811107C00E94EA01F501608371838283E1
:100760009383F401C083CC2391F0F50180809180C4
:10077000A280B3800E94EA01681979098A099B095D
:10078000C1E06C157D058E059F0508F4C0E08C2F37
:10079000CF911F910F91FF90EF90DF90CF90BF907E
:1007A000AF909F908F900895CF93DF93EC0160E01E
:1007B0008E810E94540161E08E810E94540160E0AC
:1007C0008E810E9454018BE891E00197F1F7DF914F
:1007D000CF910895CF92DF92EF92FF920F931F93E4
:1007E000CF93DF936C017C0187E0E80EF11CD0E031
:1007F000C0E0062F10E0B8010C2E02C07595679579
:100800000A94E2F76170F70181917F010E9454011F
:100810002196C430D10579F7C601DF91CF911F91A0
:100820000F91FF90EF90DF90CF900C94D403CF9274
:10083000DF92EF92FF920F931F93CF93DF93EC0120
:10084000F62E642F8C810E9454018D818F3F19F008
:1008500060E00E9454010F2D10E08F8584FF25C0B9
:100860006E0187E0C80ED11CF12CE12CB8010E2CD2
:1008700002C0759567950A94E2F76170F60181915F
:100880006F010E945401FFEFEF1AFF0A88E0E8169B
:10089000F10461F7CE01DF91CF911F910F91FF908D
:1008A000EF90DF90CF900C94D403B80184E075955D
:1008B00067958A95E1F7CE010E94EA036F2DCE017C
:1008C000DF91CF911F910F91FF90EF90DF90CF902C
:1008D0000C94EA0340E0682F82EB92E00C9417043A
:1008E000CF93DF93823029F49091C1029860909366
:1008F000C1028093C5021092C60280E48093C702B1
:1009000080E18093C80280E58093C90261E0809114
:10091000B6020E9482018091B7028F3F19F061E018
:100920000E94820161E08091B8020E948201C2EBC4
:10093000D2E09E01225B32408091C10284FD0BC057
:1009400084E090E021962817390744F461E08E8115
:100950000E948201EECF88E090E0F4CF8BE39DE02F
:100960000197F1F760E08091B6020E94540160E0C7
:100970008091B8020E9454018091B7028F3F19F014
:1009800060E00E9454018091C10284FD39C063E09F
:1009900082EB92E00E94EA03CBE4D6E4CE01019719
:1009A000F1F763E082EB92E00E94EA032197F1F70E
:1009B00063E082EB92E00E94EA0383E592E0019714
:1009C000F1F762E082EB92E00E94EA038091C102BB
:1009D00080620E946A0484E08093C2028CE00E94DC
:1009E0006A0481E00E946A048BE39FE10197F1F7BA
:1009F00082E08093C30286E0DF91CF910C946A0479
:100A000080620E946A048BE496E40197F1F780917A
:100A1000C10280620E946A0483E592E00197F1F7C7
:100A20008091C10280620E946A04D0CF41E00E949E
:100A3000170481E090E00895FB0101900020E9F7A0
:100A40003197AF01461B570BDC01ED91FC91028001
:100A5000F381E02D09948F929F92AF92BF920F93F2
:100A60001F93CF93DF93CDB7DEB7A1970FB6F8945E
:100A7000DEBF0FBECDBF19A2423008F44AE08E019E
:100A80000F5D1F4F842E912CB12CA12CA501940138
:100A90000E945B11E62FB901CA01EA3004F5E05D5E
:100AA000D801EE938D01232B242B252B79F790E091
:100AB00080E0109729F0BD0185E192E00E941C05BD
:100AC000A1960FB6F894DEBF0FBECDBFDF91CF91D8
:100AD0001F910F91BF90AF909F908F900895E95C08
:100AE000DFCFCF93DF93D0E0C0E0009731F0BC01BF
:100AF00085E192E00E941C05EC016CE271E085E169
:100B000092E00E941C058C0F9D1FDF91CF910895EC
:100B1000CF93DF93EC0186E691E00E9450030E94A0
:100B2000EA0128EE33E040E050E00E945B11CA0188
:100B3000B9014AE00E942B0582E691E00E94500331
:100B4000CE01DF91CF910C9471050F931F93CF933A
:100B5000DF93CDB7DEB7A8970FB6F894DEBF0FBE10
:100B6000CDBF90910B02981731F180930B02109238
:100B7000EC01E82FF0E0EE0FFF1FEC5FFE4F20814D
:100B80003181882319F18EE391E03F932F939F9356
:100B90008F931F9288E28F938E010F5F1F4F1F93D9
:100BA0000F930E949211C8010E9488050FB6F89415
:100BB000DEBF0FBECDBFA8960FB6F894DEBF0FBE46
:100BC000CDBFDF91CF911F910F9108958FE291E0FA
:100BD000DCCF4F925F926F927F928F929F92AF92F3
:100BE000BF92CF92DF92EF92FF920F931F93CF931A
:100BF0006B017C01742EAC019B010E94561168E4CC
:100C000071E0811126C046015701E894B7F82FEF33
:100C10003FEF4FE75FE7C501B4010E945611811114
:100C20000CC02FEF3FEF4FE75FE7C501B4010E9413
:100C30008C0F6CE471E0181664F02FEF3FEF4FE774
:100C40005FE4C701B6010E94E4101816ACF460E539
:100C500071E085E192E0CF911F910F91FF90EF90AD
:100C6000DF90CF90BF90AF909F908F907F906F90CC
:100C70005F904F900C941C052FEF3FEF4FE75FEC18
:100C8000C701B6010E948C0F87FDE1CF20E030E064
:100C9000A901C701B6010E948C0F10E000E087FF98
:100CA00008C08DE20E946B038C01F7FAF094F7F80C
:100CB000F094C0E060E070E080E09FE37C1641F0DB
:100CC00020E030E040E251E40E94910FCF5FF6CF88
:100CD000A70196010E94200F2B013C010E940310E6
:100CE0004B015C014AE00E942B057C01E00EF11EE5
:100CF000CC23B1F1C501B4010E9432109B01AC01BB
:100D0000C301B2010E941F0F4B015C018EE20E94E1
:100D10006B03E80EF91EC15018F120E030E040E20C
:100D200051E4C501B4010E94E9102B013C010E946D
:100D300003104B01B12CA12C4AE0C501B4010E9463
:100D40002B05E80EF91EC501B4010E9432109B016B
:100D5000AC01C301B2010E941F0F4B015C01DBCF4C
:100D6000C701CF911F910F91FF90EF90DF90CF902F
:100D7000BF90AF909F908F907F906F905F904F90BB
:100D800008951F920F920FB60F9211242F933F9345
:100D90008F939F93AF93BF9380910D0290910E021A
:100DA000A0910F02B091100230910C0223E0230FAA
:100DB0002D3758F50196A11DB11D20930C0280938B
:100DC0000D0290930E02A0930F02B0931002809137
:100DD000110290911202A0911302B0911402019697
:100DE000A11DB11D8093110290931202A0931302D2
:100DF000B0931402BF91AF919F918F913F912F912A
:100E00000F900FBE0F901F90189526E8230F0296A3
:100E1000A11DB11DD2CF1F920F920FB60F921124B8
:100E20002F933F934F935F936F937F938F939F93F2
:100E3000AF93BF93EF93FF93E0910201F091030111
:100E40000995FF91EF91BF91AF919F918F917F9104
:100E50006F915F914F913F912F910F900FBE0F9027
:100E60001F9018951F920F920FB60F9211242F9377
:100E70003F934F935F936F937F938F939F93AF9322
:100E8000BF93EF93FF93E0910001F0910101099569
:100E9000FF91EF91BF91AF919F918F917F916F9152
:100EA0005F914F913F912F910F900FBE0F901F9028
:100EB00018951F920F920FB60F9211242F933F9304
:100EC0004F935F936F937F938F939F93AF93BF9352
:100ED000EF93FF9385E192E00E94E102FF91EF9191
:100EE000BF91AF919F918F917F916F915F914F9142
:100EF0003F912F910F900FBE0F901F9018951F924A
:100F00000F920FB60F9211242F938F939F93EF930D
:100F1000FF93E0912502F09126028081E0912B025F
:100F2000F0912C0282FD1BC0908180912E028F5F78
:100F30008F7320912F02821741F0E0912E02F0E092
:100F4000EB5EFD4F958F80932E02FF91EF919F9165
:100F50008F912F910F900FBE0F901F901895808149
:100F6000F4CFE5E1F2E01382128288EE93E0A0E094
:100F7000B0E084839583A683B78382E191E0918377
:100F8000808385EC90E09587848784EC90E0978758
:100F9000868780EC90E0918B808B81EC90E0938B46
:100FA000828B82EC90E0958B848B86EC90E0978B23
:100FB000868B118E128E138E148EE2EBF2E013826A
:100FC000128284E291E0918380838CE084838FEFAE
:100FD00085838BE086838AE0878388E0808786E04C
:100FE000818785E082871386148615861686178684
:100FF00081E00C947004CF93DF93CDB7DEB7A69752
:101000000FB6F894DEBF0FBECDBF789484B5826072
:1010100084BD84B5816084BD85B5826085BD85B59C
:10102000816085BD80916E00816080936E0010921A
:101030008100809181008260809381008091810095
:101040008160809381008091800081608093800026
:101050008091B10084608093B1008091B000816084
:101060008093B00080917A00846080937A008091B0
:101070007A00826080937A0080917A008160809308
:101080007A0080917A00806880937A001092C10083
:1010900014BE0FB6F894A895809160008861809383
:1010A0006000109260000FBE61E087E00E94820144
:1010B00060E087E00E94540161E089E00E948201C3
:1010C00061E08DE00E94820162E082E00E94820184
:1010D00062E083E00E94820162E084E00E9482017B
:1010E00086EF91E090930101809300018091690067
:1010F0008C7F826080936900E89A8CE292E0909302
:1011000003018093020180916900837F886080934E
:101110006900E99AE0912502F091260282E080833D
:10112000E0912102F09122021082E0912302F091DD
:1011300024028FEC808310922D02E0912902F0911D
:101140002A0286E08083E0912702F09128028081C4
:1011500080618083E0912702F0912802808188607D
:101160008083E0912702F09128028081806880834B
:10117000E0912702F091280280818F7D808382E0B8
:101180000E94700464E571E082EB92E00E941C050D
:1011900085E691E00E9488058AE691E00E9450036E
:1011A0006CE271E085E192E00E941C0581E0809391
:1011B0000B0288E19FE00FB6F894A8958093600039
:1011C0000FBE909360009E01265E3F4F3BA32AA373
:1011D000AE014F5F5F4F1A01CE0142969DA38CA3D3
:1011E000A8950E94EA014B015C018091E401909175
:1011F000E501A091E601B091E701A5019401281B4A
:10120000390B4A0B5B0BCA01B901683E33E0730727
:101210008105910508F4BEC20E94321020E030E042
:101220004AE754E40E94910F6B017C018092E40133
:101230009092E501A092E601B092E701F8946091E6
:10124000E2017091E3010091E0011091E10110923F
:10125000E1011092E0011092E3011092E201789412
:1012600090E080E00E943210A70196010E94910F49
:1012700023E830EC4AE25FE30E94E9102B013C01D5
:1012800040920202509203026092040270920502A0
:10129000B80190E080E00E943210A70196010E9400
:1012A000910F20E030E040E752E40E94E91020E096
:1012B00030E040E05FE30E94200F0E9403108B01AA
:1012C000709301026093000230E1B32EC12CD12C47
:1012D00076018EE00E94B301092E000CAA0BBB0B15
:1012E000C80ED91EEA1EFB1EBA94B110F2CFC70178
:1012F000B6010E94321020E030E040E85DE30E9439
:10130000E91020E030E040EA50E40E94E91020E0DB
:1013100030EC4FE754E40E94910F2EED37EA48E39A
:101320005EE30E94910F4B015C0180920602909255
:101330000702A0920802B092090240E14EA3C12C1C
:10134000D12C76018FE00E94B301092E000CAA0B6C
:10135000BB0BC80ED91EEA1EFB1E5EA151505EA338
:101360005111F0CFC701B6010E94321020E030E0E9
:1013700040E85DE30E94E91020E030E040EA50E4FC
:101380000E94E91020E030EC4FE754E40E94910FF6
:101390002CE83EE24AEB5DE30E94910F6093FC0172
:1013A0007093FD018093FE019093FF01EFEEF1E059
:1013B0008491EBEDF1E0E490E7ECF1E0F490FF20B4
:1013C00009F43CC081110E942B01EF2DF0E0EE0FDB
:1013D000FF1FE156FE4FA591B4918C91E82271F167
:1013E00081E00935124008F480E000ED17E020E0CC
:1013F00030E047EF51E06BEF71E00E949403811100
:1014000064C0FF24F39420E030E048EC51E4C301D1
:10141000B2010E94E41018160CF0F12C08E813E158
:1014200020E030E042EF51E066EF71E08F2D0E9446
:101430009403882309F44FC083E048C081E00E94F0
:10144000A50590E080E010910B02112309F46EC015
:10145000113019F4892B09F469C0C0900202D090B0
:101460000302E0900402F090050220E030E040E743
:1014700051E4C701B6010E948C0F87FF48C08091DC
:101480000002909101024E9780F42DEC3CEC4CE66A
:1014900051E46091060270910702809108029091D8
:1014A00009020E948C0F87FD39C21130E1F180E002
:1014B00000EE13E924E030E048EE51E06CEE71E01C
:1014C0000E949403882391F12EC082E00E94A5051A
:1014D00081E090E0B8CFFF24F39423E333E343E7C4
:1014E00051E4C501B4010E94E41018160CF0F12C6F
:1014F00000E117E220E030E04DEE51E061EF71E0F5
:101500008F2D0E949403882319F384E0DFCF1130DC
:1015100071F620E030E040E751E4C701B6010E94D7
:101520008C0F87FF03C080E00E94A50580910B020D
:1015300081116BC1C0900602D0900702E0900802B2
:10154000F090090226E636E646E651E4C701B60108
:101550000E948C0F18160CF058C12DEC3CEC4CE698
:1015600051E4C701B6010E94E4106FEF87FF16C077
:1015700026E636E646E651E4C701B6010E941F0F93
:1015800020EE3CEC4CEC5EE30E94910F20E030E05A
:101590004FE753E40E94E9100E94031080910A0271
:1015A000861708F034C1462F481B550B4A315105A8
:1015B00014F069E1680F60930A0260910202709171
:1015C000030280910402909105028E01065E1F4F76
:1015D00021E044E00E94930C809101028F9380915E
:1015E00000028F93FBA1FF932AA12F9342E851E0C1
:1015F0005F934F931F9281E18F933F922F920E94AE
:101600009211E1E08091C5028111E0E0E195F0E006
:10161000EE54FD4F848980680E946A04B10182EB18
:1016200092E00E941C056091060270910702809171
:101630000802909109028E010E5E1F4F22E045E0E4
:101640000E94930CE0910B020FB6F894DEBF0FBE20
:10165000CDBFE111E7C020910A0230E0A4E6B0E07E
:101660000E947D112FEF30E040E050E00E945B11BE
:101670003F932F933DA13F934CA14F9381E991E07C
:101680009F938F931F9281E18F933F922F920E949D
:1016900092110FB6F894DEBF0FBECDBFE091C50228
:1016A000E23008F0D4C0E150F0E0EE54FD4F848900
:1016B00080680E946A04B10182EB92E00E941C05DE
:1016C00089EA91E00E9450030E94EA0128EE33E08B
:1016D00040E050E00E945B11CA01B9014AE00E945B
:1016E0002B058CE20E946B03609102027091030251
:1016F000809104029091050241E00E94E9058CE28C
:101700000E946B03609100027091010290E080E002
:101710004AE00E942B058CE20E946B036091060256
:1017200070910702809108029091090242E00E94A4
:10173000E9058CE20E946B036091FC017091FD0150
:101740008091FE019091FF0141E00E94E9058CE249
:101750000E946B0320910A0230E0A4E6B0E00E94F0
:101760007D112FEF30E040E050E00E945B11CA0194
:10177000B9014AE00E942B058CE20E946B03E091C4
:101780000B02F0E0EE0FFF1FEC5FFE4F80819181B6
:101790000E94710561E080910B02811160E087E099
:1017A0000E945401F0900A020F2D10E061E089E0E0
:1017B0000E9482010115110509F04BC060E089E02B
:1017C0000E9454010E94EA016B017C0180910B028E
:1017D000882309F485C0C701B60128EC30E040E059
:1017E00050E00E945B11622F61708DE00E945401F5
:1017F00080E090E0892B09F4F3CC0E94CD0288238D
:1018000009F4EECC0E940000E7CC60E0C7CE681778
:1018100008F0D3CEE82FE61BFF0B7A970CF4CBCE63
:1018200067EEC8CEF0E0EE0FFF1FEC5FFE4F818148
:101830008F9380818F9340EA51E05F934F931F9283
:1018400081E18F933F922F920E94921122CFE1E08B
:101850002BCF0F3F110511F461E0B1CFE4EFF1E0C0
:10186000E491E33019F140F4E130B1F0E230C9F035
:10187000003811058CF7A2CFE73011F1E83041F1C3
:10188000E430B1F7809180008062809380001093F3
:101890008B0000938A0096CF84B5806884BDF7BC26
:1018A00091CF84B5806284BDF8BC8CCF80918000DC
:1018B000806880938000109389000093880082CF15
:1018C0008091B00080688093B000F092B3007ACF2E
:1018D0008091B00080628093B000F092B40072CF2B
:1018E00020E030E040E351E460910602709107028D
:1018F00080910802909109020E948C0F87FF07C017
:10190000C701B60128EE33E040E050E06ACF61E065
:1019100080910A02811169CF60E067CF81E01130C8
:1019200009F401CEC5CDEF920F931F93CF93DF93B0
:10193000E80134E047FD34E1042E000C550B57FF5D
:1019400003C0519541955109E32E022F242FAE017A
:101950000E94B10CCE01DF91CF911F910F91EF90BA
:101960000895A9E0B0E0E7EBFCE00C94EE0E6A010C
:10197000F22EB02E102FFBE3AF2EA01608F41BE3BF
:101980001F5F012F27E0AE014F5F5F4F0E94100ED7
:10199000BC018981982F9970913009F43FC09BE276
:1019A000E1FC04C09E2D9170E0FC3AC05E2D5071A8
:1019B000E82FE87083FF46C084E0911101C083E006
:1019C000EF2DE81B8F1508F0E0E0D6018E2F20E206
:1019D000552351F1992329F0D6019C93C601019614
:1019E0006C0196012D5F3F4FE2FE24C08EE4D601CC
:1019F0008C9391E411969C93119712968C93D90134
:101A00008E2F90E281111BC0E20FF32FF11D108287
:101A10008EEF9FEF2996ECE00C940A0F9DE2C6CF63
:101A200090E2C4CF2D9381508111FCCFCE0ED11CFA
:101A3000E0E0D0CF8EE6D6018C9391E6DBCF9D938C
:101A40008150E0CF482F447082FF3DC084E0911167
:101A500001C083E08F1510F4EF2DE81BD6018E2F07
:101A600020E2552309F1992329F0D6019C93C60160
:101A700001966C0196012D5F3F4FE2FE1BC089E489
:101A8000D6018C938EE411968C93119786E412966E
:101A90008C93D9018E2F90E2882309F4B5CF9D93C2
:101AA0008150FACF2D9381508111FCCFCE0ED11CE5
:101AB000E0E0D9CF89E6D6018C938EE611968C931F
:101AC000119786E6E4CF9B0177FF02C030E020E06B
:101AD000A1E0B0E0911102C0B0E0A0E0F9013196C0
:101AE000AE0FBF1F8B2C912CBB2009F461C0540199
:101AF000EFEFAE1ABE0AAA0DBB1DFA161B0619F0AF
:101B000014F04F2D4A1B511188C0E3FC59C07601D7
:101B1000A42FB0E2A1114FC0C40ED11C992309F427
:101B20005BC040E0D6011196F60190836D0155230C
:101B300009F448C0012F060F9A81582F507184FF75
:101B400003C0913309F4015010160CF047C009305E
:101B500008F008E0EEE2FE2E5B01A01AB108850154
:101B60009194819491082F3F320729F4D601FC9279
:101B7000F60131966F016217730794F1021713078C
:101B80007CF5DB01A21BB30BAA24A394B12CAC0EF1
:101B9000BD1EAA0DBB1D11968C9121503109D60195
:101BA000119628153905F4F0F60180836D01DBCF1D
:101BB000B12CA12CA0CFF701B1937F01A150AACFE6
:101BC0009111B0CFD601942F50E302C05D93915094
:101BD0009111FCCFC40ED11C40E0ACCF01E0BACFD4
:101BE00080E3DBCF6217730731F4963388F49533C3
:101BF00011F4552369F0F6018083FD01842F90E2F2
:101C0000811108C0A40FB11D1C9290E080E002CFAA
:101C100081E3F1CF91938150F3CF911183CF8ACF9C
:101C2000283008F027E03327DA01990F311D87FDAE
:101C3000916000966105710539F432602E5F3D9325
:101C400030E32A95E1F708959F3F30F08038710521
:101C5000610509F03C5F3C5F3D93913008F080687E
:101C6000911DDF93CF931F930F93FF92EF92192F44
:101C7000987F9695E92F96959695E90FFF27EE5355
:101C8000FF4F99273327EE24FF24A701E701059092
:101C90000894079428F4360FE71EF81E491F511DBB
:101CA000660F771F881F991F0694A1F70590079468
:101CB00028F4E70EF81E491F561FC11D770F881F15
:101CC000991F661F0694A1F70590079428F4F80E53
:101CD000491F561FC71FD11D880F991F661F771FE9
:101CE0000694A1F70590079420F4490F561FC71FCB
:101CF000D81F990F661F771F881F0694A9F7849134
:101D00001095177041F0D695C79557954795F7945C
:101D1000E7941A95C1F7E8E6F0E0689415901591FC
:101D200035916591959105907FE27395E118F10ADF
:101D3000430B560BC90BD009C0F7E10CF11E431F32
:101D4000561FC91FD01D7EF4703311F48A95E6CF5B
:101D5000E894015030F0080F0AF40027021708F445
:101D6000202F2395022F7A3328F079E37D932A954B
:101D7000E9F710C07D932A9589F6069497956795A3
:101D8000379517951794E118F10A430B560BC90BB9
:101D9000D00998F023957E9173957A3308F070E31B
:101DA0007C932013B8F77E9170617D9330F083951A
:101DB00071E37D9370E32A95E1F71124EF90FF9092
:101DC0000F911F91CF91DF91992787FD90950895ED
:101DD0002F923F924F925F926F927F928F929F923B
:101DE000AF92BF92CF92DF92EF92FF920F931F9329
:101DF000CF93DF93CDB7DEB7CA1BDB0B0FB6F894DA
:101E0000DEBF0FBECDBF09942A88398848885F8419
:101E10006E847D848C849B84AA84B984C884DF808A
:101E2000EE80FD800C811B81AA81B981CE0FD11D6E
:101E30000FB6F894DEBF0FBECDBFED010895505828
:101E4000BB27AA270E94370F0C94AA100E949C104F
:101E500038F00E94A31020F039F49F3F19F426F4C3
:101E60000C9499100EF4E095E7FB0C949310E92F75
:101E70000E94BB1058F3BA176207730784079507CF
:101E800020F079F4A6F50C94DD100EF4E0950B2EFD
:101E9000BA2FA02D0B01B90190010C01CA01A001BC
:101EA0001124FF27591B99F0593F50F4503E68F117
:101EB0001A16F040A22F232F342F4427585FF3CF58
:101EC000469537952795A795F0405395C9F77EF429
:101ED0001F16BA0B620B730B840BBAF09150A1F072
:101EE000FF0FBB1F661F771F881FC2F70EC0BA0FF8
:101EF000621F731F841F48F4879577956795B79580
:101F0000F7959E3F08F0B0CF9395880F08F099277A
:101F1000EE0F9795879508950E946F1008F481E061
:101F200008950E94A50F0C94AA100E94A31058F0C7
:101F30000E949C1040F029F45F3F29F00C9493100C
:101F400051110C94DE100C9499100E94BB1068F390
:101F50009923B1F3552391F3951B550BBB27AA2762
:101F600062177307840738F09F5F5F4F220F331F9C
:101F7000441FAA1FA9F335D00E2E3AF0E0E832D064
:101F800091505040E695001CCAF72BD0FE2F29D067
:101F9000660F771F881FBB1F261737074807AB0739
:101FA000B0E809F0BB0B802DBF01FF2793585F4FAE
:101FB0003AF09E3F510578F00C9493100C94DE108B
:101FC0005F3FE4F3983ED4F3869577956795B79590
:101FD000F7959F5FC9F7880F911D9695879597F99B
:101FE0000895E1E0660F771F881FBB1F6217730714
:101FF0008407BA0720F0621B730B840BBA0BEE1F29
:1020000088F7E09508950E94C31088F09F5798F0D4
:10201000B92F9927B751B0F0E1F0660F771F881FED
:10202000991F1AF0BA95C9F714C0B13091F00E9407
:10203000DD10B1E008950C94DD10672F782F88270C
:10204000B85F39F0B93FCCF3869577956795B3952E
:10205000D9F73EF490958095709561957F4F8F4F9D
:102060009F4F0895E89409C097FB3EF490958095A2
:10207000709561957F4F8F4F9F4F9923A9F0F92F4E
:1020800096E9BB279395F695879577956795B795CC
:10209000F111F8CFFAF4BB0F11F460FF1BC06F5FB2
:1020A0007F4F8F4F9F4F16C0882311F096E911C0C4
:1020B000772321F09EE8872F762F05C0662371F0E5
:1020C00096E8862F70E060E02AF09A95660F771FF9
:1020D000881FDAF7880F9695879597F90895990FD5
:1020E0000008550FAA0BE0E8FEEF16161706E807E2
:1020F000F907C0F012161306E407F50798F0621B03
:10210000730B840B950B39F40A2661F0232B242BD7
:10211000252B21F408950A2609F4A140A6958FEFF6
:10212000811D811D089597F99F6780E870E060E048
:1021300008959FEF80EC089500240A941616170660
:1021400018060906089500240A94121613061406A8
:1021500005060895092E0394000C11F4882352F00B
:10216000BB0F40F4BF2B11F460FF04C06F5F7F4FC3
:102170008F4F9F4F089557FD9058440F551F59F0AA
:102180005F3F71F04795880F97FB991F61F09F3F64
:1021900079F087950895121613061406551FF2CF8D
:1021A0004695F1DF08C0161617061806991FF1CFDD
:1021B00086957105610508940895E894BB27662704
:1021C0007727CB0197F908950E946F1008F48FEFDD
:1021D00008950E94FC100C94AA100E949C1038F0E4
:1021E0000E94A31020F0952311F00C9493100C94EE
:1021F000991011240C94DE100E94BB1070F3959F6F
:10220000C1F3950F50E0551F629FF001729FBB27ED
:10221000F00DB11D639FAA27F00DB11DAA1F649F89
:102220006627B00DA11D661F829F2227B00DA11D3C
:10223000621F739FB00DA11D621F839FA00D611DC2
:10224000221F749F3327A00D611D231F849F600DE3
:10225000211D822F762F6A2F11249F5750409AF00C
:10226000F1F088234AF0EE0FFF1FBB1F661F771F98
:10227000881F91505040A9F79E3F510580F00C9463
:1022800093100C94DE105F3FE4F3983ED4F38695F0
:1022900077956795B795F795E7959F5FC1F7FE2B03
:1022A000880F911D9695879597F908950E946F1054
:1022B000880B990B0895A1E21A2EAA1BBB1BFD01E6
:1022C0000DC0AA1FBB1FEE1FFF1FA217B307E40715
:1022D000F50720F0A21BB30BE40BF50B661F771F6D
:1022E000881F991F1A9469F760957095809590954D
:1022F0009B01AC01BD01CF010895A29FB001B39F26
:10230000C001A39F700D811D1124911DB29F700DFE
:10231000811D1124911D0895EE0FFF1F0590F4916A
:10232000E02D0994AEE0B0E0E8E9F1E10C94F60E9E
:102330000D891E898F89988D26E02C831A83098345
:1023400097FF02C080E090E801979E838D83AE01E5
:10235000455E5F4F698D7A8DCE0101960E94C21154
:102360004D815E8157FD0AC02F8138854217530782
:102370000CF49A01020F131FF80110822E96E4E06C
:102380000C94120FABE0B0E0E8ECF1E10C94E80E35
:102390007C013B018A01FC0117821682838181FF47
:1023A000C8C1CE0101965C01F7019381F30193FD51
:1023B000859193FF81913F01882309F453C18532B0
:1023C00039F493FD859193FF81913F01853229F482
:1023D000B70190E00E94B213E7CF912C212C312C51
:1023E000FFE1F31538F08B3211F190F4803209F1EE
:1023F000833229F137FC3CC020ED280F2A3050F5FC
:1024000036FE20C08AE0989E200D1124922E06C030
:102410008D3291F0803371F7689430F8F30193FDB9
:10242000859193FF81913F018111DACF21C068949A
:1024300031F8689432F8F2CF689433F8EFCF6894AB
:1024400034F8ECCFEAE02E9E200D1124222E689461
:1024500035F8E4CF8E3229F436FC04C1689436F89E
:10246000DDCF8C3619F4689437F8D8CF8836B1F2BE
:10247000982F9F7D95549330E0F08336A1F18337F8
:10248000C1F1833509F063C02801F2E04F0E511C01
:10249000F801C080D180692D70E036FC02C06FEF7A
:1024A0007FEFC6010E949C134C01689437F88201AB
:1024B0000AC00C5F1F4FFFE3F98388248394912C9B
:1024C0006501E89437F833FE2DC0522C8114910435
:1024D00071F5552009F468CFB70180E290E00E94C1
:1024E000B2135A94F6CFF801808189830E5F1F4F93
:1024F000E4CF2801F2E04F0E511CF801C080D180DA
:10250000692D70E036FC02C06FEF7FEFC6010E94BC
:10251000A7134C018201D5CFB70180E290E00E9461
:10252000B2132A942814190409F0B0F7CECFF6019B
:1025300037FC859137FE81916F01B70190E00E94D1
:10254000B21351105A94F1E08F1A9108BFCF84361C
:1025500019F0893609F077C0F80137FE6BC0608149
:102560007181828193810C5F1F4FF32DFF763F2E87
:1025700097FF09C090958095709561957F4F8F4F1B
:102580009F4F689437F82AE030E0A5010E94E213DB
:10259000C82ECA188C2C432C36FE0CC0E89440F888
:1025A000C91440F434FE05C032FC03C0F32DFE7E96
:1025B0004F2E892C44FE95C0FE01EC0DF11D80814B
:1025C000803309F087C0242D297E422E842D887007
:1025D000582E43FC95C040FE8FC09C2C821418F4EA
:1025E0002C0C922C981844FE91C0B70180E390E027
:1025F0000E94B21342FE09C088E790E041FE02C08B
:1026000088E590E0B7010E94B213C91408F48AC0AB
:10261000CA94D12C9FEFC91AD90ACA0CDB1CF60147
:1026200082916F01B70190E00E94B213AC14BD0417
:10263000B1F74FCF60817181072E000C880B990B89
:102640000E5F1F4F92CFD32CE894D4F82AE030E0ED
:10265000853739F1232D297FD22E8F3601F148F4A9
:102660008835A9F0F701868197812B96E2E10C94D9
:10267000040F803749F08837A9F7D4FE02C0689468
:10268000D2F820E130E00DC06894D4F8F6CF34FEE3
:1026900003C0822F8660D82E20E132E002C028E0FD
:1026A00030E0F801D7FE0FC0608171818281938193
:1026B0000C5F1F4FA5010E94E213C82ECA183D2CC3
:1026C000E89437F867CF6081718190E080E00E5F19
:1026D0001F4FF0CF42FC02C0839478CF8394839441
:1026E00075CF842D867809F471CFF6CFB70180E2DB
:1026F00090E00E94B21383948214C0F3512C73CFE4
:10270000522C5818821408F46ECFF8CF842D867896
:1027100009F47BCF8BE241FE80E247FC8DE2B701FA
:1027200090E071CFB70180E390E00E94B2139A94D9
:102730006CCF8FEF9FEF99CFFC01059061507040F7
:102740000110D8F7809590958E0F9F1F0895FC017A
:102750006150704001900110D8F7809590958E0FD0
:102760009F1F08950F931F93CF93DF93182F092F67
:10277000EB018B8181FD09C01FEF0FEF812F902F9F
:10278000DF91CF911F910F91089582FF14C02E8188
:102790003F818C819D81281739073CF4E881F981BC
:1027A000CF0101969983888310838E819F81019642
:1027B0009F838E83E3CFE885F985812F0995892B47
:1027C000A1F3DACFFA01AA27283051F1203181F1A3
:1027D000E8946F936E7F6E5F7F4F8F4F9F4FAF4F29
:1027E000B1E03ED0B4E03CD0670F781F891F9A1F3C
:1027F000A11D680F791F8A1F911DA11D6A0F711DF0
:10280000811D911DA11D20D009F468943F912AE0FB
:10281000269F11243019305D3193DEF6CF010895E3
:10282000462F4770405D4193B3E00FD0C9F7F6CF14
:10283000462F4F70405D4A3318F0495D31FD4052DC
:10284000419302D0A9F7EACFB4E0A6959795879572
:1028500077956795BA95C9F7009761057105089551
:102860009B01AC010A2E06945795479537952795FD
:10287000BA95C9F7620F731F841F951FA01D089595
:04288000F894FFCFFA
:1028840062026202AA01AE01BA01C401CA010000D7
:1028940000000303630290027003C1029F02B302AB
:1028A4000000000016056302910390030D0A006204
:1028B40072616B652072656C656173656400425278
:1028C400414B453A202573006E616E00696E6600C7
:1028D4006F76660057696E642054757262696E651E
:1028E4002043746C0057696E642074757262696E5B
:1028F4006520636F6E74726F6C6C65722076312E16
:1029040030005725736D2F732025347572706D2038
:1029140000422573562044253375252520202000A8
:1029240042524B20252D3132730052554E005354E0
:102934004F5020535749544348004F564552535023
:102944004545440053544F524D0042415454204F86
:08295400564552564F4C540049
:00000001FF
