:100000000C943F010C9467010C9467010C947F07DA
:100010000C947F070C947F070C9467010C94CB061B
:100020000C9467010C9467010C9467010C94F7071A
:100030000C9467010C9467010C9467010C946701A0
:100040000C9481060C9467010C944D070C942707BF
:100050000C9467010C9467010C9467010C94670180
:100060000C9467010C946701735D2000735D20732D
:1000700074617465202D3E2000415445300D0041CF
:10008000540D006E6F74653A206E6F20616C65725E
:10009000742070686F6E65206E756D626572207376
:1000A00065742C20534D532064697361626C6564E0
:1000B000004761732F536D6F6B65206465746563D2
:1000C000746F72207632202D204B69746368656EE0
:1000D00000726573657420726566757365643A2095
:1000E000676173206C6576656C207374696C6C2035
:1000F000686967680072657365742062792075733A
:1001000065720062757A7A6572206D757465640037
:100110006761732076616C7665206F70656E6564CB
:10012000006761732076616C766520434C4F5345C0
:100130004400534D5320736B69707065643A206EB0
:100140006F2070686F6E65206E756D6265722073CA
:1001500065740073656E736F722072656164696E99
:1001600067206261636B20746F206E6F726D616CCB
:10017000000247534D3A20534D53206E6F74206355
:100180006F6E6669726D656400534D532073656EC2
:10019000740047534D3A206E6F20273E272070721F
:1001A0006F6D70742C20534D53206661696C6564CB
:1001B0002028636865636B2053494D3930302070C7
:1001C0006F776572202F2053494D20636172642937
:1001D00000220D0041542B434D47533D2200415412
:1001E0002B434D47463D310D006F70656E00434C0B
:1001F0004F534544006F6666004F4E0020207661E5
:100200006C76653D00202066616E3D0020204D51DA
:100210002D333D0020204D512D323D00735D2000D7
:1002200000000000240027002A000000000800024F
:1002300001000003040700000000000000000000AF
:1002400000002300260029000000000025002800EF
:100250002B00040404040404040402020202020247
:10026000030303030303010204081020408001027A
:1002700004081020010204081020B30834101124CF
:100280001FBECFEFD8E0DEBFCDBF12E0A0E0B1E0EF
:10029000E2EAF7E202C005900D92AE34B107D9F759
:1002A00024E0AEE4B2E001C01D92A233B207E1F750
:1002B00011E0CEE3D1E004C02197FE010E94BF10FF
:1002C000CD33D107C9F70E948B090C94C4130C9449
:1002D0000000CF92DF92EF92FF92DC01A03282E029
:1002E000B807D4F5A53BB10514F0A4EBB0E04091FC
:1002F000300428E830E0241B310947FD3395220FF4
:10030000331F220F331F6901330FEE08FF0840919E
:10031000310428E532E0241B310947FD3395220FD3
:10032000331F220F331F032E000C440B550B2C19C7
:100330003D094E095F09B7FF02C0B0E0A0E00E948E
:100340007A1024EB30E040E050E00E945010C20EE2
:10035000D31EE41EF51ED60120912F042C3008F088
:1003600040C08091300448E850E0481B510987FDA7
:100370005395440F551F440F551FA417B50784F01C
:100380008091310448E552E0481B510987FD53959F
:10039000440F551F440F551FA417B5070CF4AD01AA
:1003A0006FB7F89430E0CA010297092E000CAA0B2F
:1003B000BB0B44E0880F991FAA1FBB1F4A95D1F7BA
:1003C00053E0B695A795979587955A95D1F7F9017A
:1003D000EE0FFF1FE20FF31FE859FC4F928381835A
:1003E0006FBFFF90EF90DF90CF900895833081F042
:1003F00028F4813099F08230A9F008958730A9F06F
:100400008830C9F08430B1F4809180008F7D03C0C2
:10041000809180008F7780938000089584B58F77D6
:1004200084BD089584B58F7DFBCF8091B0008F7718
:100430008093B00008958091B0008F7DF9CFCF9365
:10044000DF93282F30E0F901E65DFD4F8491F9013B
:10045000EA59FD4FD491F901EE5AFD4FC491CC23D6
:10046000A1F081110E94F601EC2FF0E0EE0FFF1FCA
:10047000E25CFD4FA591B491EC91ED2381E090E019
:1004800009F480E0DF91CF91089580E090E0FACF09
:100490001F93CF93DF93282F30E0F901E65DFD4FE6
:1004A0008491F901EA59FD4FD491F901EE5AFD4FBB
:1004B000C491CC23A9F0162F81110E94F601EC2FD4
:1004C000F0E0EE0FFF1FE85BFD4FA591B4918FB7F1
:1004D000F894EC91111108C0D095DE23DC938FBF06
:1004E000DF91CF911F910895DE2BF8CFCF93DF934B
:1004F00090E0FC01EA59FD4F24918E5A9D4FFC017A
:1005000084918823C9F090E0880F991FFC01E05E78
:10051000FD4FA591B491FC01E85BFD4FC591D491CD
:1005200061110DC09FB7F8948C91209582238C9314
:100530008881282328839FBFDF91CF91089562305F
:1005400051F49FB7F8943C91822F809583238C932C
:10055000E8812E2BEFCF8FB7F894EC912E2B2C93B4
:100560008FBFEACF8E3008F08E5087708064809302
:100570007C0080917A00806480937A0080917A0078
:1005800086FDFCCF809178009091790008952FB777
:10059000F8946091C7027091C8028091C90290914D
:1005A000CA022FBF08959091000189130BC0E1E7A3
:1005B000F1E0E4919FEF90930001E13049F028F0E1
:1005C000E23061F060E00C94480210926E00FACFC5
:1005D00090916F009D7F90936F00F4CF9091700089
:1005E0009D7F9093700091E09093B0009091B10046
:1005F000987F94609093B1001092B300E3CFEF9294
:10060000FF920F931F93CF93DF938C017B01D0E078
:10061000C0E0F701EC0FFD1F6491662361F0D80183
:10062000ED91FC910190F081E02DC8010995892B95
:1006300011F02196EECFCE01DF91CF911F910F9156
:10064000FF90EF900895AF92BF92CF92DF92EF921A
:10065000FF920F931F93CF93DF936C017B018B016C
:10066000040F151FEB015E01AE18BF08C017D107BC
:1006700059F06991D601ED91FC910190F081E02D46
:10068000C6010995892B79F7C501DF91CF911F919B
:100690000F91FF90EF90DF90CF90BF90AF900895B3
:1006A000FC01538D448D252F30E0842F90E0821B78
:1006B000930B541710F0CF96089501970895FC01FD
:1006C000918D828D981761F0A28DAE0FBF2FB11D55
:1006D0005D968C91928D9F5F9F73928F90E00895AD
:1006E0008FEF9FEF0895FC01918D828D981731F067
:1006F000828DE80FF11D858D90E008958FEF9FEFBB
:100700000895FC01918D228D892F90E0805C9F4F90
:10071000821B91098F73992708958BEC92E00E94B8
:10072000810321E0892B09F420E0822F089580E0E5
:1007300090E0892B29F00E948D0381110C94000018
:100740000895FC01A48DA80FB92FB11DA35ABF4F66
:100750002C91848D90E001968F739927848FA689C0
:10076000B7892C93A089B1898C91837080648C9314
:10077000938D848D981306C00288F389E02D8081C3
:100780008F7D80830895EF92FF920F931F93CF93F5
:10079000DF93EC0181E0888F9B8D8C8D98131AC0BC
:1007A000E889F989808185FF15C09FB7F894EE89A3
:1007B000FF896083E889F989808183708064808300
:1007C0009FBF81E090E0DF91CF911F910F91FF904B
:1007D000EF900895F62E0B8D10E00F5F1F4F0F73F3
:1007E0001127E02E8C8D8E110CC00FB607FCFACFAE
:1007F000E889F989808185FFF5CFCE010E94A103A8
:10080000F1CFEB8DEC0FFD2FF11DE35AFF4FF0827E
:100810009FB7F8940B8FEA89FB8980818062CFCFE4
:10082000CF93DF93EC01888D8823B9F0AA89BB8927
:10083000E889F9898C9185FD03C0808186FD0DC012
:100840000FB607FCF7CF8C9185FFF2CF808185FF33
:10085000EDCFCE010E94A103E9CFDF91CF910895A2
:1008600020919102309192022817390771F49091EA
:100870008F0280919002981741F0E0918F02F0E092
:10088000E15BFD4F808190E008958FEF9FEF089529
:100890000895EF92FF920F931F93CF93DF93DC01A4
:1008A0005C96ED90FC905D97E114F10479F481E0A1
:1008B00090E013969C938E93129790E080E0DF91E6
:1008C000CF911F910F91FF90EF9008955196ED9168
:1008D000FC91529750968C915097982F90950FB706
:1008E0005E962C915E97122F127021FD6095F89400
:1008F0002081112319F1282B2083E7012197F1F79B
:1009000028E0462F50E0308160FF1AC0382B30833A
:10091000E7012197F1F7BA0175956795215089F79D
:10092000112381F08081892380830FBF5C968D9194
:100930009C910197F1F781E090E0C1CF2923DCCFB2
:100940003923E5CF9081892BEFCF2091910230910F
:1009500092022817390761F48091900220918F024A
:1009600090E0805C9F4F821B91098F7399270895B7
:1009700090E080E008952091910230919202281732
:100980003907B9F490918F0280919002981789F0FD
:10099000E0918F02F0E0E15BFD4F808120918F02BA
:1009A00030E02F5F3F4F2F73332720938F0290E06B
:1009B00008958FEF9FEF089590E080E00895CF9223
:1009C000DF92EF92FF92CF93C0913201C1111AC012
:1009D000C0916801CC2349F1C0906901D0906A01AF
:1009E000E0906B01F0906C010E94C7026C197D09C8
:1009F0008E099F09C1E06838734181059105A8F40B
:100A0000C0E013C0C0903301D0903401E0903501B4
:100A1000F09036010E94C7026C197D098E099F096A
:100A2000683873418105910598F28C2FCF91FF9022
:100A3000EF90DF90CF90089520912B0130912C0101
:100A400080910401909105012817390770F481E025
:100A5000409161015091620120913A0130913B0136
:100A60004217530718F480E0089581E0089520911B
:100A70002B0130912C0180910801909109012817D8
:100A8000390760F481E04091610150916201209149
:100A90003E0130913F014217530708F080E008956E
:100AA000E091F203EF5FE093F203E230C8F4F0E08C
:100AB000EE0FFF1FE359FE4F0190F081E02D808182
:100AC000882371F385E080938D030E94C7026093B1
:100AD000F3037093F4038093F5039093F603089562
:100AE00080E0F1CFFB0101900020E9F73197AF01E1
:100AF000461B570BDC01ED91FC910280F381E02D48
:100B000009948F929F92AF92BF920F931F93CF93AE
:100B1000DF93CDB7DEB7A1970FB6F894DEBF0FBE57
:100B2000CDBF19A2423008F44AE08E010F5D1F4F7D
:100B3000842E912CB12CA12CA50194010E9482102D
:100B4000E62FB901CA01EA3004F5E05DD801EE9361
:100B50008D01232B242B252B79F790E080E0109733
:100B600029F0BD018BEC92E00E947205A1960FB6B0
:100B7000F894DEBF0FBECDBFDF91CF911F910F91D3
:100B8000BF90AF909F908F900895E95CDFCFCF9397
:100B9000DF93EC016BE58BEC92E00E94C3030E94B3
:100BA000C70228EE33E040E050E00E948210CA0104
:100BB000B9014AE00E94810568E670E08BEC92E0A2
:100BC0000E94FF02BE018BEC92E00E94FF0261EAEC
:100BD00071E08BEC92E0DF91CF910C947205CF9392
:100BE000C82F8093BD020E94C7026093A202709337
:100BF000A3028093A4029093A5026BE58BEC92E094
:100C00000E94C3030E94C70228EE33E040E050E098
:100C10000E948210CA01B9014AE00E9481056CE677
:100C200070E08BEC92E00E94FF02EC2FF0E0EE0F00
:100C3000FF1FEF58FE4F608171816115710521F032
:100C40008BEC92E00E94720561EA71E08BEC92E01D
:100C5000CF910C947205CF93DF93CDB7DEB7C45616
:100C6000D1090FB6F894DEBF0FBECDBFE091A1024F
:100C700026E3E29FF0011124EF5FFE4F23A52F939F
:100C800022A52F9321812F9320812F939F938F93C0
:100C900084EA91E09F938F938CEA91E09F938F93E6
:100CA0001F9284E68F93CE0101969F938F930E94AB
:100CB000DF1082E391E00E94C7050E94C7026093A3
:100CC0009D0270939E0280939F029093A0020FB6A4
:100CD000F894DEBF0FBECDBFCC59DF4F0FB6F894EE
:100CE000DEBF0FBECDBFDF91CF910895BC0187EF6E
:100CF00093E00E94C51021E0892B09F420E0822FA7
:100D000008951F920F920FB60F9211242F933F93C5
:100D10008F939F93AF93BF938091C7029091C80226
:100D2000A091C902B091CA023091C60223E0230FFC
:100D30002D3758F50196A11DB11D2093C602809351
:100D4000C7029093C802A093C902B093CA028091CF
:100D5000C2029091C302A091C402B091C502019653
:100D6000A11DB11D8093C2029093C302A093C4023F
:100D7000B093C502BF91AF919F918F913F912F91F9
:100D80000F900FBE0F901F90189526E8230F029624
:100D9000A11DB11DD2CF1F920F920FB60F92112439
:100DA0002F933F934F935F936F937F938F939F9373
:100DB000AF93BF93EF93FF938091AB029091AC02FE
:100DC000A091AD02B091AE02892B8A2B8B2BD1F171
:100DD0009091A602E091A702F091A8028081892754
:100DE00080838091AB029091AC02A091AD02B09152
:100DF000AE02181619061A061B069CF48091AB0267
:100E00009091AC02A091AD02B091AE020197A10900
:100E1000B1098093AB029093AC02A093AD02B09362
:100E2000AE02FF91EF91BF91AF919F918F917F9112
:100E30006F915F914F913F912F910F900FBE0F9047
:100E40001F901895809100010E94D302EACF1F9253
:100E50000F920FB60F9211242F933F934F935F93EE
:100E60006F937F938F939F93AF93BF93EF93FF9372
:100E70008BEC92E00E94A103FF91EF91BF91AF91A3
:100E80009F918F917F916F915F914F913F912F91A2
:100E90000F900FBE0F901F9018951F920F920FB6D4
:100EA0000F9211242F938F939F93EF93FF93E091D1
:100EB000DB02F091DC028081E091E102F091E2023C
:100EC00082FD1BC090818091E4028F5F8F7320911F
:100ED000E502821741F0E091E402F0E0E553FD4FB6
:100EE000958F8093E402FF91EF919F918F912F91C5
:100EF0000F900FBE0F901F9018958081F4CF1F9216
:100F00000F920FB60F9211242F933F934F935F933D
:100F10006F937F938F939F93AF93BF93EF93FF93C1
:100F2000E0919102F0919202309749F0A685B78541
:100F30008585968D91FF14C09C918923A1F4FF9122
:100F4000EF91BF91AF919F918F917F916F915F9141
:100F50004F913F912F910F900FBE0F901F901895BA
:100F60009C91892361F7A389B4899C918589809597
:100F700089238C93868997890197F1F7608D718D0C
:100F8000A685B785558538E020E0CB010197F1F7BC
:100F9000822F90E095958795282F4C91452309F055
:100FA0002068315091F7868D81FD209580919002C7
:100FB00090E001968F73992730918F02381799F03E
:100FC000A0919002B0E0A15BBD4F2C938093900262
:100FD000828D938D0197F1F7A389B4898C919589BE
:100FE000892B8C93ACCF868D8160868FF1CF1F9239
:100FF0000F920FB60F9211242F933F934F935F934D
:101000006F937F938F939F93AF93BF93CF93DF9310
:10101000EF93FF9380914E02C0918C03D0E087FF45
:1010200024C0109285001092840080914E028F5F40
:1010300080934E0280914E02082E000C990B8C1763
:101040009D0724F480914E028C30C4F1809184007D
:1010500090918500049680349C4908F47AC0809170
:10106000840090918500049676C080914E02082EEF
:10107000000C990B8C179D07C4F6E0914E028E2F41
:10108000EE0F990BFC01EE0FFF1FE80FF91FE85957
:10109000FC4F808186FFC9CFE0914E028E2FEE0F6C
:1010A000990BFC01EE0FFF1FE80FF91FE859FC4FE9
:1010B000808160E08F730E944802B7CF2091840046
:1010C00030918500E0914E028E2FEE0F990BFC01BE
:1010D000EE0FFF1FE80FF91FE859FC4F8181928145
:1010E000820F931F9093890080938800E0914E02B5
:1010F0008E2FEE0F990BFC01EE0FFF1FE80FF91F6B
:10110000E859FC4F808186FF11C0E0914E028E2F7E
:10111000EE0F990BFC01EE0FFF1FE80FF91FE859C6
:10112000FC4F808161E08F730E944802FF91EF9134
:10113000DF91CF91BF91AF919F918F917F916F91EF
:101140005F914F913F912F910F900FBE0F901F9085
:10115000189580E49CE990938900809388008FEF34
:1011600080934E02E3CF1092CE021092CD0288EE11
:1011700093E0A0E0B0E08093CF029093D002A093E0
:10118000D102B093D20281E891E09093CC02809397
:10119000CB0285EC90E09093D8028093D70284EC48
:1011A00090E09093DA028093D90280EC90E09093E3
:1011B000DC028093DB0281EC90E09093DE0280936E
:1011C000DD0282EC90E09093E0028093DF0286ECF7
:1011D00090E09093E2028093E1021092E402109278
:1011E000E5021092E6021092E70280918C038C30A7
:1011F00008F08DC091E0980F90938C0380932F049A
:1012000090E0FC01EE0FFF1FE80FF91FE859FC4FBB
:1012100088EB9BE092838183109213041092120456
:1012200088EE93E0A0E0B0E080931404909315045E
:10123000A0931604B093170483E991E090931104EE
:10124000809310041092270410922604109229040F
:101250001092280410922B0410922A0410922D044C
:1012600010922C0460912E046E7F6D7F60932E048B
:101270006695617081E068278BE00E94480261E01A
:101280008BE00E947602E1E7F2E0E491E093200433
:10129000EDE5F2E0E491F0E0EE0FFF1FE85BFD4FBB
:1012A00085919491909322048093210460E08AE0D8
:1012B0000E94760280912E0481FD04C061E08AE0E4
:1012C0000E9448028AE080931C04E0E7F2E0E49187
:1012D000E0931D04ECE5F2E0E491F0E0EE0FFF1F77
:1012E000E25CFD4F8591949190931F0480931E04BE
:1012F00010928D031092F2031092F3031092F403F4
:101300001092F5031092F60310920F0408958FEFD8
:1013100080932F0481CF789484B5826084BD84B596
:10132000816084BD85B5826085BD85B5816085BDE0
:1013300080916E00816080936E0010928100809198
:101340008100826080938100809181008160809320
:101350008100809180008160809380008091B10045
:1013600084608093B1008091B00081608093B00070
:1013700080917A00846080937A0080917A00826004
:1013800080937A0080917A00816080937A008091C6
:101390007A00806880937A001092C10014BE0FB664
:1013A000F894A89580916000886180936000109205
:1013B00060000FBE61E088E00E94760261E089E093
:1013C0000E94760261E08CE00E94760261E08DE08E
:1013D0000E94760262E083E00E94760260E088E08C
:1013E0000E944802E091DB02F091DC0282E08083FF
:1013F000E091D702F091D8021082E091D902F091E9
:10140000DA028FEC80831092E302E091DF02F09128
:10141000E00286E08083E091DD02F091DE028081CF
:1014200080618083E091DD02F091DE02808188603E
:101430008083E091DD02F091DE028081806880830C
:10144000E091DD02F091DE0280818F7D8083109239
:101450002B0410922A04109229041092280410924E
:101460002704109226048DE991E090932D04809337
:101470002C0490911C04963108F047C02DEB30E00D
:1014800030932704209326042BE931E0309329047C
:10149000209328042CE231E030932B0420932A047B
:1014A0002091680084E0983048F031E09E3008F4E4
:1014B00030E081E001C0880F3A95EAF7822B8093F3
:1014C00068002DE630E0983050F02BE630E09E309A
:1014D00030F02CE630E0963110F030E020E0309330
:1014E000240420932304292F30E0983008F0C2C14F
:1014F00081E001C0880F9A95EAF7809325048091D6
:101500002C0490912D040197F1F780912A04909179
:101510002B04892B49F1E0919102F091920224E091
:10152000E031F20709F1309739F0A389B4899C9131
:101530008589809589238C9380912E048E7F80935A
:101540002E041092900210928F0280E194E090930A
:10155000920280939102E0912304F091240480810F
:1015600090912504892B808380912F048C3008F082
:1015700051C061E086E00E94760280912F04282FFE
:1015800030E0F901EE0FFF1FE20FF31FE859FC4FA7
:101590009081907C96609083109230041092310478
:1015A0002CE0622F0E94B310829FB001112430E022
:1015B00020E0AB01420F531FFA01EE0FFF1FE40FB3
:1015C000F51FE859FC4F908196FD16C02F5F3F4FE5
:1015D0002C30310571F781110FC01092800082E02C
:1015E000809381001092850010928400B19A8091BE
:1015F0006F00826080936F00E0912F048E2F90E047
:10160000FC01EE0FFF1FE80FF91FE859FC4F808126
:101610008064808390E080E00E94690181EB90E02B
:101620000E94C70583E890E00E94C7056FE770E05D
:1016300080E194E00E94FF0269E770E080E194E0BD
:101640000E94FF02809103010E94B202EAE0F1E0F1
:101650002AE231E0819391932E173F07D9F79093B7
:101660002C0180932B01809139010E94B202E0E4A9
:10167000F1E020E631E0819391932E173F07D9F7EF
:10168000909362018093610180E00E94EF0588E100
:1016900098E20FB6F894A895809360000FBE9093DF
:1016A000600088248A94982C5401DD24D394A89552
:1016B0004090930250909402609095027090960230
:1016C0000E94C7026419750986099709623371057A
:1016D0008105910508F472C00E94C70260939302CD
:1016E000709394028093950290939602C1E0D1E0AA
:1016F00010E000E0BBE1CB2E8A810E94B20229A556
:10170000C09EF001C19EF00D1124E20FF11DEE0FFD
:10171000FF1FEF5FFE4F928781872F5F2F7029A7F2
:1017200030E020E0412C512C3201F901EE0FFF1F77
:10173000EC0FFD1F41855285440E551E611C711C26
:101740002F5F3F4F2031310581F764E07694679435
:10175000579447946A95D1F772015BA64AA64497BD
:1017600077247394843E23E0920708F4712C843E1E
:10177000934048F089A9811106C00E94C7026AAB54
:101780007BAB8CAB9DAB79AA8D819E8177247394C2
:10179000E816F90608F4712CE816F90648F08CA54D
:1017A000811106C00E94C7026DA77EA78FA798ABC4
:1017B0007CA6E6960130110509F069C083E00E941D
:1017C0001F02EC0111E0892B09F010E080919C02CE
:1017D000181761F010939C020E94C7026093980250
:1017E0007093990280939A0290939B028091970242
:1017F000181769F10091BD0240909802509099022B
:1018000060909A0270909B020E94C7026419750949
:10181000860997096233710581059105C0F010931F
:101820009702CD2BA1F40330A9F50E94C7026052A4
:101830007C468B4F9F4F6093B8027093B9028093A0
:10184000BA029093BB0283E091E00E94C705C09169
:10185000BD02CC2309F4F5C0C530A1F10E94DF041C
:101860008823C9F185E00E94EF0582E391E00E94A0
:10187000C7057EC09E3040F42850310981E001C088
:10188000880F2A95EAF739CE2E503109F7CF01E0BB
:1018900010E032CF8091BC028823C9F20E94370544
:1018A000882369F01092BC0290E080E00E946901F8
:1018B00080E191E00E94C70585EF90E0C6CF81ED01
:1018C00090E0C3CF0E94DF04811152C083E591E014
:1018D0000E94C705CAC0C33009F4DCC008F045C087
:1018E000C13008F445C080912D0181118FC08091D5
:1018F0006301882309F4A3C04090640150906501FE
:1019000060906601709067010E94C70264197509B2
:1019100086099709603D77408105910508F48FC0DD
:1019200081E08093A10283E00E94EF058091BC02D8
:1019300081110AC0D092BC028AE590E00E94690140
:1019400081E291E00E94C7051092B8021092B9029C
:101950001092BA021092BB028091A10281116CC058
:1019600081EE91E00E942B0603C0C43009F4BBCF86
:101970000E94C7022B013C0124EF31E040E050E01F
:101980000E948210122F1170D091BD028091B80276
:101990009091B902A091BA02B091BB020097A10543
:1019A000B10551F084199509A609B70901E0181687
:1019B00019061A061B060CF000E061E08DEF8D0F92
:1019C000823008F060E088E00E944802612FD33046
:1019D00029F06091BC02D23009F461E08DE00E94F0
:1019E0004802612FDD2321F061E0D53009F460E089
:1019F0008CE00E944802C091B702D33009F067C062
:101A0000011174C0112309F471C0ADC040902E01C2
:101A100050902F0160903001709031010E94C702F8
:101A20006419750986099709603D7740810591051C
:101A300008F45DCF80E075CF8BEE91E093CFC4309A
:101A4000C1F44090A2025090A3026090A402709052
:101A5000A5020E94C70264197509860997096036B4
:101A60007A4E8105910508F483CF81E00E94EF054D
:101A70007FCFC13039F40E941C05882309F478CF48
:101A800082E0F4CFC23009F073CF0E941C058111AF
:101A90006FCFEBCF0E943705882311F084E0E3CEAF
:101AA00040909D0250909E0260909F027090A00214
:101AB0000E94C7026419750986099709603C77423C
:101AC0008940910508F454CF8AEF91E04BCFD23092
:101AD00091F5C301B20128E833E140E050E00E94F3
:101AE00082106837710581059105E8F1CC2321F05A
:101AF00089E00E94D302C0E0C093B70280E194E085
:101B00000E94A504892B09F422C180E194E00E947F
:101B1000BB04E0910F04E73188F791E09E0F9093AA
:101B20000F04F0E0E950FC4F8083E92FF0E0E9502A
:101B3000FC4F1082E3CFD530C9F6C301B20120E1DA
:101B400037E240E050E00E94821064367105810562
:101B5000910548F06B5F7109810991096336710540
:101B60008105910518F6CC2311F0C1E0C5CFD33023
:101B700089F5C4ECD9E080910001E1E7F1E089301A
:101B800061F5149117FDF1CF61E089E00E947602C2
:101B9000111139C09E0150E040E068E478EE81E028
:101BA00090E00E948210215031094109510985B508
:101BB000887F836085BD27BD8092B3029092B40276
:101BC000A092B502B092B60280916E0082608093BE
:101BD0006E00CBCFC8E0D7E0CECF8F3F31F689E0A3
:101BE0008093000114911F3F09F4BFCF113009F415
:101BF00049C078F1123009F463C017FDB6CF61E037
:101C000089E00E9476029E0150E040E0123009F027
:101C100079C060E970ED83E090E00E94821021506D
:101C20003109410951098091B100887F8360809317
:101C3000B1002093B3008092AB029092AC02A092CC
:101C4000AD02B092AE02809170008260809370000D
:101C50008CCF14BC15BC84B5826084BD85B5816011
:101C600085BDEBE5F2E0E491F0E0EE0FFF1FE85BED
:101C7000FD4F85919491EFE6F2E0E491E093AA02A2
:101C800010E082CF1092800010928100809181003C
:101C900088608093810080918100816080938100C1
:101CA000EBE5F2E0E491F0E0EE0FFF1FE85BFD4FA3
:101CB00085919491EFE6F2E0E491E093A90264CF7C
:101CC0001092B0001092B1008091B00082608093B9
:101CD000B0008091B10081608093B100EBE5F2E04B
:101CE000E491F0E0EE0FFF1FE85BFD4F85919491CA
:101CF0009093A8028093A702EFE6F2E0E491E093CC
:101D0000A60242CF60E072E18AE790E00E94821072
:101D10002150310941095109113009F09FC18091C9
:101D20008100887F816080938100309389002093B7
:101D300088008092AF029092B002A092B102B0925D
:101D4000B20280916F00826080936F000ECF80910D
:101D50008D03833009F426C108F0A2C0813009F454
:101D6000BCC0823009F4E1C04090BE025090BF0276
:101D70006090C0027090C1020E94C7026419750988
:101D800086099709683873418105910508F47BC07D
:101D90000E94C7026093BE027093BF028093C0028C
:101DA0009093C1026BE58BEC92E00E94C3030E940A
:101DB000C70228EE33E040E050E00E948210CA01E2
:101DC000B9014AE00E9481056CE172E08BEC92E07F
:101DD0000E94FF02E091BD02F0E0EE0FFF1FEF58FE
:101DE000FE4F608171816115710521F08BEC92E0ED
:101DF0000E94720564E172E08BEC92E00E94FF02A7
:101E000060912B0170912C0190E080E04AE00E94EB
:101E100081056CE072E08BEC92E00E94FF02609121
:101E200061017091620190E080E04AE00E948105CA
:101E300065E072E08BEC92E00E94FF0288E00E9475
:101E40001F0269EF71E0892B11F465EF71E08BECF3
:101E500092E00E94FF026CEF71E08BEC92E00E9436
:101E6000FF028091BC026EEE71E0811102C069EE4A
:101E700071E08BEC92E00E94FF0261EA71E08BEC72
:101E800092E00E94720580E090E0892B09F40FCC6B
:101E90000E948D03882309F408CC0E94000005CC21
:101EA000843009F4AFC0853009F05ECF4090F30371
:101EB0005090F4036090F5037090F6030E94C702FF
:101EC0006419750986099709683B7B40810591056E
:101ED00008F44ACFD0928D0347CFE091F203F0E0AF
:101EE000EE0FFF1FE359FE4F0190F081E02D80813E
:101EF000811103C00E94500537CF10920F04109239
:101F0000F7036EED71E080E194E00E94FF0282E051
:101F100080938D030E94C7026093F3037093F403D0
:101F20008093F5039093F6031FCF84E092E00E9424
:101F300076068823F1F010920F041092F70364EDF7
:101F400071E080E194E00E94FF02E091F203F0E092
:101F5000EE0FFF1FE359FE4F60817181611571051E
:101F6000E1F461ED71E080E194E00E94FF0283E022
:101F7000CFCF4090F3035090F4036090F50370903E
:101F8000F6030E94C7026419750986099709683E1D
:101F900073408105910578F6E7CE80E194E00E94D8
:101FA0007205DFCF87E092E00E947606882389F0F1
:101FB00010920F041092F7036EE873E080E194E052
:101FC0000E9472056AE180E194E00E94490484E085
:101FD0009FCF4090F3035090F4036090F50370900E
:101FE000F6030E94C70264197509860997096838C3
:101FF00073418105910508F4B7CE82E991E00E9412
:10200000C70578CF89E092E00E94760681110FC063
:1020100084E092E00E947606811109C08FE092E090
:102020000E947606882331F082E791E0E8CF89E8C4
:1020300091E0E5CF4090F3035090F4036090F503F6
:102040007090F6030E94C702641975098609970902
:1020500068397A438105910538F786CE123009F444
:10206000E8CD111182CDA7CD83E991E090931104C1
:10207000809310048091910290919202805194403B
:1020800071F4E0912304F09124049081809125045F
:102090008095892380831092920210929102089574
:1020A000052E97FB1EF400940E94671057FD07D081
:1020B0000E94821007FC03D04EF40C9467105095D8
:1020C0004095309521953F4F4F4F5F4F0895909524
:1020D0008095709561957F4F8F4F9F4F08950E9417
:1020E000A410A59F900DB49F900DA49F800D911DED
:1020F00011240895B7FF0C946F100E946F10821B7B
:10210000930B0895A1E21A2EAA1BBB1BFD010DC063
:10211000AA1FBB1FEE1FFF1FA217B307E407F50797
:1021200020F0A21BB30BE40BF50B661F771F881F73
:10213000991F1A9469F760957095809590959B0109
:10214000AC01BD01CF010895A29FB001B39FC001B2
:10215000A39F700D811D1124911DB29F700D811DD3
:102160001124911D0895991B79E004C0991F9617B9
:1021700008F0961B881F7A95C9F780950895EE0F91
:10218000FF1F0590F491E02D0994FB015191552317
:10219000A9F0BF01DC014D9145174111E1F759F458
:1021A000CD010190002049F04D9140154111C9F336
:1021B000FB014111EFCF81E090E001970895AEE07F
:1021C000B0E0E5EEF0E10C949B130D891E898F8938
:1021D000988D26E02C831A83098397FF02C080E044
:1021E00090E801979E838D83AE01455E5F4F698DB8
:1021F0007A8DCE0101960E940F114D815E8157FDAF
:102200000AC02F813885421753070CF49A01020F38
:10221000131FF80110822E96E4E00C94B713ABE084
:10222000B0E0E5E1F1E10C948D137C013B018A0102
:10223000FC0117821682838181FFC8C1CE010196FD
:102240005C01F7019381F30193FD859193FF8191E7
:102250003F01882309F453C1853239F493FD8591F8
:1022600093FF81913F01853229F4B70190E00E94EC
:10227000FF12E7CF912C212C312CFFE1F31538F020
:102280008B3211F190F4803209F1833229F137FC5D
:102290003CC020ED280F2A3050F536FE20C08AE0E1
:1022A000989E200D1124922E06C08D3291F080331D
:1022B00071F7689430F8F30193FD859193FF819154
:1022C0003F018111DACF21C0689431F8689432F867
:1022D000F2CF689433F8EFCF689434F8ECCFEAE0AB
:1022E0002E9E200D1124222E689435F8E4CF8E32D4
:1022F00029F436FC04C1689436F8DDCF8C3619F425
:10230000689437F8D8CF8836B1F2982F9F7D9554CE
:102310009330E0F08336A1F18337C1F1833509F0C2
:1023200063C02801F2E04F0E511CF801C080D1803B
:10233000692D70E036FC02C06FEF7FEFC6010E948E
:10234000E9124C01689437F882010AC00C5F1F4FF4
:10235000FFE3F98388248394912C6501E89437F88E
:1023600033FE2DC0522C8114910471F5552009F4CF
:1023700068CFB70180E290E00E94FF125A94F6CF36
:10238000F801808189830E5F1F4FE4CF2801F2E0BE
:102390004F0E511CF801C080D180692D70E036FCD1
:1023A00002C06FEF7FEFC6010E94F4124C01820160
:1023B000D5CFB70180E290E00E94FF122A94281442
:1023C000190409F0B0F7CECFF60137FC859137FE3E
:1023D00081916F01B70190E00E94FF1251105A9451
:1023E000F1E08F1A9108BFCF843619F0893609F0D1
:1023F00077C0F80137FE6BC0608171818281938163
:102400000C5F1F4FF32DFF763F2E97FF09C090956D
:102410008095709561957F4F8F4F9F4F689437F8E7
:102420002AE030E0A5010E942F13C82ECA188C2C78
:10243000432C36FE0CC0E89440F8C91440F434FE36
:1024400005C032FC03C0F32DFE7E4F2E892C44FEC6
:1024500095C0FE01EC0DF11D8081803309F087C02D
:10246000242D297E422E842D8870582E43FC95C041
:1024700040FE8FC09C2C821418F42C0C922C9818BF
:1024800044FE91C0B70180E390E00E94FF1242FE3B
:1024900009C088E790E041FE02C088E590E0B701FE
:1024A0000E94FF12C91408F48AC0CA94D12C9FEF6D
:1024B000C91AD90ACA0CDB1CF60182916F01B70157
:1024C00090E00E94FF12AC14BD04B1F74FCF6081C1
:1024D0007181072E000C880B990B0E5F1F4F92CF56
:1024E000D32CE894D4F82AE030E0853739F1232D55
:1024F000297FD22E8F3601F148F48835A9F0F701F3
:10250000868197812B96E2E10C94A913803749F0DC
:102510008837A9F7D4FE02C06894D2F820E130E0F1
:102520000DC06894D4F8F6CF34FE03C0822F8660C5
:10253000D82E20E132E002C028E030E0F801D7FEDA
:102540000FC060817181828193810C5F1F4FA50153
:102550000E942F13C82ECA183D2CE89437F867CF75
:102560006081718190E080E00E5F1F4FF0CF42FCF0
:1025700002C0839478CF8394839475CF842D86781A
:1025800009F471CFF6CFB70180E290E00E94FF120C
:1025900083948214C0F3512C73CF522C5818821498
:1025A00008F46ECFF8CF842D867809F47BCF8BE2C8
:1025B00041FE80E247FC8DE2B70190E071CFB701A8
:1025C00080E390E00E94FF129A946CCF8FEF9FEF10
:1025D00099CFFC010590615070400110D8F78095AB
:1025E00090958E0F9F1F0895FC01615070400190DF
:1025F0000110D8F7809590958E0F9F1F08950F9327
:102600001F93CF93DF93182F092FEB018B8181FD4F
:1026100009C01FEF0FEF812F902FDF91CF911F91F6
:102620000F91089582FF14C02E813F818C819D817E
:10263000281739073CF4E881F981CF010196998385
:10264000888310838E819F8101969F838E83E3CF41
:10265000E885F985812F0995892BA1F3DACFFA0155
:10266000AA27283051F1203181F1E8946F936E7FD1
:102670006E5F7F4F8F4F9F4FAF4FB1E03ED0B4E0C2
:102680003CD0670F781F891F9A1FA11D680F791F03
:102690008A1F911DA11D6A0F711D811D911DA11D14
:1026A00020D009F468943F912AE0269F1124301924
:1026B000305D3193DEF6CF010895462F4770405DBF
:1026C0004193B3E00FD0C9F7F6CF462F4F70405D6E
:1026D0004A3318F0495D31FD4052419302D0A9F7C9
:1026E000EACFB4E0A6959795879577956795BA95C3
:1026F000C9F700976105710508959B01AC010A2E89
:1027000006945795479537952795BA95C9F7620F5F
:10271000731F841F951FA01D08952F923F924F9203
:102720005F926F927F928F929F92AF92BF92CF9261
:10273000DF92EF92FF920F931F93CF93DF93CDB76A
:10274000DEB7CA1BDB0B0FB6F894DEBF0FBECDBFE2
:1027500009942A88398848885F846E847D848C84B3
:102760009B84AA84B984C884DF80EE80FD800C81BC
:102770001B81AA81B981CE0FD11D0FB6F894DEBF9F
:102780000FBECDBFED01089511E0CEE3D1E004C04E
:10279000FE010E94BF102196CF33D107C9F7F894EC
:0227A000FFCF69
:1027A200FF15020EFA009001400100000000000037
:1027B2000000000000000000000000000000000017
:1027C2000000000000000000000000000000000007
:1027D200000000000000001A020F2C01C201720169
:1027E20000000000000000000000000000000000E7
:1027F20000000000000000000000000000000000D7
:1028020000000000000000000000000000A301A37F
:10281200011F0226022D0235023B02410200000086
:1028220000C30323035003100481035F03730300F7
:1028320000000049042303DC044804A504BB04305F
:10284200040D0A004B69746368656E00414C455281
:10285200542025733A20257320646574656374657A
:1028620064202825733D2575292E2056616C7665D6
:1028720020636C6F7365642C2066616E206F6E2E10
:10288200004761732F736D6F6B6500416C636F68F6
:102892006F6C2F7661706F7572004761732073746D
:1028A200696C6C004F4B003E002B434D4753004573
:1028B20052524F52004D512D32004D512D3300577F
:1028C20041524D5550004E4F524D414C00574152CE
:1028D2004E494E4700414C41524D005055524745DA
:0E28E2000053454E534F52204641554C540072
:00000001FF
