:100000000C9427010C944F010C944F010C944F0158
:100010000C944F010C944F010C944F010C944F0120
:100020000C944F010C944F010C944F010C944F0110
:100030000C944F010C944F010C944F010C944F0100
:100040000C9422050C944F010C9492050C946C05B1
:100050000C944F010C944F010C944F010C944F01E0
:100060000C944F010C944F01735D200020743D00EF
:100070005B530020666F7220004641554C54204C63
:100080004154434845443A200053504C4954004F92
:1000900050504F53494E4700207068617365732C70
:1000A00020706C616E3D00504F5745522D4F4E00F1
:1000B00052455345542D50494E0042524F574E2DF4
:1000C0004F5554005741544348444F4700547261C0
:1000D0006666696320636F6E74726F6C6C65722004
:1000E00076322E302E3020626F6F742C2072657342
:1000F00065743D0020206661756C742020202020EE
:10010000203A200053504C4954004F50504F53490F
:100110004E470020706564526571756573743D00CB
:1001200020656D657267656E63793D002020696E9C
:100130007075747320202020203A206E69676874DF
:100140003D002020706C616E202020202020203A6D
:100150002000202061726D73202020202020203A72
:10016000200020206379636C657320202020203AD2
:1001700020002D00202072656D61696E696E672018
:10018000203A200020677265656E3D00202070686F
:100190006173652020202020203A200020207374E5
:1001A0006174652020202020203A200053544154BF
:1001B000555300436F6D6D616E64733A2073203D3B
:1001C000207374617475732C2068203D2068656C01
:1001D00070202872656164206F6E6C7929007065EB
:1001E000646573747269616E20726571756573748C
:1001F0000000000000240027002A00000000002565
:100200000028002B00000000002300260029000425
:1002100004040404040404020202020202030303AD
:1002200003030301020408102040800102040810A7
:100230002001020408102000000008000201000054
:10024000030407000000000000000000760A1124EB
:100250001FBECFEFD8E0DEBFCDBF12E0A0E0B1E01F
:10026000ECE0F6E102C005900D92A038B107D9F795
:1002700023E0A0E8B2E001C01D92A837B207E1F781
:1002800011E0C7E2D1E004C02197FE010E94D50A27
:10029000C632D107C9F70E94C4050C94040B0C9414
:1002A0000000833081F028F4813099F08230A9F089
:1002B00008958730A9F08830C9F08430B1F4809176
:1002C00080008F7D03C0809180008F7780938000B5
:1002D000089584B58F7784BD089584B58F7DFBCF55
:1002E0008091B0008F778093B00008958091B00026
:1002F0008F7DF9CFCF93DF93282F30E0F901E95CB0
:10030000FD4F8491F901ED5DFD4FD491F901E15F5D
:10031000FD4FC491CC23A1F081110E945101EC2F1B
:10032000F0E0EE0FFF1FEB5FFD4FA591B491EC9154
:10033000ED2381E090E009F480E0DF91CF91089512
:1003400080E090E0FACF1F93CF93DF93282F30E027
:10035000F901E95CFD4F8491F901ED5DFD4FD49108
:10036000F901E15FFD4FC491CC23A9F0162F811153
:100370000E945101EC2FF0E0EE0FFF1FE550FE4F01
:10038000A591B4918FB7F894EC91111108C0D09554
:10039000DE23DC938FBFDF91CF911F910895DE2B79
:1003A000F8CFCF93DF9390E0FC01ED5DFD4F2491FA
:1003B000815F9D4FFC0184918823D1F090E0880FEC
:1003C000991FFC01EF50FE4FA591B491FC01E5503F
:1003D000FE4FC591D491623071F49FB7F8943C916F
:1003E000822F809583238C93E8812E2B28839FBFB7
:1003F000DF91CF9108958FB7F894EC912E2B2C9329
:100400008FBFF6CF2FB7F8946091D7027091D802C2
:100410008091D9029091DA022FBF0895AF92BF92D6
:10042000CF92DF92EF92FF920F931F93CF93DF93C0
:100430006C017B018B01040F151FEB015E01AE18EF
:10044000BF08C017D10759F06991D601ED91FC9111
:100450000190F081E02DC6010995892B79F7C5013E
:10046000DF91CF911F910F91FF90EF90DF90CF9090
:10047000BF90AF900895FC01538D448D252F30E03F
:10048000842F90E0821B930B541710F0CF960895A1
:1004900001970895FC01918D828D981761F0A28DCE
:1004A000AE0FBF2FB11D5D968C91928D9F5F9F7394
:1004B000928F90E008958FEF9FEF0895FC01918D4A
:1004C000828D981731F0828DE80FF11D858D90E0B7
:1004D00008958FEF9FEF0895FC01918D228D892F54
:1004E00090E0805C9F4F821B91098F73992708953C
:1004F0008BED92E00E946C0221E0892B09F420E050
:10050000822F089580E090E0892B29F00E947802E4
:1005100081110C9400000895FC01A48DA80FB92F3F
:10052000B11DA35ABF4F2C91848D90E001968F731B
:100530009927848FA689B7892C93A089B1898C913A
:10054000837080648C93938D848D981306C0028889
:10055000F389E02D80818F7D80830895EF92FF9253
:100560000F931F93CF93DF93EC0181E0888F9B8DD6
:100570008C8D98131AC0E889F989808185FF15C090
:100580009FB7F894EE89FF896083E889F9898081B3
:100590008370806480839FBF81E090E0DF91CF9182
:1005A0001F910F91FF90EF900895F62E0B8D10E0A4
:1005B0000F5F1F4F0F731127E02E8C8D8E110CC013
:1005C0000FB607FCFACFE889F989808185FFF5CF5E
:1005D000CE010E948C02F1CFEB8DEC0FFD2FF11DAF
:1005E000E35AFF4FF0829FB7F8940B8FEA89FB899B
:1005F00080818062CFCF682F8BED92E00C94AE02A9
:100600000F931F93CF93DF938C01D0E0C0E0F801EC
:10061000EC0FFD1F6491662341F08BED92E00E9488
:10062000AE02892B11F02196F2CFCE01DF91CF914E
:100630001F910F910895CF93DF93EC01888D88234C
:10064000B9F0AA89BB89E889F9898C9185FD03C035
:10065000808186FD0DC00FB607FCF7CF8C9185FF1A
:10066000F2CF808185FFEDCFCE010E948C02E9CFD1
:10067000DF91CF910895CF92DF92EF92FF920E9487
:100680000202C0908602D0908702E0908802F0902B
:1006900089026C197D098E099F0921E0C090B6027C
:1006A000D090B702E090B802F090B9026C157D05C9
:1006B0008E059F0508F420E0822FFF90EF90DF90D9
:1006C000CF9008950F931F93CF93DF93D0E0C0E0B6
:1006D000082F10E0C8010C2E02C0959587950A944A
:1006E000E2F780FF06C0FE01E15EFE4F80810E94BE
:1006F000FB022196C430D10569F7DF91CF911F919C
:100700000F910895CF92DF92EF92FF920F931F9374
:10071000CF938C01FC0180810E947A01C1E0892B7A
:1007200009F0C0E00E940202F80124812C1729F090
:10073000C4836583768387839087F80123812C1790
:10074000D9F0C580D680E780F0846C197D098E09C8
:100750009F09C180D280F12CE12C6C157D058E059E
:100760009F0550F0C3838C2FCF911F910F91FF9065
:10077000EF90DF90CF900895C0E0F5CFCF93DF9357
:10078000EC01862F68835A83498362E00E94D1017D
:1007900088810E947A0121E0892B09F020E02B83D7
:1007A0002C830E9402026D837E838F839887DF9162
:1007B000CF910895FC0101900020E9F73197AF0136
:1007C000481B590BBC018BED92E00C940E028F92EA
:1007D0009F92AF92BF920F931F93CF93DF93CDB7AA
:1007E000DEB7A1970FB6F894DEBF0FBECDBF19A23A
:1007F000423008F44AE08E010F5D1F4F842E912C89
:10080000B12CA12CA50194010E94B30AE62FB901D5
:10081000CA01EA30F4F4E05DD801EE938D01232B98
:10082000242B252B79F790E080E0109719F0CD016B
:100830000E94DA03A1960FB6F894DEBF0FBECDBFBB
:10084000DF91CF911F910F91BF90AF909F908F90AC
:100850000895E95CE1CF85EB91E00C94DA03CF9346
:10086000DF930E940003EC010E942B048C0F9D1F5C
:10087000DF91CF910895CF93DF93D0E0C0E0009750
:1008800019F00E94DA03EC010E942B048C0F9D1FCB
:10089000DF91CF910895BC01990F880B990B4AE025
:1008A0000C94E70380E790E00E94000380E30E943D
:1008B000FB0281E090E00E944B0480E20E94FB0278
:1008C0008091C4029091C502009711F00E94DA0352
:1008D0008CE690E00E9400030E94020228EE33E0C2
:1008E00040E050E00E94B30ACA01B9014AE00E9408
:1008F000E70388E690E00C940003CF92DF92EF923A
:10090000FF920F931F93CF93C82F8B018093D10237
:100910000E9402026093860270938702809388028D
:10092000909389026801F12CE12CA701980160EAFB
:1009300076E881E090E00E94A30A24E630E040E0FF
:1009400050E00E94B30A2093B6023093B70240935E
:10095000B8025093B9020E945204EC2FF0E0EE0F5F
:10096000FF1FEF55FE4F80819181009711F00E948B
:10097000DA03C150C23068F480E20E94FB02E091C9
:10098000C302F0E0EE0FFF1FE654FD4F80810E948E
:100990006203012B61F083E790E00E9400034AE0CC
:1009A000C701B6010E94E70383E70E94FB02CF91D3
:1009B0001F910F91FF90EF90DF90CF900C942B043C
:1009C0008091C3028F5F8093C3029091C202891706
:1009D000A8F01092C3028091B2029091B302A0914C
:1009E000B402B091B5020196A11DB11D8093B2026F
:1009F0009093B302A093B402B093B502E091C30206
:100A0000F0E0EE0FFF1FE654FD4F618170E081E0E2
:100A10000C947D0447E250E0BC018AE892E00E9419
:100A2000F50A1092B10270E060E089E00E947D0456
:100A30000E94520489E790E00E9400038AE892E055
:100A40000C943B041F920F920FB60F9211242F9318
:100A50003F938F939F93AF93BF938091D7029091D1
:100A6000D802A091D902B091DA023091D60223E0E7
:100A7000230F2D3758F50196A11DB11D2093D602E5
:100A80008093D7029093D802A093D902B093DA0250
:100A90008091D2029091D302A091D402B091D5025C
:100AA0000196A11DB11D8093D2029093D302A09311
:100AB000D402B093D502BF91AF919F918F913F9196
:100AC0002F910F900FBE0F901F90189526E8230FBF
:100AD0000296A11DB11DD2CF1F920F920FB60F9299
:100AE00011242F933F934F935F936F937F938F9333
:100AF0009F93AF93BF93EF93FF938BED92E00E9490
:100B00008C02FF91EF91BF91AF919F918F917F9157
:100B10006F915F914F913F912F910F900FBE0F906A
:100B20001F9018951F920F920FB60F9211242F93BA
:100B30008F939F93EF93FF93E091EB02F091EC0280
:100B40008081E091F102F091F20282FD1BC0908160
:100B50008091F4028F5F8F732091F502821741F02C
:100B6000E091F402F0E0E552FD4F958F8093F4029E
:100B7000FF91EF919F918F912F910F900FBE0F904A
:100B80001F9018958081F4CFCF93DF9300D000D0D1
:100B90001F92CDB7DEB7789484B5826084BD84B5EA
:100BA000816084BD85B5826085BD85B5816085BD68
:100BB00080916E00816080936E0010928100809120
:100BC00081008260809381008091810081608093A8
:100BD0008100809180008160809380008091B100CD
:100BE00084608093B1008091B00081608093B000F8
:100BF00080917A00846080937A0080917A0082608C
:100C000080937A0080917A00816080937A0080914D
:100C10007A00806880937A001092C100F4B614BE06
:100C20000FB6F894A8958091600088618093600069
:100C3000109260000FBE05E9C02E01E0D02E84E0C6
:100C4000E82E10E000E0F601E00FF11FB08061E057
:100C50008B2D0E94D10161E0011160E08B2D0E947B
:100C6000A3010F5F1F4F0330110569F7EA9423E0DA
:100C7000C20ED11CE110E5CF61E081E10E94D101FB
:100C800061E082E10E94D10160E081E10E94A30164
:100C900061E082E10E94A301E091EB02F091EC029D
:100CA00082E08083E091E702F091E8021082E09117
:100CB000E902F091EA028FEC80831092F302E09156
:100CC000EF02F091F00286E08083E091ED02F09176
:100CD000EE02808180618083E091ED02F091EE026E
:100CE000808188608083E091ED02F091EE02808146
:100CF00080688083E091ED02F091EE0280818F7D2B
:100D000080838CE0E5E3F1E0A4ECB2E001900D9289
:100D10008A95E1F7A4ECB2E0FD018481893708F0FF
:100D200088E7873008F487E08483319632E0E83C36
:100D3000F30799F790E080E020E04FE050E031E0E9
:100D4000BA01082E02C0759567950A94E2F760FF14
:100D500012C0E22FF0E014966C911497EE0FFF1F73
:100D6000E654FD4F732F082E01C0770F0A94EAF75F
:100D7000708361832F5F019611968430910501F78E
:100D80002093C2024CE251E06EE083E191E00E94C8
:100D9000BE0344E650E06FE08AE091E00E94BE03AB
:100DA00042E350E060E181E091E00E94BE030E94D6
:100DB00052048DEC90E00E94000384EC90E0F3FC80
:100DC0000AC08AEB90E0F2FC06C080EB90E0F1FCF8
:100DD00002C087EA90E00E942F040E9452046091B2
:100DE000C20270E090E080E04AE00E94E70388E9F8
:100DF00090E00E9400038091C702813009F052C048
:100E00008FE890E00E942F0465E070E080E00E948F
:100E10007D0488E19FE00FB6F894A8958093600068
:100E20000FBE9093600060901C0170901D01809037
:100E30001E0199249394A89583E191E00E94820376
:100E40008AE091E00E94820381E091E00E948203A7
:100E50008823A9F08091D1028450823080F0809163
:100E6000D00281110CC08091CE02882341F0909273
:100E7000D0020E9452048EED91E00E942F04E09176
:100E8000D102E93008F057C0F0E0E75BF84F0C946E
:100E9000D50A5507730765096F0989099809A209D9
:100EA000B209BE0989E890E0ADCF0E943B038823D8
:100EB00009F441C080910D01882331F070E060E0B9
:100EC00088E00E947D0437C080911601882321F0BC
:100ED00070E060E087E0F5CF1092C3026091BB0242
:100EE00070E081E0EECF0E9402026B017C018091F4
:100EF0000D01882329F06091CC0270E082E0E1CFFF
:100F0000209086023090870240908802509089029B
:100F10000E943B038111EFCF80911601882359F085
:100F2000C218D308E408F50848E5C4164BE1D40616
:100F3000E104F10400F70E94020224EF31E040E0F6
:100F400050E00E94B30A69017A0181E0C822DD24E1
:100F5000EE24FF2419012A012094309440945094E7
:100F6000322D317010928102909200016091C60280
:100F700070E08091C30290E01091D102E2E8F2E0CB
:100F8000FD83EC8350E040E0880F991FDC01A654FC
:100F9000BD4F232FCB01042E02C0959587950A944F
:100FA000E2F780FDEEC110824F5F5F4F3196443013
:100FB000510581F7153009F453C208F009C2143005
:100FC00009F40EC2193009F00FC269827A828B824D
:100FD000312C00E0F32DF1702F2E45E9C42E41E0B5
:100FE000D42E52E8452E52E0552E9E012F5F3F4FE2
:100FF0005901EE24E394F12CF50181915F01F20196
:101000009081892391E009F490E0291208C0F7014A
:101010003197EC0DFD1D602F80810E94A301FFEF31
:10102000EF1AFF0A24E0E216F10431F73FEF431A0A
:10103000530A43E0C40ED11C86E892E0841595055E
:10104000A1F6B09081022B1004C0602F81E10E94B4
:10105000A30180910001281204C0602F82E10E9448
:10106000A3013394932D9170392E013009F00CC2F5
:10107000193009F44AC02EE9E22E21E0F22E05E9EA
:1010800011E0F80182810E947A016C01EC81FD81FE
:10109000A190FD83EC83F80181810E947A0121E017
:1010A000019709F020E0A1FA882780F928130BC0E6
:1010B000A2FA992790F981E0CA94CD2809F080E03E
:1010C000DD24D3949813D12CF80180810E947A01F9
:1010D0002A2D217031E0019709F030E02313D6C1A9
:1010E000E016F10621F00D5F1F4FD110CACF81E14C
:1010F0000E947A0121E0019709F020E0B212C8C1F4
:10110000DD2009F4C5C1109280028BED92E00E94AF
:101110006C02892B09F4DDC18BED92E00E944A023A
:10112000982F9F7D933509F0CAC10E9452048CEA22
:1011300091E00E942F048CE991E00E940003E0916D
:10114000D102F0E0EE0FFF1FEF55FE4F808191813D
:101150000E943B048CE891E00E9400038091C3024E
:1011600090E001960E944B048FE20E94FB02609186
:10117000C20270E090E080E04AE00E94E70384E869
:1011800091E00E940003E091C302F0E0EE0FFF1F28
:10119000E654FD4F80810E9462030E942B0484E785
:1011A00091E00E940003C090B602D090B702E09098
:1011B000B802F090B902C114D104E104F10409F4B9
:1011C00076C10E940202009186021091870220914E
:1011D000880230918902DC01CB01801B910BA20BAC
:1011E000B30B8C159D05AE05BF0508F05CC1A701CA
:1011F0009601281B390B4A0B5B0BCA01B90128EE7B
:1012000033E040E050E00E94B30ACA01B9014AE06D
:101210000E94E70383E70E94FB020E942B0482E600
:1012200091E00E9400036091B2027091B30280913C
:10123000B4029091B5024AE00E94E7030E942B0499
:1012400082E591E00E9400038091C6020E94620341
:101250000E942B0482E491E00E9400038091C70267
:10126000813009F029C18AE091E00E942F048CE2CC
:1012700091E00E9400038091160190E00E944B04CF
:1012800080E291E00E94000380910D0190E00E94B5
:101290004B0483E191E00E9400036091D00270E072
:1012A00090E080E04AE00E94E7030E942B048091D6
:1012B000D102893009F029CF84EF90E00E94000329
:1012C0008AE892E00E943B0420CF0E943B038823DF
:1012D00009F431CE6091CD0270E083E0F2CD0E943E
:1012E0003B03882309F427CE80910D018111E6CDBF
:1012F000809116018111ECCD8091D002882379F183
:101300006091CE02662359F11092D00270E084E021
:10131000D8CD80910D01882329F06091CF0270E033
:1013200085E0CFCD0E943B03882309F404CEF5CF9E
:101330000E943B03882309F4FECD6091CD0270E04A
:1013400086E0BFCD0E943B03882309F4F4CD809151
:101350000D018111B3CD809116018111B9CD0E948B
:10136000E004E9CD80910D018111A8CD8091160195
:101370008111E1CD65E070E080E0A3CD80910D01A9
:10138000F7CF8C9190E0042E02C0959587950A9432
:10139000E2F781709927123081F020F4113049F082
:1013A00081E005C0173069F0822F1930C9F78083BA
:1013B000FBCD892BA9F384E0FACF892B89F382E056
:1013C000F6CF80E0C114D104E104F10481F7F7CF36
:1013D000173019F0193009F0F5CD30930001F2CD36
:1013E0009092810210920001E2E8F2E090E080E049
:1013F00040E0A82F51919B01082E02C035952795FA
:101400000A94E2F720FD02C0511139C0252F267041
:1014100039F021E030E001C0220FAA95EAF7422B13
:1014200052FF02C0537059F501968430910509F7B7
:101430001730C9F04423B9F09091C202EAEBF2E010
:1014400080E0642F70E09817D1F0208130E0209583
:101450003095262337233296232B29F08F5FF3CF45
:1014600030938102BFCF80918102882309F4ADCDF2
:10147000411105C080910001882309F4A6CD88EBB5
:1014800091E00E940A0541CE01E0A4CDD12C2FCEDF
:10149000809180028F5F80938002833008F435CE84
:1014A0008CEC91E0EECF60E070E0CB01B0CE82E753
:1014B00091E00E942F04B3CE84E091E0D6CE983420
:1014C00019F08F3309F021CE83EB91E00E942F04B5
:1014D0001CCE80E090E0892B09F4ADCC0E9478020C
:1014E000882309F4A8CC0E940000A3CCEBEDF2E025
:1014F0001382128288EE93E0A0E0B0E084839583AB
:10150000A683B78387E291E09183808385EC90E0A6
:101510009587848784EC90E09787868780EC90E0BD
:10152000918B808B81EC90E0938B828B82EC90E0AE
:10153000958B848B86EC90E0978B868B118E128E28
:10154000138E148E0895DB018F939F930E94DB0A04
:10155000BF91AF91A29F800D911DA39F900DB29F4F
:10156000900D11240895A1E21A2EAA1BBB1BFD01A8
:101570000DC0AA1FBB1FEE1FFF1FA217B307E40772
:10158000F50720F0A21BB30BE40BF50B661F771FCA
:10159000881F991F1A9469F76095709580959095AA
:1015A0009B01AC01BD01CF010895EE0FFF1F059017
:1015B000F491E02D09940E94E60AA59F900DB49F36
:1015C000900DA49F800D911D11240895A29FB0013C
:1015D000B39FC001A39F700D811D1124911DB29F67
:1015E000700D811D1124911D0895FB01DC014150F6
:1015F000504048F001900D920020C9F701C01D92A3
:0C16000041505040E0F70895F894FFCFEF
:10160C000100320000000000000000320000000069
:10161C000000000032000000000000000102044E37
:10162C0045535700000000AE020E023B021B036C38
:10163C00024A025E02E6010F001E191E1903020C7B
:10164C0006EE010F001E191E1903020C06F6010FFF
:10165C00001919191903020C06FE010F00191919AA
:10166C001903020C0606020F01231E231E04020F8F
:10167C00060E020F01231E231E04020F0616020F74
:10168C00001414141403020A051E020F001414147F
:10169C001403020A0502030405060708090A0B0CC9
:1016AC000D2602320238023F02470250025A0264EF
:1016BC000270027A020D0A00636F6E666C696374C5
:1016CC00696E6720636F6D6D616E64006F75747009
:1016DC00757420726561642D6261636B206D697332
:1016EC006D6174636800534954452D303100534982
:1016FC0054452D303200534954452D303300534955
:10170C0054452D303400534954452D303500534940
:10171C0054452D303600534954452D30370053492C
:10172C0054452D303800535441525455505F524556
:10173C004400475245454E0059454C4C4F570041CB
:10174C004C4C5F524544005045445F57414C4B0054
:10175C005045445F464C415348005045445F434C10
:10176C00454152004E494748545F464C415348004E
:10177C00454D455247454E4359004641554C540042
:00000001FF
