:100000000C9427010C944F010C944F010C944F0158
:100010000C944F010C944F010C944F010C944F0120
:100020000C944F010C944F010C944F010C944F0110
:100030000C944F010C944F010C944F010C944F0100
:100040000C9424050C944F010C9494050C946E05AB
:100050000C944F010C944F010C944F010C944F01E0
:100060000C944F010C944F01735D200020743D00EF
:100070005B530020666F7220004641554C54204C63
:100080004154434845443A200053504C4954004F92
:1000900050504F53494E4700207068617365732C70
:1000A00020706C616E3D00504F5745522D4F4E00F1
:1000B00052455345542D50494E0042524F574E2DF4
:1000C0004F5554005741544348444F4700547261C0
:1000D0006666696320636F6E74726F6C6C65722004
:1000E00076322E302E3020626F6F742C2072657342
:1000F00065743D0020206661756C742020202020EE
:10010000203A200053504C4954004F50504F53490F
:100110004E470020706564526571756573743D00CB
:1001200020656D657267656E63793D002020696E9C
:100130007075747320202020203A206E69676874DF
:100140003D002020706C616E202020202020203A6D
:100150002000202061726D73202020202020203A72
:10016000200020206379636C657320202020203AD2
:1001700020002D00202072656D61696E696E672018
:10018000203A200020677265656E3D00202070686F
:100190006173652020202020203A200020207374E5
:1001A0006174652020202020203A200053544154BF
:1001B000555300436F6D6D616E64733A2073203D3B
:1001C000207374617475732C2068203D2068656C01
:1001D00070202872656164206F6E6C7929007065EB
:1001E000646573747269616E20726571756573748C
:1001F0000000000000240027002A00000000002565
:100200000028002B00000000002300260029000425
:1002100004040404040404020202020202030303AD
:1002200003030301020408102040800102040810A7
:100230002001020408102000000008000201000054
:100240000304070000000000000000006D0A1124F4
:100250001FBECFEFD8E0DEBFCDBF12E0A0E0B1E01F
:10026000EAEFF5E102C005900D92AE37B107D9F77C
:1002700023E0AEE7B2E001C01D92A637B207E1F776
:1002800011E0C7E2D1E004C02197FE010E94CC0A30
:10029000C632D107C9F70E94C6050C94FB0A0C941C
:1002A0000000833081F028F4813099F08230A9F089
:1002B00008958730A9F08830C9F08430B1F4809176
:1002C00080008F7D03C0809180008F7780938000B5
:1002D000089584B58F7784BD089584B58F7DFBCF55
:1002E0008091B0008F778093B00008958091B00026
:1002F0008F7DF9CFCF93DF93282F30E0F901E95CB0
:10030000FD4F8491F901ED5DFD4FD491F901E15F5D
:10031000FD4FC491CC23A1F081110E945101EC2F1B
:10032000F0E0EE0FFF1FEB5FFD4FA591B491EC9154
:10033000ED2381E090E009F480E0DF91CF91089512
:1003400080E090E0FACF1F93CF93DF93282F30E027
:10035000F901E95CFD4F8491F901ED5DFD4FD49108
:10036000F901E15FFD4FC491CC23A9F0162F811153
:100370000E945101EC2FF0E0EE0FFF1FE550FE4F01
:10038000A591B4918FB7F894EC91111108C0D09554
:10039000DE23DC938FBFDF91CF911F910895DE2B79
:1003A000F8CFCF93DF9390E0FC01ED5DFD4F2491FA
:1003B000815F9D4FFC0184918823D1F090E0880FEC
:1003C000991FFC01EF50FE4FA591B491FC01E5503F
:1003D000FE4FC591D491623071F49FB7F8943C916F
:1003E000822F809583238C93E8812E2B28839FBFB7
:1003F000DF91CF9108958FB7F894EC912E2B2C9329
:100400008FBFF6CF2FB7F8946091D5027091D602C6
:100410008091D7029091D8022FBF0895AF92BF92DA
:10042000CF92DF92EF92FF920F931F93CF93DF93C0
:100430006C017B018B01040F151FEB015E01AE18EF
:10044000BF08C017D10759F06991D601ED91FC9111
:100450000190F081E02DC6010995892B79F7C5013E
:10046000DF91CF911F910F91FF90EF90DF90CF9090
:10047000BF90AF900895FC01538D448D252F30E03F
:10048000842F90E0821B930B541710F0CF960895A1
:1004900001970895FC01918D828D981761F0A28DCE
:1004A000AE0FBF2FB11D5D968C91928D9F5F9F7394
:1004B000928F90E008958FEF9FEF0895FC01918D4A
:1004C000828D981731F0828DE80FF11D858D90E0B7
:1004D00008958FEF9FEF0895FC01918D228D892F54
:1004E00090E0805C9F4F821B91098F73992708953C
:1004F00089ED92E00E946C0221E0892B09F420E052
:10050000822F089580E090E0892B29F00E947802E4
:1005100081110C9400000895FC01A48DA80FB92F3F
:10052000B11DA35ABF4F2C91848D90E001968F731B
:100530009927848FA689B7892C93A089B1898C913A
:10054000837080648C93938D848D981306C0028889
:10055000F389E02D80818F7D80830895EF92FF9253
:100560000F931F93CF93DF93EC0181E0888F9B8DD6
:100570008C8D98131AC0E889F989808185FF15C090
:100580009FB7F894EE89FF896083E889F9898081B3
:100590008370806480839FBF81E090E0DF91CF9182
:1005A0001F910F91FF90EF900895F62E0B8D10E0A4
:1005B0000F5F1F4F0F731127E02E8C8D8E110CC013
:1005C0000FB607FCFACFE889F989808185FFF5CF5E
:1005D000CE010E948C02F1CFEB8DEC0FFD2FF11DAF
:1005E000E35AFF4FF0829FB7F8940B8FEA89FB899B
:1005F00080818062CFCF682F89ED92E00C94AE02AB
:100600000F931F93CF93DF938C01D0E0C0E0F801EC
:10061000EC0FFD1F6491662341F089ED92E00E948A
:10062000AE02892B11F02196F2CFCE01DF91CF914E
:100630001F910F910895CF93DF93EC01888D88234C
:10064000B9F0AA89BB89E889F9898C9185FD03C035
:10065000808186FD0DC00FB607FCF7CF8C9185FF1A
:10066000F2CF808185FFEDCFCE010E948C02E9CFD1
:10067000DF91CF910895CF92DF92EF92FF920E9487
:100680000202C0908402D0908502E0908602F09031
:1006900087026C197D098E099F0921E0C090B40280
:1006A000D090B502E090B602F090B7026C157D05CF
:1006B0008E059F0508F420E0822FFF90EF90DF90D9
:1006C000CF9008950F931F93CF93DF93D0E0C0E0B6
:1006D000082F10E0C8010C2E02C0959587950A944A
:1006E000E2F780FF06C0FE01E45EFE4F80810E94BB
:1006F000FB022196C430D10569F7DF91CF911F919C
:100700000F9108950C94A301CF92DF92EF92FF9284
:100710000F931F93CF938C01FC0180810E947A017B
:10072000C1E0892B09F0C0E00E940202F801248197
:100730002C1729F0C4836583768387839087F8011B
:1007400023812C17D9F0C580D680E780F0846C19FE
:100750007D098E099F09C180D280F12CE12C6C1596
:100760007D058E059F0550F0C3838C2FCF911F917F
:100770000F91FF90EF90DF90CF900895C0E0F5CFFC
:10078000CF93DF93EC01862F68835A83498362E01D
:100790000E94D10188810E947A0121E0892B09F011
:1007A00020E02B832C830E9402026D837E838F8343
:1007B0009887DF91CF910895FC0101900020E9F71F
:1007C0003197AF01481B590BBC0189ED92E00C94A5
:1007D0000E028F929F92AF92BF920F931F93CF936F
:1007E000DF93CDB7DEB7A1970FB6F894DEBF0FBE8B
:1007F000CDBF19A2423008F44AE08E010F5D1F4FB1
:10080000842E912CB12CA12CA50194010E94AA0A3E
:10081000E62FB901CA01EA30F4F4E05DD801EE93A5
:100820008D01232B242B252B79F790E080E0109766
:1008300019F0CD010E94DC03A1960FB6F894DEBF3B
:100840000FBECDBFDF91CF911F910F91BF90AF90A1
:100850009F908F900895E95CE1CF82EB91E00C943A
:10086000DC03CF93DF930E940003EC010E942D0470
:100870008C0F9D1FDF91CF910895CF93DF93D0E030
:10088000C0E0009719F00E94DC03EC010E942D04E7
:100890008C0F9D1FDF91CF910895BC01990F880B9C
:1008A000990B4AE00C94E90380E790E00E94000372
:1008B00080E30E94FB0281E090E00E944D0480E210
:1008C0000E94FB028091C2029091C302009711F036
:1008D0000E94DC038CE690E00E9400030E9402026A
:1008E00028EE33E040E050E00E94AA0ACA01B901B4
:1008F0004AE00E94E90388E690E00C940003CF925E
:10090000DF92EF92FF920F931F93CF93C82F8B012B
:100910008093CF020E94020260938402709385024A
:1009200080938602909387026801F12CE12CA70145
:10093000980160EA76E881E090E00E949A0A24E655
:1009400030E040E050E00E94AA0A2093B4023093C5
:10095000B5024093B6025093B7020E945404EC2FA4
:10096000F0E0EE0FFF1FE256FE4F8081918100976D
:1009700011F00E94DC03C150C23068F480E20E9492
:10098000FB02E091C102F0E0EE0FFF1FE854FD4FC3
:1009900080810E946203012B61F083E790E00E9456
:1009A00000034AE0C701B6010E94E90383E70E9401
:1009B000FB02CF911F910F91FF90EF90DF90CF90AE
:1009C0000C942D048091C1028F5F8093C10290919D
:1009D000C0028917A8F01092C1028091B0029091D4
:1009E000B102A091B202B091B3020196A11DB11D56
:1009F0008093B0029093B102A093B202B093B3027D
:100A0000E091C102F0E0EE0FFF1FE854FD4F61815D
:100A100070E081E00C947F0447E250E0BC0188E87C
:100A200092E00E94EC0A1092AF0270E060E089E070
:100A30000E947F040E94540489E790E00E94000312
:100A400088E892E00C943D041F920F920FB60F922B
:100A500011242F933F938F939F93AF93BF938091D4
:100A6000D5029091D602A091D702B091D8023091D0
:100A7000D40223E0230F2D3758F50196A11DB11D97
:100A80002093D4028093D5029093D602A093D702EC
:100A9000B093D8028091D0029091D102A091D2025D
:100AA000B091D3020196A11DB11D8093D002909305
:100AB000D102A093D202B093D302BF91AF919F9184
:100AC0008F913F912F910F900FBE0F901F9018950F
:100AD00026E8230F0296A11DB11DD2CF1F920F92BF
:100AE0000FB60F9211242F933F934F935F936F9301
:100AF0007F938F939F93AF93BF93EF93FF9389ED72
:100B000092E00E948C02FF91EF91BF91AF919F9173
:100B10008F917F916F915F914F913F912F910F90A6
:100B20000FBE0F901F9018951F920F920FB60F9245
:100B300011242F938F939F93EF93FF93E091E902FA
:100B4000F091EA028081E091EF02F091F00282FDE3
:100B50001BC090818091F2028F5F8F732091F3020E
:100B6000821741F0E091F202F0E0E752FD4F958FDD
:100B70008093F202FF91EF919F918F912F910F90AF
:100B80000FBE0F901F9018958081F4CFCF93DF9305
:100B900000D000D01F92CDB7DEB7789484B58260C4
:100BA00084BD84B5816084BD85B5826085BD85B511
:100BB000816085BD80916E00816080936E0010928F
:100BC000810080918100826080938100809181000A
:100BD000816080938100809180008160809380009B
:100BE0008091B10084608093B1008091B0008160F9
:100BF0008093B00080917A00846080937A00809125
:100C00007A00826080937A0080917A00816080937C
:100C10007A0080917A00806880937A001092C100F7
:100C200014B714BE0FB6F894A8958091600088613F
:100C300080936000109260000FBE82E9E82E81E090
:100C4000F82E04E01A821982E981FA81EE0DFF1D67
:100C5000D08061E08D2D0E94D10161E029812111B8
:100C600060E08D2D0E94820349815A814F5F5F4F62
:100C70005A8349834330510539F7015053E0E50E5B
:100C8000F11C0111DFCF61E081E10E94D10161E03F
:100C900082E10E94D10160E081E10E94A30161E054
:100CA00082E10E94A301E091E902F091EA0282E070
:100CB0008083E091E502F091E6021082E091E70284
:100CC000F091E8028FEC80831092F102E091ED0246
:100CD000F091EE0286E08083E091EB02F091EC026D
:100CE000808180618083E091EB02F091EC02808151
:100CF00088608083E091EB02F091EC028081806853
:100D00008083E091EB02F091EC0280818F7D808303
:100D10008CE0E2E3F1E0A2ECB2E001900D928A9562
:100D2000E1F7A2ECB2E0FD018481893708F088E7A1
:100D3000873008F487E08483319682E0E63CF80748
:100D400099F790E080E020E04FE050E031E0BA0118
:100D5000082E02C0759567950A94E2F760FF12C0ED
:100D6000E22FF0E014966C911497EE0FFF1FE854F9
:100D7000FD4F732F082E01C0770F0A94EAF7708396
:100D800061832F5F019611968430910501F72093BE
:100D9000C0024CE251E06EE083E191E00E94C003AA
:100DA00044E650E06FE08AE091E00E94C00342E335
:100DB00050E060E181E091E00E94C0030E94540491
:100DC0008DEC90E00E94000384EC90E013FD0AC0DB
:100DD0008AEB90E012FD06C080EB90E011FD02C0AE
:100DE00087EA90E00E9431040E9454046091C0029E
:100DF00070E090E080E04AE00E94E90388E990E03A
:100E00000E9400038091C502813009F055C08FE82F
:100E100090E00E94310465E070E080E00E947F0471
:100E200088E19FE00FB6F894A895809360000FBE0C
:100E300090936000F8EECF2EF3E0DF2EE12CF12C42
:100E4000EBE92E2EE1E03E2EA89583E191E00E9491
:100E500084038AE091E00E94840381E091E00E9493
:100E600084038823B1F08091CF028450823088F0CF
:100E70008091CE0281110DC08091CC02882349F06F
:100E800091E09093CE020E9454048EED91E00E9476
:100E90003104E091CF02E93008F057C0F0E0ED5A9C
:100EA000F84F0C94CC0A5F077D070D09170931092B
:100EB00040094A095A09660989E890E0AACF0E94C8
:100EC0003B03882309F441C080910D01882331F050
:100ED00070E060E088E00E947F0437C080911601D6
:100EE000882321F070E060E087E0F5CF1092C10226
:100EF0006091B90270E081E0EECF0E9402024B01E6
:100F00005C0180910D01882329F06091CA0270E094
:100F100082E0E1CF4090840250908502609086028A
:100F2000709087020E943B038111EFCF80911601E0
:100F3000882359F084189508A608B708A8E58A16EA
:100F4000ABE19A06A104B10400F70E94020224EF6B
:100F500031E040E050E00E94AA0ADA01C901817044
:100F60009927AA27BB2789839A83AB83BC8349012E
:100F70005A0180949094A094B094682D617010925E
:100F80007F0291E090930001A091C4020A2F10E02B
:100F90008091C10290E0A091CF02AD8330E8632E32
:100FA00032E0732EF30150E040E0880F991F9C015E
:100FB00028543D4F2901862EC801042E02C0959564
:100FC00087950A94E2F780FD84C110824F5F5F4FDE
:100FD00031964430510581F79D81953009F4F1C176
:100FE00008F0A4C1943009F4AAC1ED81E93009F0F8
:100FF000ABC102E911E020E8A22E22E0B22ED50119
:101000009D905D01692D6170F80180810E948203CD
:1010100091FA662760F9D80111968C910E9482039B
:1010200092FA662760F9F80182810E9482030D5FBF
:101030001F4F24E832E02A153B0509F790907F0204
:10104000692D81E10E9482036091000182E10E948A
:1010500082033D8102E911E0393009F0CAC189ED0E
:1010600092E00E946C02892B09F42AC289ED92E079
:101070000E944A02982F9F7D933509F017C20E9463
:1010800054048CEA91E00E9431048CE991E00E94C2
:101090000003E091CF02F0E0EE0FFF1FE256FE4F9B
:1010A000808191810E943D048CE891E00E940003C0
:1010B0008091C10290E001960E944D048FE20E944F
:1010C000FB026091C00270E090E080E04AE00E9484
:1010D000E90384E891E00E940003E091C102F0E09E
:1010E000EE0FFF1FE854FD4F80810E9462030E94B3
:1010F0002D0484E791E00E9400038090B402909058
:10110000B502A090B602B090B70281149104A10478
:10111000B10409F4C3C10E9402020091840210913B
:1011200085022091860230918702DC01CB01801B71
:10113000910BA20BB30B88159905AA05BB0508F006
:10114000A9C1A5019401281B390B4A0B5B0BCA01ED
:10115000B901A70196010E94AA0ACA01B9014AE091
:101160000E94E90383E70E94FB020E942D0482E6AD
:1011700091E00E9400036091B0027091B1028091F1
:10118000B2029091B3024AE00E94E9030E942D044A
:1011900082E591E00E9400038091C4020E946203F4
:1011A0000E942D0482E491E00E9400038091C50218
:1011B000813009F078C18AE091E00E9431048CE22C
:1011C00091E00E9400038091160190E00E944D047E
:1011D00080E291E00E94000380910D0190E00E9466
:1011E0004D0483E191E00E9400036091CE0270E023
:1011F00090E080E04AE00E94E9030E942D04809183
:10120000CF02893009F02BCF84EF90E00E940003D9
:1012100088E892E00E943D0422CF0E943B0388238D
:1012200009F493CE6091CB0270E083E054CE0E942B
:101230003B03882309F489CE80910D01811148CEAA
:101240008091160181114ECE8091CE02882379F1D2
:101250006091CC02662359F11092CE0270E084E0D6
:101260003ACE80910D01882329F06091CD0270E083
:1012700085E031CE0E943B03882309F466CEF5CF8A
:101280000E943B03882309F460CE6091CB0270E09A
:1012900086E021CE0E943B03882309F456CE80913C
:1012A0000D01811115CE8091160181111BCE0E9476
:1012B000E2044BCE80910D0181110ACE809116017E
:1012C000811143CE65E070E080E005CE80910D0194
:1012D000F7CFD2018C9190E0042E02C095958795AE
:1012E0000A94E2F781709927BD81B23089F020F429
:1012F000B13051F081E006C02D81273069F0882D92
:101300002930C1F7808362CE892BA1F384E0FACF24
:10131000892B81F382E0F6CF89819A81AB81BC81F0
:10132000892B8A2B8B2BB1F380E0ECCFAD81A730DA
:1013300019F0A93009F059CE6093000156CEB1E002
:10134000B0937F0210920001E0E8F2E090E080E0CC
:1013500040E0682F51919801082E02C035952795DD
:101360000A94E2F720FD02C051113AC0252F2670E1
:1013700039F021E030E001C0220F6A95EAF7422BF4
:1013800052FF02C0537061F501968430910509F750
:10139000FD81F730C9F04423B9F06091C002E8EB59
:1013A000F2E050E0242F30E06517D1F0808190E02A
:1013B00080959095822393233296892B29F05F5F45
:1013C000F3CF60937F02BECF80917F02882309F420
:1013D00010CE411105C080910001882309F409CE87
:1013E00085EB91E00E940C053ACE0D5F1F4FBB20AC
:1013F000B1F1D80112968C910E947A015C01F3013F
:1014000021913F012983D80111968C910E947A0184
:1014100039813695317021E0019709F020E03213CF
:101420000CC0B981B2FB992790F981E0AA94AB284E
:1014300009F080E0BB24B3949813B12CD8018C91AF
:101440000E947A01B981B170B98321E0019709F056
:1014500020E0E981E21311C02016310631F681E166
:101460000E947A0121E0019709F020E0921207C062
:10147000BB2029F010927E02F2CDB12CF0CF8091EA
:101480007E028F5F80937E02833008F4E8CD89EC82
:1014900091E0A8CF60E070E0CB0161CE82E791E0FF
:1014A0000E94310464CE84E091E087CE983419F034
:1014B0008F3309F0D4CD83EB91E00E943104CFCD7E
:1014C00040E050E0452B09F4BFCC0E94780288230D
:1014D00009F4B6CC0E940000B3CCE9EDF2E013822F
:1014E000128288EE93E0A0E0B0E084839583A68327
:1014F000B78384E291E09183808385EC90E09587C7
:10150000848784EC90E09787868780EC90E0918BCD
:10151000808B81EC90E0938B828B82EC90E0958BBA
:10152000848B86EC90E0978B868B118E128E138EB7
:10153000148E0895DB018F939F930E94D20ABF916E
:10154000AF91A29F800D911DA39F900DB29F900D12
:1015500011240895A1E21A2EAA1BBB1BFD010DC088
:10156000AA1FBB1FEE1FFF1FA217B307E407F50753
:1015700020F0A21BB30BE40BF50B661F771F881F2F
:10158000991F1A9469F760957095809590959B01C5
:10159000AC01BD01CF010895EE0FFF1F0590F4913E
:1015A000E02D09940E94DD0AA59F900DB49F900D37
:1015B000A49F800D911D11240895A29FB001B39F97
:1015C000C001A39F700D811D1124911DB29F700D4C
:1015D000811D1124911D0895FB01DC0141505040F3
:1015E00048F001900D920020C9F701C01D924150B2
:0A15F0005040E0F70895F894FFCF93
:1015FA00010032000000000000000032000000007C
:10160A000000000032000000000000004E45535761
:10161A0000000000AE020E023B021B036C024A02EB
:10162A005E02E3010F001E191E1903020C06EB01EC
:10163A000F001E191E1903020C06F3010F001919D7
:10164A00191903020C06FB010F00191919190302D3
:10165A000C0603020F01231E231E04020F060B02AF
:10166A000F01231E231E04020F0613020F00141477
:10167A00141403020A051B020F00141414140302A3
:10168A000A0502030405060708090A0B0C0D2302C2
:10169A002F0235023C0244024D02570261026D02DA
:1016AA0077020D0A00636F6E666C696374696E6710
:1016BA0020636F6D6D616E64006F75747075742050
:1016CA00726561642D6261636B206D69736D61740B
:1016DA00636800534954452D303100534954452D10
:1016EA00303200534954452D303300534954452D67
:1016FA00303400534954452D303500534954452D53
:10170A00303600534954452D303700534954452D3E
:10171A00303800535441525455505F5245440047A3
:10172A005245454E0059454C4C4F5700414C4C5F71
:10173A00524544005045445F57414C4B0050454484
:10174A005F464C415348005045445F434C45415223
:10175A00004E494748545F464C41534800454D4561
:0E176A005247454E4359004641554C5400002D
:00000001FF
