:100000000C9489000C94B1000C94B1000C94B100D4
:100010000C94B1000C94B1000C94B1000C94B1009C
:100020000C94B1000C94B1000C94B1000C94B1008C
:100030000C94B1000C94B1000C94B1000C94B1007C
:100040000C94FB020C94B1000C946B030C944503CC
:100050000C94B1000C94B1000C94B1000C94B1005C
:100060000C94B1000C94B100536974652031206385
:100070006F756E74646F776E20646973706C6179EC
:100080002076312E302E3000636F756E74646F777A
:100090006E3A206C696E6B20757000636F756E74BC
:1000A000646F776E3A206C696E6B206C6F73742C82
:1000B00020646973706C617920626C616E6B000002
:1000C0000000080002010000030407000000000017
:1000D00000000000000000250028002B00000000A8
:1000E00000240027002A0004040404040404040279
:1000F00002020202020303030303030102040810C5
:100100002040800102040810200102040810200091
:100110008C0611241FBECFEFD8E0DEBFCDBF11E0AB
:10012000A0E0B1E0E4ECFDE002C005900D92A03249
:10013000B107D9F722E0A0E2B1E001C01D92A031E1
:10014000B207E1F710E0C9E8D0E004C02197FE0152
:100150000E94CD06C838D107C9F70E949D030C94B0
:10016000E0060C94000090E0FC01E550FF4F249164
:1001700089519F4FFC018491882399F090E0880F6A
:10018000991FFC01E352FF4FA591B491FC01ED5280
:10019000FF4F859194918FB7F894EC91E22BEC93FB
:1001A0008FBF089590E0FC01E154FF4F2491FC01C2
:1001B000E550FF4F3491FC01E951FF4FE491EE23EC
:1001C000C9F0222339F0233001F1A8F4213019F1CC
:1001D000223029F1F0E0EE0FFF1FED52FF4FA59105
:1001E000B4918FB7F894EC91611126C030953E23FD
:1001F0003C938FBF08952730A9F02830C9F02430F0
:1002000049F7809180008F7D03C0809180008F77B7
:1002100080938000DFCF84B58F7784BDDBCF84B53A
:100220008F7DFBCF8091B0008F778093B000D2CFCD
:100230008091B0008F7DF9CF3E2BDACF3FB7F89495
:1002400080916F0190917001A0917101B091720144
:1002500026B5A89B05C02F3F19F00196A11DB11D21
:100260003FBFBA2FA92F982F8827BC01CD01620F5D
:10027000711D811D911D42E0660F771F881F991F18
:100280004A95D1F70895AF92BF92CF92DF92EF9245
:10029000FF920F931F93CF93DF936C017B018B0130
:1002A000040F151FEB015E01AE18BF08C017D10780
:1002B00059F06991D601ED91FC910190F081E02D0A
:1002C000C6010995892B79F7C501DF91CF911F915F
:1002D0000F91FF90EF90DF90CF90BF90AF90089577
:1002E000FC01538D448D252F30E0842F90E0821B3C
:1002F000930B541710F0CF96089501970895FC01C1
:10030000918D828D981761F0A28DAE0FBF2FB11D18
:100310005D968C91928D9F5F9F73928F90E0089570
:100320008FEF9FEF0895FC01918D828D981731F02A
:10033000828DE80FF11D858D90E008958FEF9FEF7E
:100340000895FC01918D228D892F90E0805C9F4F54
:10035000821B91098F739927089583E791E00E948A
:10036000A10121E0892B09F420E0822F089580E08B
:1003700090E0892B29F00E94AD0181110C940000BE
:100380000895FC01A48DA80FB92FB11DA35ABF4F2A
:100390002C91848D90E001968F739927848FA68984
:1003A000B7892C93A089B1898C91837080648C93D8
:1003B000938D848D981306C00288F389E02D808187
:1003C0008F7D80830895EF92FF920F931F93CF93B9
:1003D000DF93EC0181E0888F9B8D8C8D98131AC080
:1003E000E889F989808185FF15C09FB7F894EE8967
:1003F000FF896083E889F9898081837080648083C4
:100400009FBF81E090E0DF91CF911F910F91FF900E
:10041000EF900895F62E0B8D10E00F5F1F4F0F73B6
:100420001127E02E8C8D8E110CC00FB607FCFACF71
:10043000E889F989808185FFF5CFCE010E94C1014D
:10044000F1CFEB8DEC0FFD2FF11DE35AFF4FF08242
:100450009FB7F8940B8FEA89FB8980818062CFCFA8
:100460000F931F93CF93DF938C01D0E0C0E0F8018E
:10047000EC0FFD1F6491662341F083E791E00E9439
:10048000E301892B11F02196F2CF42E050E06CE1BC
:1004900071E083E791E00E9443018C0F9D1FDF9183
:1004A000CF911F910F910895CF93DF93EC01888D29
:1004B0008823B9F0AA89BB89E889F9898C9185FDDF
:1004C00003C0808186FD0DC00FB607FCF7CF8C916D
:1004D00085FFF2CF808185FFEDCFCE010E94C10163
:1004E000E9CFDF91CF910895CF93DF93D82FC8E064
:1004F0006D2F661F6627661F8BE00E94D200DD0FFE
:1005000061E08DE00E94D20060E08DE00E94D200A8
:10051000C15071F7DF91CF9108951F93CF93DF936F
:10052000C82F162FD42F60E00E94D200812F0E9486
:1005300074028D2F0E94740261E08C2FDF91CF91A5
:100540001F910C94D200CF92DF92EF92FF920F9303
:100550001F93CF93DF9381E5E82E81E0F82ED0E062
:100560000AE003C0D130E1F309E08D2F8170880FDC
:10057000880F11E0180FC5E0C80F6701F60141911F
:100580006F01612F802F0E948D021F5F1C13F6CF19
:10059000DF5FF4E0EF0EF11CD43021F7DF91CF9153
:1005A0001F910F91FF90EF90DF90CF900895CF9320
:1005B000DF93C82FD62F462F682F8AE00E948D0226
:1005C0004D2F6C2F89E0DF91CF910C948D0260E06C
:1005D0008FE00E94D70260E089E00E94D70267E0C6
:1005E0008BE00E94D70268E08AE00E94D70261E0B7
:1005F0008CE00C94D7021F920F920FB60F92112429
:100600002F933F938F939F93AF93BF9380916B01F1
:1006100090916C01A0916D01B0916E0130916A01D1
:1006200023E0230F2D3758F50196A11DB11D20930E
:100630006A0180936B0190936C01A0936D01B0935C
:100640006E0180916F0190917001A0917101B09144
:1006500072010196A11DB11D80936F0190937001ED
:10066000A0937101B0937201BF91AF919F918F914F
:100670003F912F910F900FBE0F901F90189526E875
:10068000230F0296A11DB11DD2CF1F920F920FB65C
:100690000F9211242F933F934F935F936F937F9308
:1006A0008F939F93AF93BF93EF93FF9383E791E073
:1006B0000E94C101FF91EF91BF91AF919F918F91E6
:1006C0007F916F915F914F913F912F910F900FBE4E
:1006D0000F901F9018951F920F920FB60F92112432
:1006E0002F938F939F93EF93FF93E0918301F0916A
:1006F00084018081E0918901F0918A0182FD1BC013
:10070000908180918C018F5F8F7320918D01821772
:1007100041F0E0918C01F0E0ED58FE4F958F809311
:100720008C01FF91EF919F918F912F910F900FBEB0
:100730000F901F9018958081F4CFCF93DF93CDB7A2
:10074000DEB760970FB6F894DEBF0FBECDBF7894CA
:1007500084B5826084BD84B5816084BD85B58260C6
:1007600085BD85B5816085BD80916E008160809377
:100770006E001092810080918100826080938100E0
:1007800080918100816080938100809180008160F0
:10079000809380008091B10084608093B10080914B
:1007A000B00081608093B00080917A008460809373
:1007B0007A0080917A00826080937A0080917A003A
:1007C000816080937A0080917A00806880937A00BB
:1007D0001092C10014BE0FB6F894A89580916000E5
:1007E000886180936000109260000FBE8BE00E94D1
:1007F000B3008DE00E94B3008AE00E94B30089E05C
:100800000E94B30087E00E94B30061E08AE00E948A
:10081000D20061E089E00E94D20060E087E00E949F
:10082000D200E0918301F091840182E08083E09125
:100830007F01F09180011082E0918101F0918201AD
:100840008FEC808310928B01E0918701F0918801F9
:1008500086E08083E0918501F0918601808180614E
:100860008083E0918501F09186018081886080839A
:10087000E0918501F0918601808180688083E0911C
:100880008501F091860180818F7D808388E690E0EC
:100890000E9430020E94E702E1E5F1E080E1DF0121
:1008A0001D928A95E9F70E94A30261E08FE00E9401
:1008B000D7020E941E014B015C0168EEC62E63E068
:1008C000D62EE12CF12C0E941E01681979098A09A3
:1008D0009B09683E734081059105A8F3B1E0CB1AEE
:1008E000D108E108F10828EE820E23E0921EA11C37
:1008F000B11CC114D104E104F10429F760E08FE0D8
:100900000E94D7022FB7F89480916B0190916C01EF
:10091000A0916D01B0916E012FBF80936101909302
:100920006201A0936301B093640188E19FE00FB678
:10093000F894A895809360000FBE9093600041E406
:10094000642E41E0742E6E0141E1C40ED11C5AE0C8
:10095000E52EF12C5524539444244394A89583E721
:1009600091E00E94A101892B09F471C183E791E014
:100970000E947F01843229F4409250018093280123
:10098000EECFE09150018A3019F08D3009F051C15D
:10099000EE2309F46CC0AE2FB0E0A85DBE4F1C92F0
:1009A000EC3109F051C080912801843209F04CC02B
:1009B00080912901833409F047C080912A01843451
:1009C00009F042C080912B018C32F1F580912D010C
:1009D0008C32D1F5809141018A32B1F5809132019A
:1009E0008C3291F5809137018C3271F580913C0108
:1009F0008C3251F5E9E2F1E008E211E040E081914A
:100A000048276E167F06D9F78091420190ED980F26
:100A10009A3080F5082E000C990BC0972091430165
:100A200030ED320F3A3090F5022E000C330B20538C
:100A300031098F3F980741F034E0880F991F3A95AC
:100A4000E1F7822B481761F18091240190912501F3
:100A5000A0912601B09127010196A11DB11D80939F
:100A6000240190932501A0932601B09327011092B1
:100A7000500175CF9FEB980F963028F4082E000C8C
:100A8000990BC797CBCF8FEF9FEFC8CF3FEB320FBC
:100A90003630D0F6022E000C330B27533109C9CF64
:100AA0008091200190912101A0912201B091230118
:100AB0000196A11DB11D8093200190932101A09367
:100AC0002201B09323012FB7F89480916B0190918C
:100AD0006C01A0916D01B0916E012FBF80936501F3
:100AE00090936601A0936701B093680180916901BA
:100AF00081110AC04092690161E087E00E94D20042
:100B000088E890E00E943002FE0131961F01D80172
:100B100017968C91179790ED980F9A3060F418966D
:100B20009C91189790539A3030F419962C91205339
:100B300091E02A3008F090E0D80116962C912235E9
:100B400029F1293509F473C06EE5273401F1538288
:100B50005282518250820B5F1F4F3496CE16DF06B1
:100B6000B1F640E150E061E571E0C1010E94D306B9
:100B7000892B09F47CCF80E1F101A1E5B1E001907E
:100B80000D928A95E1F70E94A30271CF65E0992347
:100B9000F1F2D80118962C91022E000C330B205341
:100BA0003109BAE0B29FA001B39F500D1124082E65
:100BB000000C990BC09774E6789F9001799F300DD7
:100BC0001124420F531FD80119962C91022E000CAC
:100BD000330B20533109240F351F608380E0243606
:100BE000310548F0C90164E670E00E94B906DB01F6
:100BF000AE5EBE4F8C91818380E02A30310560F07B
:100C0000C901B7010E94B906CB01B7010E94B9061C
:100C1000DC01AE5EBE4F8C918283C901B7010E9498
:100C2000B906DC01AE5EBE4F8C91838394CF6BE33B
:100C3000AECF9FEF9E0F963208F019CF91E09E0F36
:100C400090935001F0E0E85DFE4F808388CE8FB72F
:100C5000F89480906B0190906C01A0906D01B09021
:100C60006E018FBF80916901882341F180916501F8
:100C700090916601A0916701B0916801A50194016E
:100C8000281B390B4A0B5B0BDA01C901883B9B40DF
:100C9000A105B10598F01092690160E087E00E941B
:100CA000D200E1E5F1E080E1DF011D928A95E9F7EC
:100CB0000E94A3028BE990E00E94300280916101C2
:100CC00090916201A0916301B0916401A50194012A
:100CD000281B390B4A0B5B0BDA01C9018838934199
:100CE000A105B10560F08092610190926201A0922D
:100CF0006301B09264010E94E7020E94A30240E0F7
:100D000050E0452B09F42ACE0E94AD01882309F456
:100D100021CE0E9400001ECEE3E7F1E01382128292
:100D200088EE93E0A0E0B0E084839583A683B78348
:100D300084E091E09183808385EC90E095878487BF
:100D400084EC90E09787868780EC90E0918B808B95
:100D500081EC90E0938B828B82EC90E0958B848B7E
:100D600086EC90E0978B868B118E128E138E148EEC
:100D70000895AA1BBB1B51E107C0AA1FBB1FA617E2
:100D8000B70710F0A61BB70B881F991F5A95A9F734
:100D900080959095BC01CD010895EE0FFF1F059041
:100DA000F491E02D0994FB01DC0104C08D910190C8
:100DB000801921F441505040C8F7881B990B0895C1
:040DC000F894FFCFD5
:100DC40000000000E301430170015402A1017F010E
:100DD40093017E306D79335B5F707F7B0D0A000079
:00000001FF
