:100000000C942F010C9457010C9457010C94570138
:100010000C9457010C9457010C9457010C94570100
:100020000C9457010C9457010C9457010C945701F0
:100030000C9457010C9457010C9457010C945701E0
:100040000C942C050C9457010C949C050C9476058B
:100050000C9457010C9457010C9457010C945701C0
:100060000C9457010C945701735D200020743D00DF
:100070005B530020666F7220004641554C54204C63
:100080004154434845443A200053504C4954004F92
:1000900050504F53494E4700207068617365732C70
:1000A00020706C616E3D00504F5745522D4F4E00F1
:1000B00052455345542D50494E0042524F574E2DF4
:1000C0004F5554005741544348444F4700547261C0
:1000D0006666696320636F6E74726F6C6C65722004
:1000E00076322E302E3020626F6F742C2072657342
:1000F00065743D0020206661756C742020202020EE
:10010000203A200020706564526571756573743DF6
:100110000020656D657267656E63793D002020691A
:100120006E7075747320202020203A206E696768F5
:10013000743D00202061726D20202020202020208E
:100140003A200053504C4954004F50504F53494EA1
:1001500047002020706C616E202020202020203A53
:100160002000202061726D73202020202020203A62
:10017000200020206379636C657320202020203AC2
:1001800020002D00202072656D61696E696E672008
:10019000203A200020677265656E3D00202070685F
:1001A0006173652020202020203A200020207374D5
:1001B0006174652020202020203A200053544154AF
:1001C000555300436F6D6D616E64733A2073203D2B
:1001D000207374617475732C2068203D2068656CF1
:1001E00070202872656164206F6E6C7929007065DB
:1001F000646573747269616E20726571756573747C
:100200000000000000240027002A00000000002554
:100210000028002B00000000002300260029000415
:10022000040404040404040202020202020303039D
:100230000303030102040810204080010204081097
:100240002001020408102000000008000201000044
:10025000030407000000000000000000AD0A1124A4
:100260001FBECFEFD8E0DEBFCDBF12E0A0E0B1E00F
:10027000EAE7F6E102C005900D92A63EB107D9F774
:1002800023E0A6EEB2E001C01D92AE3DB207E1F759
:1002900011E0CFE2D1E004C02197FE010E940C0BD7
:1002A000CE32D107C9F70E94CE050C943B0B0C94BB
:1002B0000000833081F028F4813099F08230A9F079
:1002C00008958730A9F08830C9F08430B1F4809166
:1002D00080008F7D03C0809180008F7780938000A5
:1002E000089584B58F7784BD089584B58F7DFBCF45
:1002F0008091B0008F778093B00008958091B00016
:100300008F7DF9CFCF93DF93282F30E0F901E95BA0
:10031000FD4F8491F901ED5CFD4FD491F901E15E4F
:10032000FD4FC491CC23A1F081110E945901EC2F03
:10033000F0E0EE0FFF1FEB5EFD4FA591B491EC9145
:10034000ED2381E090E009F480E0DF91CF91089502
:1003500080E090E0FACF1F93CF93DF93282F30E017
:10036000F901E95BFD4F8491F901ED5CFD4FD491FA
:10037000F901E15EFD4FC491CC23A9F0162F811144
:100380000E945901EC2FF0E0EE0FFF1FE55FFD4FDB
:10039000A591B4918FB7F894EC91111108C0D09544
:1003A000DE23DC938FBFDF91CF911F910895DE2B69
:1003B000F8CFCF93DF9390E0FC01ED5CFD4F2491EB
:1003C000815E9D4FFC0184918823D1F090E0880FDD
:1003D000991FFC01EF5FFD4FA591B491FC01E55F12
:1003E000FD4FC591D491623071F49FB7F8943C9160
:1003F000822F809583238C93E8812E2B28839FBFA7
:10040000DF91CF9108958FB7F894EC912E2B2C9318
:100410008FBFF6CF2FB7F89460913D0370913E03E4
:1004200080913F03909140032FBF0895AF92BF92F8
:10043000CF92DF92EF92FF920F931F93CF93DF93B0
:100440006C017B018B01040F151FEB015E01AE18DF
:10045000BF08C017D10759F06991D601ED91FC9101
:100460000190F081E02DC6010995892B79F7C5012E
:10047000DF91CF911F910F91FF90EF90DF90CF9080
:10048000BF90AF900895FC01538D448D252F30E02F
:10049000842F90E0821B930B541710F0CF96089591
:1004A00001970895FC01918D828D981761F0A28DBE
:1004B000AE0FBF2FB11D5D968C91928D9F5F9F7384
:1004C000928F90E008958FEF9FEF0895FC01918D3A
:1004D000828D981731F0828DE80FF11D858D90E0A7
:1004E00008958FEF9FEF0895FC01918D228D892F44
:1004F00090E0805C9F4F821B91098F73992708952C
:1005000081E493E00E94740221E0892B09F420E049
:10051000822F089580E090E0892B29F00E948002CC
:1005200081110C9400000895FC01A48DA80FB92F2F
:10053000B11DA35ABF4F2C91848D90E001968F730B
:100540009927848FA689B7892C93A089B1898C912A
:10055000837080648C93938D848D981306C0028879
:10056000F389E02D80818F7D80830895EF92FF9243
:100570000F931F93CF93DF93EC0181E0888F9B8DC6
:100580008C8D98131AC0E889F989808185FF15C080
:100590009FB7F894EE89FF896083E889F9898081A3
:1005A0008370806480839FBF81E090E0DF91CF9172
:1005B0001F910F91FF90EF900895F62E0B8D10E094
:1005C0000F5F1F4F0F731127E02E8C8D8E110CC003
:1005D0000FB607FCFACFE889F989808185FFF5CF4E
:1005E000CE010E949402F1CFEB8DEC0FFD2FF11D97
:1005F000E35AFF4FF0829FB7F8940B8FEA89FB898B
:1006000080818062CFCF682F81E493E00C94B602A2
:100610000F931F93CF93DF938C01D0E0C0E0F801DC
:10062000EC0FFD1F6491662341F081E493E00E948A
:10063000B602892B11F02196F2CFCE01DF91CF9136
:100640001F910F910895CF93DF93EC01888D88233C
:10065000B9F0AA89BB89E889F9898C9185FD03C025
:10066000808186FD0DC00FB607FCF7CF8C9185FF0A
:10067000F2CF808185FFEDCFCE010E949402E9CFB9
:10068000DF91CF910895CF92DF92EF92FF920E9477
:100690000A02C090EC02D090ED02E090EE02F090E1
:1006A000EF026C197D098E099F0921E0C0901C039F
:1006B000D0901D03E0901E03F0901F036C157D0584
:1006C0008E059F0508F420E0822FFF90EF90DF90C9
:1006D000CF9008950F931F93CF93DF93D0E0C0E0A6
:1006E000082F10E0C8010C2E02C0959587950A943A
:1006F000E2F780FF06C0FE01E45EFE4F80810E94AB
:1007000003032196C430D10569F7DF91CF911F9182
:100710000F9108950C94AB01CF92DF92EF92FF926C
:100720000F931F93CF938C01FC0180810E94820163
:10073000C1E0892B09F0C0E00E940A02F80124817F
:100740002C1729F0C4836583768387839087F8010B
:1007500023812C17D9F0C580D680E780F0846C19EE
:100760007D098E099F09C180D280F12CE12C6C1586
:100770007D058E059F0550F0C3838C2FCF911F916F
:100780000F91FF90EF90DF90CF900895C0E0F5CFEC
:10079000CF93DF93EC01862F68835A83498362E00D
:1007A0000E94D90188810E94820121E0892B09F0F1
:1007B00020E02B832C830E940A026D837E838F832B
:1007C0009887DF91CF910895FC0101900020E9F70F
:1007D0003197AF01481B590BBC0181E493E00C94A5
:1007E00016028F929F92AF92BF920F931F93CF9357
:1007F000DF93CDB7DEB7A1970FB6F894DEBF0FBE7B
:10080000CDBF19A2423008F44AE08E010F5D1F4FA0
:10081000842E912CB12CA12CA50194010E94EA0AEE
:10082000E62FB901CA01EA30F4F4E05DD801EE9395
:100830008D01232B242B252B79F790E080E0109756
:1008400019F0CD010E94E403A1960FB6F894DEBF23
:100850000FBECDBFDF91CF911F910F91BF90AF9091
:100860009F908F900895E95CE1CF8EE591E00C9424
:10087000E403CF93DF930E940803EC010E94350448
:100880008C0F9D1FDF91CF910895CF93DF93D0E020
:10089000C0E0009719F00E94E403EC010E943504C7
:1008A0008C0F9D1FDF91CF910895BC01990F880B8C
:1008B000990B4AE00C94F10380E790E00E94080352
:1008C00080E30E94030381E090E00E94550480E2EF
:1008D0000E94030380912A0390912B03009711F04B
:1008E0000E94E4038CE690E00E9408030E940A0242
:1008F00028EE33E040E050E00E94EA0ACA01B90164
:100900004AE00E94F10388E690E00C940803CF923D
:10091000DF92EF92FF920F931F93CF93C82F8B011B
:10092000809337030E940A026093EC027093ED02F9
:100930008093EE029093EF026801F12CE12CA70165
:10094000980160EA76E881E090E00E94DA0A24E605
:1009500030E040E050E00E94EA0A20931C0330930C
:100960001D0340931E0350931F030E945C04EC2F51
:10097000F0E0EE0FFF1FE65BFE4F80819181009754
:1009800011F00E94E403C150C23068F480E20E947A
:100990000303E0912903F0E0EE0FFF1FE05EFC4F40
:1009A00080810E946A03012B61F083E790E00E943E
:1009B00008034AE0C701B6010E94F10383E70E94E1
:1009C0000303CF911F910F91FF90EF90DF90CF9095
:1009D0000C943504809129038F5F809329039091B3
:1009E00028038917A8F01092290380911803909189
:1009F0001903A0911A03B0911B030196A11DB11D0B
:100A00008093180390931903A0931A03B0931B03C8
:100A1000E0912903F0E0EE0FFF1FE05EFC4F6181E3
:100A200070E081E00C94870447E250E0BC0180EF65
:100A300092E00E942C0B1092170370E060E089E0B6
:100A40000E9487040E945C0489E790E00E940803EA
:100A500080EF92E00C9445041F920F920FB60F9214
:100A600011242F933F938F939F93AF93BF938091C4
:100A70003D0390913E03A0913F03B091400330911C
:100A80003C0323E0230F2D3758F50196A11DB11D1E
:100A900020933C0380933D0390933E03A0933F0338
:100AA000B09340038091380390913903A0913A03A9
:100AB000B0913B030196A11DB11D80933803909323
:100AC0003903A0933A03B0933B03BF91AF919F9139
:100AD0008F913F912F910F900FBE0F901F901895FF
:100AE00026E8230F0296A11DB11DD2CF1F920F92AF
:100AF0000FB60F9211242F933F934F935F936F93F1
:100B00007F938F939F93AF93BF93EF93FF9381E472
:100B100093E00E949402FF91EF91BF91AF919F915A
:100B20008F917F916F915F914F913F912F910F9096
:100B30000FBE0F901F9018951F920F920FB60F9235
:100B400011242F938F939F93EF93FF93E091510381
:100B5000F09152038081E0915703F091580382FD98
:100B60001BC0908180915A038F5F8F7320915B032C
:100B7000821741F0E0915A03F0E0EF5BFC4F958F54
:100B800080935A03FF91EF919F918F912F910F9036
:100B90000FBE0F901F9018958081F4CFCF93DF93F5
:100BA00000D000D01F92CDB7DEB7789484B58260B4
:100BB00084BD84B5816084BD85B5826085BD85B501
:100BC000816085BD80916E00816080936E0010927F
:100BD00081008091810082608093810080918100FA
:100BE000816080938100809180008160809380008B
:100BF0008091B10084608093B1008091B0008160E9
:100C00008093B00080917A00846080937A00809114
:100C10007A00826080937A0080917A00816080936C
:100C20007A0080917A00806880937A001092C100E7
:100C300014B714BE0FB6F894A8958091600088612F
:100C400080936000109260000FBE8EE3E82E81E07A
:100C5000F82E04E01A821982E981FA81EE0DFF1D57
:100C6000D08061E08D2D0E94D90161E029812111A0
:100C700060E08D2D0E948A0349815A814F5F5F4F4A
:100C80005A8349834330510539F7015053E0E50E4B
:100C9000F11C0111DFCF61E081E10E94D90161E027
:100CA00082E10E94D90160E081E10E94AB0161E034
:100CB00082E10E94AB01E0915103F091520382E086
:100CC0008083E0914D03F0914E031082E0914F0339
:100CD000F09150038FEC808310925903E0915503FB
:100CE000F091560386E08083E0915303F091540322
:100CF000808180618083E0915303F091540380816F
:100D000088608083E0915303F09154038081806870
:100D10008083E0915303F091540380818F7D808321
:100D20008CE0E2E3F1E0AAE2B3E001900D928A9553
:100D3000E1F7AAE2B3E0FD018481893708F088E792
:100D4000873008F487E08483319683E0EE32F80739
:100D500099F790E080E020E04FE050E031E0BA0108
:100D6000082E02C0759567950A94E2F760FF12C0DD
:100D7000E22FF0E014966C911497EE0FFF1FE05EE7
:100D8000FC4F732F082E01C0770F0A94EAF7708387
:100D900061832F5F019611968430910501F72093AE
:100DA00028034CE251E06EE083E191E00E94C80329
:100DB00044E650E06FE08AE091E00E94C80342E31D
:100DC00050E060E181E091E00E94C8030E945C0471
:100DD0008DEC90E00E94080384EC90E013FD0AC0C3
:100DE0008AEB90E012FD06C080EB90E011FD02C09E
:100DF00087EA90E00E9439040E945C046091280315
:100E000070E090E080E04AE00E94F10388E990E021
:100E10000E94080380912D03813009F06DC08FE896
:100E200090E00E9439040E945C0481E691E00E94F7
:100E300045040E945C048DE991E00E9445040E94F3
:100E40005C048BED91E00E9445040E945C0487E104
:100E500092E00E94450465E070E080E00E94870413
:100E600088E19FE00FB6F894A895809360000FBECC
:100E700090936000F8EECF2EF3E0DF2EE12CF12C02
:100E8000E7E42E2EE1E03E2EA89583E191E00E945A
:100E90008C038AE091E00E948C0381E091E00E9443
:100EA0008C038823B1F0809137038450823088F01E
:100EB0008091360381110DC080913403882349F05D
:100EC00091E0909336030E945C048EEE91E00E94C4
:100ED0003904E0913703E93008F057C0F0E0ED58ED
:100EE000F84F0C940C0B7F079D074D0957097109AA
:100EF00080098A099A09A60989E890E092CF0E94A0
:100F00004303882309F441C080910D01882331F007
:100F100070E060E088E00E94870437C0809116018D
:100F2000882321F070E060E087E0F5CF109229037C
:100F30006091210370E081E0EECF0E940A024B0134
:100F40005C0180910D01882329F06091320370E0EB
:100F500082E0E1CF4090EC025090ED026090EE0212
:100F60007090EF020E9443038111EFCF8091160130
:100F7000882359F084189508A608B708A8E58A16AA
:100F8000ABE19A06A104B10400F70E940A0224EF23
:100F900031E040E050E00E94EA0ADA01C9018170C4
:100FA0009927AA27BB2789839A83AB83BC834901EE
:100FB0005A0180949094A094B094682D617010921E
:100FC000E70291E090930001A0912C030A2F10E01A
:100FD0008091290390E0A0913703AD8338EE632E12
:100FE00032E0732EF30150E040E0880F991F9C011E
:100FF000205E3C4F2901862EC801042E02C0959523
:1010000087950A94E2F780FDA4C110824F5F5F4F7D
:1010100031964430510581F79D81953009F411C214
:1010200008F0C4C1943009F4CAC1ED81E93009F077
:10103000CBC10EE311E028EEA22E22E0B22ED501A4
:101040009D905D01692D6170F80180810E948A0385
:1010500091FA662760F9D80111968C910E948A0353
:1010600092FA662760F9F80182810E948A030D5F77
:101070001F4FFCEEAF16F2E0BF0609F79090E702B3
:10108000692D81E10E948A036091000182E10E9442
:101090008A032D810EE311E0293009F0EAC181E4D1
:1010A00093E00E947402892B09F44AC281E493E020
:1010B0000E945202982F9F7D933509F037C20E94FB
:1010C0005C048CEB91E00E9439048CEA91E00E9470
:1010D0000803E0913703F0E0EE0FFF1FE65BFE4FE1
:1010E000808191810E9445048CE991E00E9408036F
:1010F0008091290390E001960E9455048FE20E949E
:1011000003036091280370E090E080E04AE00E94D1
:10111000F10384E991E00E940803E0912903F0E0E3
:10112000EE0FFF1FE05EFC4F80810E946A030E9469
:10113000350484E891E00E94080380901C0390909D
:101140001D03A0901E03B0901F0381149104A104FD
:10115000B10409F4E3C10E940A020091EC0210916B
:10116000ED022091EE023091EF02DC01CB01801BF9
:10117000910BA20BB30B88159905AA05BB0508F0C6
:10118000C9C1A5019401281B390B4A0B5B0BCA018D
:10119000B901A70196010E94EA0ACA01B9014AE011
:1011A0000E94F10383E70E9403030E94350482E753
:1011B00091E00E94080360911803709119038091D7
:1011C0001A0390911B034AE00E94F1030E94350428
:1011D00082E691E00E94080380912C030E946A033A
:1011E0000E94350482E591E00E94080380912D035E
:1011F000813009F098C189E491E00E94390483E3C9
:1012000091E00E94080381E691E00E94450483E397
:1012100091E00E9408038DE991E00E94450483E378
:1012200091E00E9408038BED91E00E94450483E366
:1012300091E00E94080387E192E00E9445048DE15D
:1012400091E00E9408038091160190E00E945504ED
:1012500081E191E00E94080380910D0190E00E94DD
:10126000550484E091E00E9408036091360370E029
:1012700090E080E04AE00E94F1030E9435048091F2
:101280003703893009F00BCF84EF90E00E94080308
:1012900080EF92E00E94450402CF0E94430388231E
:1012A00009F473CE6091330370E083E034CE0E9482
:1012B0004303882309F469CE80910D01811128CE62
:1012C0008091160181112ECE80913603882379F109
:1012D00060913403662359F11092360370E084E084
:1012E0001ACE80910D01882329F06091350370E0BA
:1012F00085E011CE0E944303882309F446CEF5CF42
:101300000E944303882309F440CE6091330370E0C8
:1013100086E001CE0E944303882309F436CE8091F3
:101320000D018111F5CD809116018111FBCD0E9437
:10133000EA042BCE80910D018111EACD8091160136
:10134000811123CE65E070E080E0E5CD80910D0154
:10135000F7CFD2018C9190E0042E02C0959587952D
:101360000A94E2F781709927BD81B23089F020F4A8
:10137000B13051F081E006C02D81273069F0882D11
:101380002930C1F7808342CE892BA1F384E0FACFC4
:10139000892B81F382E0F6CF89819A81AB81BC8170
:1013A000892B8A2B8B2BB1F380E0ECCFAD81A7305A
:1013B00019F0A93009F039CE6093000136CEB1E0C2
:1013C000B093E70210920001E8EEF2E090E080E0D6
:1013D00040E0682F51919801082E02C0359527955D
:1013E0000A94E2F720FD02C051113AC0252F267061
:1013F00039F021E030E001C0220F6A95EAF7422B74
:1014000052FF02C0537061F501968430910509F7CF
:10141000FD81F730C9F04423B9F060912803E0E280
:10142000F3E050E0242F30E06517D1F0808190E0A8
:1014300080959095822393233296892B29F05F5FC4
:10144000F3CF6093E702BECF8091E702882309F4CF
:10145000F0CD411105C080910001882309F4E9CD48
:1014600081E592E00E9414051ACE0D5F1F4FBB204C
:10147000B1F1D80112968C910E9482015C01F301B6
:1014800021913F012983D80111968C910E948201FC
:1014900039813695317021E0019709F020E032134F
:1014A0000CC0B981B2FB992790F981E0AA94AB28CE
:1014B00009F080E0BB24B3949813B12CD8018C912F
:1014C0000E948201B981B170B98321E0019709F0CE
:1014D00020E0E981E21311C02016310631F681E1E6
:1014E0000E94820121E0019709F020E0921207C0DA
:1014F000BB2029F01092E602D2CDB12CF0CF809122
:10150000E6028F5F8093E602833008F4C8CD85E65B
:1015100092E0A8CF60E070E0CB0141CE82E891E09C
:101520000E94390444CE83E491E067CE983419F0E8
:101530008F3309F0B4CD83EC91E00E943904AFCD34
:1015400040E050E0452B09F49FCC0E9480028823A4
:1015500009F496CC0E94000093CCE1E4F3E01382FE
:10156000128288EE93E0A0E0B0E084839583A683A6
:10157000B78384E291E09183808385EC90E0958746
:10158000848784EC90E09787868780EC90E0918B4D
:10159000808B81EC90E0938B828B82EC90E0958B3A
:1015A000848B86EC90E0978B868B118E128E138E37
:1015B000148E0895DB018F939F930E94120BBF91AD
:1015C000AF91A29F800D911DA39F900DB29F900D92
:1015D00011240895A1E21A2EAA1BBB1BFD010DC008
:1015E000AA1FBB1FEE1FFF1FA217B307E407F507D3
:1015F00020F0A21BB30BE40BF50B661F771F881FAF
:10160000991F1A9469F760957095809590959B0144
:10161000AC01BD01CF010895EE0FFF1F0590F491BD
:10162000E02D09940E941D0BA59F900DB49F900D75
:10163000A49F800D911D11240895A29FB001B39F16
:10164000C001A39F700D811D1124911DB29F700DCB
:10165000811D1124911D0895FB01DC014150504072
:1016600048F001900D920020C9F701C01D92415031
:0A1670005040E0F70895F894FFCF12
:10167A0001003200000000000000003200000000FB
:10168A000000000032000000000000004E455357E1
:10169A0000000000B602160243022303740252023B
:1016AA0066027F020F002314231404030A0F0203A5
:1016BA000405060708090A0B0C0D8B0297029D0206
:1016CA00A402AC02B502BF02C902D502DF020D0AAA
:1016DA00004E20204D6168656E64726120487779FA
:1016EA00206E6F72746820202850312C204E4520BD
:1016FA00636F726E65722C204E616D617374652022
:10170A004D65726F204D6F62696C65290045202016
:10171A007369646520726F61642065617374202047
:10172A00202020202850322C20534520636F726ECF
:10173A0065722C20496E7465726E6174696F6E6190
:10174A006C20436F757269657229005320204D61C0
:10175A0068656E6472612048777920736F75746862
:10176A0020202850332C20535720636F726E6572E5
:10177A002C2045617477656C6C2042616B657279C7
:10178A0020436166652900572020736964652072C9
:10179A006F616420776573742020202020202850F0
:1017AA00342C204E5720636F726E65722C20496E5E
:1017BA00666F7465636820436F6D7075746572290E
:1017CA0000636F6E666C696374696E6720636F6D20
:1017DA006D616E64006F75747075742072656164F2
:1017EA002D6261636B206D69736D61746368004279
:1017FA0052542D45415457454C4C00535441525470
:10180A0055505F52454400475245454E0059454C94
:10181A004C4F5700414C4C5F524544005045445F81
:10182A0057414C4B005045445F464C415348005089
:10183A0045445F434C454152004E494748545F4630
:10184A004C41534800454D455247454E4359004681
:06185A0041554C54000052
:00000001FF
